:020000040000FA
:2000000000500020ED000000E5000000C9000000E9000000E9000000E9000000000000001A
:20002000000000000000000000000000E9000000E900000000000000E9000000E90000001C
:20004000350E0000E900000069170000E9000000E9050000190B0000E9000000E900000027
:20006000E9000000BD170000E9000000E9000000E9000000E9000000E9000000E90000004D
:20008000E9000000E9000000E9000000E9000000E9000000E9000000E9000000E900000018
:2000A000E9000000E9000000E9000000E9000000E9000000E9000000E9000000E9000000F8
:2000C000E90000002D2600004FF0E023D3F8282DB2F5806F04D0D3F8283D9B0500D4FEE78F
:2000E000704700BFFEE700BFFEE700BF08B507F095FD104A10498A420DD2104801390346C3
:20010000891A21F003010431014453F8040B8B4242F8040BF9D10A480A494FF000028842C3
:20012000B8BF40F8042BFADB04F0AAFFFFF7CCFF08BD00BF00000020300800207C0D010028
:20014000300800207B320020F0B5002706463C463D4683B0304605F0CFFF0195019B9C42E1
:2001600006DD00BF019B01330193019BA342F8DB304605F0EFFF0195019BC4F5C8749C42C7
:2001800006DD00BF019B01330193019BA342F8DB0137B7F5487F06D0B7F5C87FD4BF3C467C
:2001A000C7F54874D6E703B0F0BD00BF70B54FF08054194DD4F8D831284601215B68984746
:2001C0000122D4F8D83111461B682846984707F0F7FB00F087FE00F007FE00F0B5F805F01B
:2001E00085FF05F0E5FF0120FFF7AEFF01230B4ED4F8B01105F5B825F360094AAB600B69D8
:200200001020D26A984707F0DFFB00F06BF9BDE870400020FFF798BF0040034000400940A0
:200220000020094008B541F2342002F023F900F025FC06F027F80548082100F0F5FA05F093
:20024000E1FEBDE808400220FFF77EBFF415002008210023F0B585B00DEB0100CDE900334C
:2002600000F0E2FABDF80E40254D64BAEE6A4AF6CD31A4B20220B04721460320B0471A215E
:200280000120B04708226B6B0DEB02010B201D4F984701206946AC6AA0473B68022B1ADC42
:2002A000022001A9A04758B93B68022B04DC0020FFF74AFF05B0F0BD0199134808F00EF915
:2002C0003B68022BF3DD114808F008F90020FFF73BFF05B0F0BD0E4A0E490F4808F0FEF886
:2002E0000E4808F0FBF83B68022BD9DD0949084A094808F0F3F80099094808F0EFF8CFE7E0
:20030000EC020100900600205C020100D00B01000C0201001C020100240201003402010071
:200320004C02010000F026BC10B54FF08054D4F8B83104205B699847D4F8B83104205B6BA9
:2003400098470128F8D110BDF0B593B007F038FB0746FFF7E9FF4FF08053D3F8B8314FF4B9
:20036000A060DB6998470121164B174A9962936A9907FCD5002007F021FA144800F028FD6A
:200380004822684612490FF041FD6D4600244FF08056D6F8B43120469B6B9847D6F8B43110
:2003A00020469B694FF40051984755F8044F631CEFD10FB113B0F0BD13B0BDE8F04007F0C2
:2003C00003BB00BF0020086000200840280400207002010010B54FF08054D4F8B831042040
:2003E0005B699847D4F8B83104205B6B98470128F8D110BD38B5002400254FF080531A4A71
:200400000420C2E90045D3F8B8315B6B9847012801D0FFF7DFFF4FF08053D3F8B8310020BB
:20042000DB6998470121114B114A9962936A9B07FCD54FF080520F4C0F49E368204623F4C9
:20044000807323F00103E360D2F8C83104251B689847312040F221210122084B2560E063FE
:20046000A1605A6038BD00BF300800200020086000200840000001400021000400002443F8
:2004800010B507F0DDF90023044C400E40EAC112C4E90023D4E9000110BD00BF300800209A
:2004A00010B507F0CDF90023064C400E40EAC112C4E9002305F09EF800B910BDBDE8104024
:2004C00005F078B830080020014B9868704700BF00200940704700BF0146012000F04AB8A4
:2004E00007F0A2B92DE9F84307F06AFA01254FF480724FF000094FF480334FF080561B4CE9
:20050000DFF86C802321C8F80090656062606360D6F8843107461B6848469847D6F88431F7
:20052000242128461B689847D6F88431252102201B689847236843F4E0232360C4F80890BD
:2005400007F072F90346D6F8B02103F50073E361C8F8A052C8F800501420136998470FB191
:20056000BDE8F883BDE8F84307F02EBA0020094000002443431E012B10B419D9042815D177
:2005800000231A4610F004001CBF124C21621BB10121114BC3F880121AB101220E4BC3F87F
:2005A000A02218B101220C4BC3F8C02210BC7047012808D10346074A916110F0020204D0B0
:2005C000044CE161DEE70023F7E7002BEED01046DEE700BF0020094000002443014B186864
:2005E000704700BFA00C002010B5FFF779FF194B1860FFF755FF184BD3F8A0307BB9164BCD
:20060000D3F88020EAB9144BD3F8C02032B100204FF48031114AC3F8C002516010BD4FF432
:2006200080730E4C636007F0FFF800F2052020F4FF70094B20F00100E061D3F88020002AE7
:20064000E1D000200121054AC3F88002516005F01DFAD8E7A00C0020000024430020094003
:200660000122024BC3F8002C704700BF0000084010B507F0A5F9114BD3F8002C012A0AD0B3
:200680004FF0864201210E4C1C60C2F80411C2F8001178B110BD4FF086410A4CC3F8004C68
:2006A000074C1C60C1F80421C1F80021C3F8002C0028EFD1BDE8104007F086B90000084071
:2006C000502D190051E5CC1A0122014BDA6070470000084070B5044607F072F9214606463C
:2006E000114805F0BFFA104805F0BAFA38B101210E4B0F4AC3F8001253699B06FCD54FF0FB
:200700008055D5F8A03160681B689847D5F8A03160689B6898471128F8D106B170BDBDE869
:20072000704007F051B900BFA40C0020000022430010094008B5064805F092FA38B1012124
:20074000044B054AC3F8001253699B06FCD508BDA40C0020000022430010094010B5A8B18F
:200760004FF0805C0021134C134A6368012023F4C0536360DCF8A031C2F88011C2F80012EC
:20078000DB68984763699B06FCD410BD04460B4805F066FA0028E3D005C814430028FBD148
:2007A000002CDDD0034A536823F4C05343F40063536010BD0010094000002243A40C002086
:2007C00038B5054607F0FCF804462946054805F095FA0020FFF7C2FF04B138BDBDE83840CE
:2007E00007F0F2B8A40C002010B50446C0B200F059F9204610BD00BF70B590B10E460024F5
:20080000451E04E0A64206D000F04CF9013415F8010F0028F6D100F065F90128FBD02046B5
:2008200070BD0446F7E700BF10B40C4B0C4C1A780133FF2A0FD1A342F9D10A4C49B1013929
:20084000631801381978A34200F8011F03F1FF33F8D110BC7047014CF0E700BFC8FF010039
:20086000D0FF0100F012005038B54FF08055D5F8B83102205B699847D5F8B83102205B6B3C
:20088000984701280446F7D1D5F8B8314FF40070DB699847034B044A9C62936A9B07FCD5A8
:2008A00038BD00BF0020086000200840F0B54FF0805540F2F27683B0284CFFF7D5FFD5F803
:2008C000D0312046DB689847D5F8B03115205B699847A36BD5F8B42123F4FE6323F00203C9
:2008E000A3636664D36B03209847082112231C4A2046C2F89010D5F8B4210093176C132376
:2009000003220221B847D5F8D02160232046576814494FF4E132B847142240F2011340F2CA
:2009200001306263E26A104942F01002E2620A68002A18BF0346236366640B685BB11520D4
:20094000A36BD5F8B02143F05003A363136903B0BDE8F040184703B0F0BD00BF001000408D
:2009600000200240006CDC02A80C00204FF0805370B5D3F8B83104465B6B022098470128D2
:2009800007D13A4BDB6ED80703D5394A93691907FCD4032C45D0374B1B6803B170BD4FF022
:2009A0008055D5F8B83102205B6B9847012856D12E4BDB6EDA0715D54FF080562C4DD6F8AC
:2009C000D0312846DB689847D6F8B03115205B69984740F2F272AB6B23F4FE6323F00203C3
:2009E000AB636A644FF08053D3F8B8314FF400701B6A9847032C23D001211F4B1B4A996230
:200A0000936A9B07FCD5032000F0FEF9022000F0FBF9132000F0F8F9BDE87040122000F0CB
:200A2000F3B94FF08055D5F8B83102205B6B98470128BDD0D5F8B8314FF400701B6A9847F6
:200A40004FF08054D4F8B8314FF400709B6A9847D4F8B8314FF400701B6B9847CCE7D5F8EA
:200A6000B8314FF400701B6A9847C5E70020084000100040A80C00200020086010B506F0FB
:200A80009FFF0446054800F0A3F90022044B1A6004B110BDBDE8104006F096BFE8040020DC
:200AA000A80C00204FF0805310B5D3F8B83104465B6B0220984701280BD0FFF7F7FE4FF098
:200AC0008053D3F8D0312146BDE810400348DB691847034BDB6EDB07F1D4EEE700100040CA
:200AE0000020084008B54FF08053D3F8B83102205B6B984701280AD1064BD86E10F00100A8
:200B000004D0A3F501239869C0F3C00008BD002008BD00BF0020084070B5FFF7A5FE40F210
:200B2000F2720C4C236C626413F0500F0DD00A4D4FF0805606E0D6F8D03120461B6998477B
:200B40002B681BB9A369DB06F5D570BDC0B29847EEE700BF00100040A80C00204FF0E02200
:200B6000D2F8103D23F00403C2F8103D30BFFFF7ABBD00BFF8B506F023FF04F03BFF18B175
:200B8000BDE8F84006F020BF884805F069F80225044648B1636823B19847A84228BF284656
:200BA000C5B22468002CF5D1FFF79AFC804B0446D3F88032002B00F0D2807E4B9B691B1AB3
:200BC000022B00F19680A3F28F23002BACBF02200120854228BF054604F00CFD002840F073
:200BE0008E80012D00F0CB80022DC9D12846611EFFF7C0FC6D4805F033F8062504460028A4
:200C000000F0AF80A3680BB1022098472369246825EA0305002CF5D1FFF756FD6B0700F120
:200C2000A380002D40F0A38000F0BCF90020FFF795FD4FF08052604C3920236823F003030A
:200C40002360A36843F00F03A360D2F8B8319B6998470020594B20642064C3F8200407F086
:200C600089FA062D00F09D804FF080560027544C504D0321EB6AD4F82432524823F00303EA
:200C8000C4F82432D6F8D8315B689847D6F8B8319B6B9847EB6A07F08DFB4B4AD6F8D831ED
:200CA000C2F88071474801215B6898470121D4F82432464A43F00303C4F82432D160EB6A91
:200CC00007F0AAFBFFF736FDFFF7EAFBFFF7FCFC364804F0C5FF044628B1E36803B198474F
:200CE0002468002CF9D106F06FFEBDE8F84006F06BBE04F07FFC00283FF442AF002504F03F
:200D000081FC0646FFF7BCFB361A002E7FF738AFFFF764FC00EB46210B1BA3F28F22002A44
:200D200036DA002D3FF42CAF082B2ED404F58034631A31EA230128BF21460220FFF71AFC4E
:200D40004FF0E022D2F8103D23F00403C2F8103D30BFFFF7B9FCBDE8F84006F035BE022098
:200D600037E7FFF7B1FC06250022184BDA604FF08053D3F8B83128469B69984754E7022054
:200D800004F58031FFF7F6FBDAE704F10801D4E7012DC9D0022D7FF4F3AE2846FFF7EAFBF5
:200DA00028E7022006F0AEFE5EE700BFAC0C002000002443002009400010094000002243F6
:200DC000002008400040034000000443004009400146014804F046BFAC0C00200146014867
:200DE00004F08CBFAC0C002010B5064804F034FFBDE810404FF08053D3F8843120210320B7
:200E00001B681847AC0C0020431C10D04FF0805310B5D3F8B43104461B684FF4C04200211F
:200E200098470023024840EA8404236010BD7047001A4442034BD3F8E000C3F8E00005F084
:200E400041B900BF002002404FF0805370B5D3F8B4310C465B680546984714F00C0320F02E
:200E6000E06222F4EC2207D0042B23D0082B24D00C2B08BF42F4403214F0030310D142F425
:200E8000C04223064FF08053D3F8B4312846BDE870404FF000011B6848BF42F480221847A1
:200EA000022B04D0012B08BF42F48042E9E742F40052E6E742F40032DEE742F48032DBE74A
:200EC000074AD2F8D030C340DB074CBFD2F88030D2F8C03023FA00F000F00100704700BF5F
:200EE000002002400022412300B585B002A8CDE90223FFF7EFFB042006F0F4FD032805D1AF
:200F000002A8FFF75DFC05B05DF804FB0321042006F0BCFD042006F0E5FD0328FAD11C23A7
:200F20004FF0405200210090044806F067FD02A8FFF746FC05B05DF804FB00BF00A00C40F3
:200F40000022412300B583B06846CDE90023FFF7C1FB012006F0C6FD012803D001210320CF
:200F600006F094FD6846FFF72BFC03B05DF804FB0022412300B583B06846CDE90023FFF72D
:200F8000A9FB012006F0AEFD012805D04FF08053D3F8800006F01EFC6846FFF711FC03B01C
:200FA0005DF804FB10B54123002482B06846CDE90043FFF78FFB0320214606F067FD012032
:200FC00006F090FD20B96846FFF7FAFB02B010BD4FF08053D3F8800006F0FCFB6846FFF7AF
:200FE000EFFB02B010BD00BF70B5038804463BB140F2CB22934208D182290AD0012070BD43
:2010000040F2CB232380012070BD00232380032070BD094B094E1D69FFF756FB05F088FDB7
:2010200005F056FE8021A847002880B2E8DD05F049FEF3689847EFE7EC020100DC09010097
:20104000024BD3F89C0100F001007047002008404FF0FF332DE9F0412E4C804623602368C5
:201060000F460B6010F0030302D1028811050DD406F0A6FC284B0546D3F89C31DB071BD497
:20108000002D36D000252846BDE8F081438006F097FC214B0546D3F89C31DA07F0D5B8F883
:2010A000003013F4405F07D003F44063B3F5006F04BF1A4BC3F80080194E4CF25032C6F88A
:2010C00000807368236003E07368013A236018D02368DBB2002BF7D085B123683B602568DB
:2010E000EDB2A5F10105B5FA85F56D092846BDE8F08106F069FC2846BDE8F08106F064FC5D
:20110000EBE71DB1236800253B60BCE706F05CFCF8E700BFB00C002000200840B40C002031
:20112000001004400B4A01E0013A11D0438803F44063B3F5806FF7D14388074A9BB2136069
:20114000428802F44062A2F58062B2FA82F252091046704720A10700B00C002070B54FF024
:20116000805482B006F02CFCD4F8B03105461B6A19209847D4F8B03112201B6A9847D4F8A7
:20118000B03119205B699847D4F8B03112205B699847D4F8B83101205B699847D4F8B831E2
:2011A00001205B6B98470128F8D1174A174BD0629862936A9B07FCD54FF080540022144B84
:2011C000D4F8B0111A615A6119200B699847D4F8B03112201B6998479DB140F2FF360024A5
:2011E0000C4B0D4A0D4D01A92E600D48DC611A60FFF72EFFA0F10100B0FA80F0400902B0D9
:2012000070BD06F0E1FBE8E700200840002008600010046000100440510007060000046086
:201220000100060400B587B01422002101A80EF0DFFE4FF0010C40F60A0218499DF8113017
:2012400009686CF30303059101A86946ADF804208DF81130FFF7FCFE012803D0002007B078
:201260005DF804FB0E4801E00138F8D0BDF8063003F44063B3F5806FF6D1BDF80630094AC1
:201280009BB21360BDF8060000F44060A0F58060B0FA80F0400907B05DF804FBC40C00206C
:2012A00020A10700B00C002000B587B01422002101A80EF09DFE4FF0010C40F609029DF8E3
:2012C000113069466CF3030301A8ADF804208DF81130FFF7BDFE012803D0C0B207B05DF856
:2012E00004FB134A01E0013A1CD0BDF8063003F44063B3F5806FF6D1BDF806300D4A9BB218
:201300001360BDF8063003F44063B3F5806F09D1094B1A7852B90122059808491A70086070
:201320001046DBE7002007B05DF804FB0120D5E720A10700B00C002048320020C40C00205F
:2013400030B54FF0805487B006F03AFBD4F8B03105465B6919209847D4F8B03112205B69BC
:201360009847334BD3F89C31DA072FD4FFF79CFF002001212E4A2F4BD0629962936A9B0703
:20138000FCD54FF08054D4F8B83101209B699847D4F8B83101205B6B98470228F8D1D4F876
:2013A000B03119201B6A9847D4F8B03112201B6A9847D4F8B03119201B699847D4F8B03176
:2013C00012201B6998476DB307B030BD00211A4B102219610124596102A80EF009FE40F6BE
:2013E0000D029DF8153002A864F3030301A9ADF808208DF81530FFF72BFEA042B6D10F4ADB
:2014000001E0013AB2D0BDF80A3003F44063B3F5806FF6D1BDF80A30094A9BB21360BDF890
:201420000A30A3E707B0BDE8304006F0CDBA00BF00200840002008600010046020A10700B4
:20144000B00C002008B506F005FA052803460ED0032806D080B903220C4B0120C3F8D02127
:2014600008BD0222094B0120C3F8D02108BD074A0120C2F8D03108BD012801D0002008BDCC
:201480000521024AC2F8D01108BD00BF0020084008B5FFF763FE012804D1FFF7C3FE012861
:2014A00000D108BDFFF74CFF002008BD08B5FFF7FBFEFFF7B7FE012800D108BDFFF740FF25
:2014C000002008BD38B5194B194A1978D2F89C210029184C18BF0024D30700D438BD06F03A
:2014E0006FFA02464FF080550021134B134898615C611446D5F8B0211961136A1920984790
:20150000D5F8B03112201B6A9847D5F8B03119201B699847D5F8B03112201B699847002CCE
:20152000DCD1BDE8384006F04FBA00BF4A320020002008400000C0800010046000004080AB
:20154000094B1B782BB100231946084A116153617047074A074B0849002808BF1346034A8E
:2015600011615361704700BF4A320020001004600200C0800800C0800000C080044A054B57
:201580001178054A002918BF00235361704700BF4A3200200000C08000100460014B18680A
:2015A000704700BFB40C002038B50B460446154600211A460EF01CFD0122637B258062F35F
:2015C0000303637338BD00BF014B1860704700BFB80C002010B5064B06495C6806480C607A
:2015E00000234FF43441054A03F0B0FE012010BD00300440C00C0020CC0C00207116000053
:20160000164B1B6843B370B59B68984708B9002070BD06F0D5F90023114A124E54683268E3
:2016200014F1804143F10003914273F10003054603D3346065B1012070BDFEF751FF0A4AC1
:201640000A4913680860013313603460002DF2D106F0BAF9012070BD00207047B80C002077
:2016600000300440C00C0020C80C0020BC0C002010B5134B1B68B3B19B689847D8B9114C54
:20168000236A984701280ED1FFF7BAFF636A0446984744B1BDE8104000234FF434410A4A18
:2016A0000A4803F053BE0023BDE810408021064A064803F04BBEFFF7A3FF0446E9E700BF10
:2016C000B80C0020EC02010071160000CC0C002070B5204E3368002B39D09B68044698472A
:2016E00008BB1D4D2B6A9847FFF78AFF6B6A98471A4BB4F1404F1D681CD83268184BB2F95C
:201700000C101A68CB17891A63EBE273091945EB03052D0243F609520023080245EA116118
:201720000EF074F970BDFFF76BFF0C4BB4F1404F1D68E2D9FEF7D4FE0A4B1B68C3F17E43D2
:2017400003F57203C34248BF05F1FF35D5E7184670BD00BFB80C0020EC020100C80C002019
:20176000C40C0020BC0C002010B5104BD3F89C31DA0704D4FFF7F2FC012800D010BD0C4C1E
:2017800023695B0204D46FF00042094B1A6110BD0122084B08481A7004F068F96FF48003C0
:2017A0006FF000422361024B1A61F0E700200840001004604B320020FC04002008B5114BB3
:2017C000D3F89C31D90704D4FFF7C8FC012800D008BD06F0F5F80C4B1A6912020BD40A4B3C
:2017E0001A6912F00A0F1CBF6FF00A021A61BDE8084006F0E9B86FF4000204481A6104F0E6
:2018000035F9ECE70020084000100460FC040020014B1878704700BF4C32002008B5FFF728
:201820000FFC30B1034B5888A0F10200B0FA80F0400908BDF00C00207D2901D9012070475F
:2018400008B50A46014602480EF0E0FA002008BDC60F002010B588B040F60202182102A81E
:20186000FFF7A2FE012211499DF818300968104C898823F00F03ADF81A1002A801A90794B7
:201880008DF818308DF81620FFF7E2FB012802D0002008B010BD02A8FFF744FCA0F10100DB
:2018A000B0FA80F0400908B010BD00BF4C05002020050020F8B50E4D00200E4E2C680E4F56
:2018C00006E02379022B06D024682B68A34209D02379032BF5D133782BB124682B6801204F
:2018E000A342F5D1F8BD384604F0C0F80120EBE7B80F00204A320020FC04002030B583B0B0
:20190000FFF74CFE0446FFF79BFB08B903B030BD0A4801A9FFF79CFB0128F7D1FEF7E0FD04
:201920006FF03F052D1A03E0FEF7DAFDC542EDD5638803F44063002BF6D0E7E701000104FB
:201940000B280BD00C2801D001207047042A08D139B10A4B00201B680B607047082A00D18E
:2019600009B902207047064A4B1E073112F8010903F8010F8B42F9D100207047EC0C002036
:201980001F0D0020082200B585B000210DEB02000EF02EFB42F2034302A801A9ADF80830FA
:2019A000FFF756FB20B19DF90A30803303D0002005B05DF804FB9DF80C0000F00C00A0F162
:2019C0000400B0FA80F0400905B05DF804FB00BF082210B584B00DEB020000210EF008FB99
:2019E00002229DF80C3042F2034462F301038DF80C300CE0082200210DEB02000EF0F8FA3C
:201A000002A801A9ADF80840FFF722FB38B19DF80C0000F00303022BECD004B010BDFF2069
:201A200004B010BD2DE9F043DFF8CC8083B081460F46D8F80060FEF753FD304D2D1A03E04E
:201A4000FEF74EFDC5421DD53479022CF8D0032C13D1D8F800100B7A062BDEB202DDB51FBE
:201A6000BD4211DD00231D4628460A680B71C8F800200B7203B0BDE8F0830025284603B029
:201A8000BDE8F0833479E2E72A46093148460EF0BDF90422D8F80010F31CCB5C184F5BB21C
:201AA0003B70331DCB5C05363144164E03F03F030DEB020033700EF0A9F90198FFF708FEE9
:201AC000114B124A1B7810605BB100222846D8F8003019681A72C8F800101A7103B0BDE8EF
:201AE000F0833978042049B289B205F041F92046317805F03DF9E8E7C00F0020F4FEFFFF51
:201B00002E080020493200204A320020EC0C002030B583B0FEF7E4FC194C241A06E0FFF7B4
:201B200031FF38B1FEF7DCFCC44203D5FFF788FA0028F4D101A91348FFF78AFA6FF03F045B
:201B4000FEF7CEFC104D241A06E06888022808D1FEF7C6FCC44203D5FFF772FA0028F4D16E
:201B6000688842F20243984207D042F20743C01AB0FA80F0400903B030BD012003B030BD2F
:201B800000FEFFFF01000104F00C002008B5FFF757FA30B1044B5B88022B14BF02200120CD
:201BA00008BD022008BD00BFF00C002030B583B0FFF746FA30B1134C6388022B02D1012004
:201BC00003B030BD0F4801A9FFF742FA012802D0002003B030BDFEF783FC6FF03F05094C0B
:201BE0002D1A03E0FEF77CFCC54209D560880228F8D1A0F10200B0FA80F0400903B030BDF8
:201C00006088F6E7F00C002008B5FFF723FE012801D0002008BDFFF7C9FFC0B208BD00BF7C
:201C200010B5FEF75DFC1A4C241A06E0FFF7AAFE38B1FEF755FCC44203D5FFF701FA002843
:201C4000F4D1FFF7FDF9134C20B16388022B01D1FFF75EFFFFF774FBFFF7A4F900220E4BF3
:201C600062801979022908BF1A710C4B1A79022A04BF00221A710A4B1A79022A04BF0022F4
:201C80001A71084B1A79022A04BF00221A7110BD00FEFFFFF00C0020880D0020140E00205B
:201CA000A00E00202C0F002008B5FFF7B1FD012801D0FFF7B5FF012008BD00BF10B5FFF796
:201CC000A7FD012808D0FFF73BF9FFF7B9F928B11D4B5B88022B01D1012010BD4FF0010C30
:201CE0004FF0840E19481A4B44791A496CF3830401601860A0F806E044714879164A6CF3BB
:201D000083000A60A1F806E04871507959796CF383006CF383011360A2F806E0A3F806E0CA
:201D200050715971FFF724F9FFF7B2FB012801D0002010BDFFF7C6FBFFF78CFD0128F7D154
:201D4000BDE81040FFF732BFF00C0020880D00202C0F0020140E0020A00E0020F8B5002599
:201D6000354E3648FFF734F8FFF76CFB8C22294630460EF03DF98C22294631480EF038F957
:201D80008C2229462F48304C0EF032F98C2229462E480EF02DF92E4F2E4B802229462046E6
:201DA0003E601E607D600EF023F942F601032A4E2360A623304642F202024FF2F0012761A8
:201DC00001272377E36820F8022B1940234AA369C4E901551A4094F83730C4E9085567F32B
:201DE000030384F837301E4BE5830B43E3601D4B04F118011343A3611B4B02226361A56372
:201E00000EF004F83A4604F11A01301D0DF0FEFFFFF754FFB84202D02C462046F8BD044605
:201E20001248FFF7D1FBFFF7D5FB2946104803F027FD2046F8BD00BF880D00200C05002022
:201E4000140E0020A00E0020F00C00202C0F0020B80F0020C00F0020700D0020007C00808C
:201E600000011AB10702FF6F780D002024030100FC04002070B5FFF7CBFC012835D0FFF72C
:201E8000DFF8A8B3224E7388022B31D1FEF728FB204C241A06E0FFF775FD38B1FEF720FB6D
:201EA000C44203D5FFF7CCF80028F4D1FFF7C8F8D8B100257388022B26D1FFF789FDFF2877
:201EC00022D000F00300441E18BF012475B1FFF79FFC01280AD0FFF7A3FE204670BDFFF7E5
:201EE00097FC012801D0FFF79BFE0124204670BDFFF7E4FE01280446F1D1FFF7A1F800284A
:201F0000E5D02546024ED5E70124002DEED0DEE7F00C002000FEFFFF70B588B00546FFF70A
:201F20008FF800285AD03A4B5B88022B56D10024FEF7D6FA6FF01F06361A07E0FFF722FD53
:201F4000012854D1FEF7CCFAC64252D5FFF778F80028F3D1182142F6014202A8FFF724FB84
:201F600000222C4BE8B28DF81700069304929DF81430012062F303038DF81430FFF7E0FA75
:201F800002A801A9FFF764F8D0B1234DBDF80A302A7803F4406333B982B3BDF80A3003F478
:201FA0004063002BF8D0BDF80A50ADB2B5F5105518BF0125FFF7E2FA3CB9284608B070BDF7
:201FC0000125FFF7DBFA002CF7D0FFF721FC0128F3D0FFF725FE284608B070BDFFF76EFE50
:201FE00001280446A4D00125284608B070BD0028B0D034B90225284608B070BDFEF7AEFDD2
:20200000C4E7FFF705FC0128F4D0FFF709FEF1E7F00C0020C60F00204A3200207D2801D930
:2020200001207047FFF778BF7D2901D90120704710B50C460A46014603480DF0E7FE204602
:20204000BDE81040FFF768BFC60F002010B5FFF7DFFB01281AD0FEF7F3FFB8B10C4C63883E
:20206000022B13D1FEF7ECFF60B9FEF7E9FF68B16388022B0AD1FFF7ABFCFF2806D0C0F320
:20208000801010BDFFF77EFC0028EED0002010BDF00C00200B2810B502D00124204610BD62
:2020A000082A23D111B3154A01F1080313F8010D8B4202F8010BF9D1FEF7C2FF04460028FC
:2020C000ECD00F4C6388022B15D1FEF7B9FF80B16388022B0DD1FFF71BFD012809D00324E0
:2020E000FFF764FD012818BF0324D7E70224204610BD0024F4E70024D0E700BF180D00206D
:20210000F00C002030B585B0072800F2BB80DFE800F029323D474A7176045B4C2177FEF72E
:202120008FFF002838D06388022B35D1FEF788FF002800F08C806388022B40F08880FFF7DD
:20214000E7FC012818BF032400F08180FFF7AEF901287ED0FFF72AFD012818BF03242046C6
:2021600005B030BD012900F08780002974D00224204605B030BDA1F10B030F2BF7D8424CCA
:20218000C9B2A37B8B4207D0A173C8E73E4C6186FEF756FF0028C6D10024204605B030BD99
:2021A000394C2186BBE731F00703E0D1364C01F00103228B3548C1F3400543F0020302F4AD
:2021C000FE4243EA850313430278C1F38001914223830170A3D104F1180102222C480DF004
:2021E00015FE2C4803A9FEF733FF00280CBF03240024B4E731F00103B9D1CCB2AFE701F1F7
:2022000015031A2BB3D86FF014030C25224A01E052F83530994229DD013DF9D2FEF710FF45
:20222000044600289BD00422002103A80DF0E0FE1022194B03A803EBC505AB8802A90024F9
:20224000ADF80E30ADF80C20FEF702FF87E700247CE7FFF7D5F97DE70191FFF7D9FA012833
:202260009AD0FFF7DDFC01990C4678E70A4B0B4A03EBC5031360D1E7FFF720FD01288BD0B8
:2022800003246CE701246AE7F00C00204A320020720D0020700D0020340301004C050020B1
:2022A000D1B170B50C4684B0182813D8DFE800F03EB0AB684D0D16A5736D39121212353144
:2022C0002C281224201C0DB56400002318460B6004B070BD0120FBE7022070475D4B0020A1
:2022E0001B681B680B60F3E70A2300200B60EFE7202300200B60EBE7032300200B60E7E7E6
:20230000052300200B60E3E76FF0140300200B60DEE71A2300200B60DAE70B2300200B6038
:20232000D6E74D4B00201B780B60D1E7FEF788FE002800F08A80494B5888A0F10203B3FA1E
:2023400083F35B0900202360C2E70023434A0B60137E03F001030B60127E520744BF43F02A
:2023600002030B603E4B1B78002B44D00B68002043F004030B60ABE77D2300200B60A7E70F
:20238000364B00201B8E0B60A2E7364B00201B785BB20B609CE7FEF753FE00283FD02F4BD9
:2023A0005B88022B3BD10026082200210DEB02000DF01EFE02229DF80C3042F2034562F3B7
:2023C00083038DF80C300AE0002102A80DF010FE02A801A9ADF80850FEF73AFE48B39DF8E8
:2023E0000C2002F00C02082AEED03EBB9DF90A30236080332BD000206AE7184B002093F947
:202400001C300B6064E7154B00205B8E0B605FE7124B00209B7B0B605AE7182392E7FFF7B7
:202420004DFC01280646BFD06FF07F03032023604EE780238DF80A30002EF5D0FFF7E8F967
:202440000128D3D0FFF7ECFBD0E703467AE703203EE700BF4C05002049320020F00C002043
:202460004A3200202E08002008B500F077F880B208BD00BF00F004B938B54FF08055D5F81D
:20248000B83104205B699847D5F8B83104205B6B984701280446F7D1D5F8B83140F20140A9
:2024A000DB699847034B044A9C62936A9B07FCD538BD00BF0020086000200840034B1B687A
:2024C000002B0CBF02200120704700BF7C100020F8B5038804465BB3B3F5847F2DD1194B04
:2024E0001B788B4201D00120F8BD174D2B686BB14FF080530026154AD3F8CC3157685B68E1
:202500000220984739462B6898472E604FF08053D3F8B83140F201409B6A984701210C4BA5
:202520000C4A9962936A9B07FCD50B48FEF756FC4FF4847323800120F8BD002323800320A4
:20254000F8BD00BF2F0800207C1000200080024000200860002008405005002070B52B4B42
:202560001B686BB12A4900230A4612F8014B002C3CD10133042BF8D125462046294670BDAE
:202580004FF08053D3F8B83104205B6B9847012837D0FFF771FF1F4A1F4B92681A4210D10C
:2025A00001221E4BC3F8F02FD3F8F02F002AFBD110464FF4807105F06BFF0122184BC3F8AB
:2025C000A82205F0FDF90646124A9368DB07FCD54FF08053D3F8CC3102205B685568984795
:2025E0000446002EC9D105F0EFF9C6E700200D4AC85402EBC30552F833406D682046294690
:2026000070BD094BDB6B9A07C5D4C2E77C100020801000200080024001000080009002409F
:2026200000005042380800200020084038B500244FF080510E4D0F4AC5F8A842D368D1F8C0
:20264000B01123F00103D3604B6931209847224620464FF4807105F01BFF0121064BC5F84A
:20266000A812224619780548BDE8384003F0CCB900005042008002402F0800206405002091
:2026800010B5074C2378802B00D010BD03F0F0F80346002123700348BDE8104003F0F0B88C
:2026A0002F0800206405002008B505F089F9003818BF012008BD00BF80F31088704700BFD1
:2026C000827A044B03EBC2035B68181AB0FA80F040097047841000202DE9F0434E4F827A57
:2026E0000121064685B007EBC20202E0C2E8441F4CB1D2E84F3F13F0FF05F7D003252846E9
:2027000005B0BDE8F083BFF35F8F4FF08059B37ADFF8088107EBC3077E60D9F8B431F078EF
:20272000DB6B9847B37A08EB03135868D9F8B8315B699847B37AD9F8B82108EB0313526B84
:202740005868904701280746F4D1D9F8B831DA69B37A08EB031398689047314B314A9F62A5
:20276000936A9B07FCD503204FF08051B37A1B0158F80320536923F00F035361B37A1B011C
:2027800058F803301862D1F8C4311F68B37A1B0158F8030033893BB1337A002B35D1737AE8
:2027A000002B0CBF03240124082322464FF08054019373681C4900930023B847B37A96F8ED
:2027C00000C0D4F8B471B27871781B01CDF800C058F803007F6C4FF0FF33B847B37A1B019D
:2027E00058F80320536843F002035360B37AD4F8C4211B01126958F8030003A9904700284D
:20280000F4D1284605B0BDE8F083737A002B14BF03240224C8E700BF84100020B8030100A2
:202820000020086000200840006CDC0270B5264D837A05EBC3025268904201D0042070BD66
:202840004FF08051214A044602EB03139868D1F8B8311B6A984701211D4B1E4A9962936AB0
:202860009B07FCD54FF08056D6F8B43160789B6B9847D6F8B4314FF4005160789B6998475E
:20288000D6F8B431A0789B6B9847D6F8B4314FF40051A0789B699847D6F8B43120789B6BF5
:2028A0009847D6F8B4314FF400519B69207898470023A27A05EBC2025360A27ABFF35F8F15
:2028C000184605F8323070BD84100020B803010000200860002008402DE9F04F9846334DFB
:2028E000837A164605EBC3056A6885B0904203D0042005B0BDE8F08F4FF080592C4D044643
:2029000005EB03135868D9F8B8310F465B6B9847012849D1A37A2749886F05EB0311C96841
:202920001B01084240D0DDE90E210A44B242B8BF3246002A019235D0D8BF0DF10C0A24DD8D
:202940004FF0000B0DF10C0A5E45D4BF002117F80B10E8580391D9F8C4315B689847A37A3F
:2029600051461B01E858D9F8C431DB6898470E9B5B45C4BF039B08F80B30019B0BF1010B33
:202980005B45A37A4FEA0313DED14FF0805601E0A37A1B01D6F8C421E85851461369984768
:2029A0000028F5D10020A4E70520A2E784100020B80301000020084038B5038804461C2BEF
:2029C00006D0212B1ED04BB100232380032038BD244B1B788B4236D0012038BD1046224B5F
:2029E000224A18602249234805F078FD224805F075FD02F03DFF1C230146204A0120117022
:202A0000238038BD1E4802F0EFFD18B921232380012038BD1B4D28680CF008FF4FF082410F
:202A2000194B1A4A00F086F90CF0CAFF03460E4A1249106809782A462B6002F0E5FF10487C
:202A400002F0C8FDE2E74FF448610D4802F0B8FD0D490E4800F056F90CF0B2FF094B1860AA
:202A6000D4E700BF4E320020A8100020D80301001C02010024020100E00301004D320020BF
:202A800094100020A41000200000A0420000A0C170B503880446222B0E4607D0282B15463B
:202AA00023D04BB100232380032070BD2E4B1B788B423DD0012070BD2C4A2D482D491370F9
:202AC00005602D4A2D4805F009FD2D4805F006FD02F0CEFE2B4B187002F0CAFE222301463B
:202AE000294A01201170238070BD284802F07CFDA0B11E4B1B784BB3254A1368053B13602E
:202B00001B4B2049224A0978186802F07DFF1F4802F060FD28232380012070BD1A4B1B7821
:202B2000B342F7D12A1E18BF0122104B1A70F1E74FF4D061154802F043FD1649002000F067
:202B4000E1F80CF03DFF124B1860E3E7104D28680CF06CFE00220F4B0F4900F0EBF80CF0CF
:202B60002FFF2860CCE700BF5132002052320020C01000201C020100D803010024020100D4
:202B800024040100503200204F320020AC100020BC1000200000C8420000F04170B5038816
:202BA0000446242B0D4607D0292B164627D04BB100232380032070BD444B1B788B4250D08A
:202BC000012070BD424A4348434913700660434A434805F083FC434805F080FC02F048FE5B
:202BE000414B187002F044FE404B187002F040FE242301463E4A01201170238070BD3D483D
:202C000002F0F2FC034600B3314D3B4E2B783068002B34D10CF00AFE0022384B384900F04C
:202C200089F80CF0CDFE3060B0F5967FA8BF01232D49A8BF2B70274B2F4A0978186802F021
:202C4000E3FE2C4802F0C6FC07E0284A1278AA4221D0274A1278AA4223D0292323800120C1
:202C600070BD4FF46071234802F0AAFC2349002000F048F80CF0A4FE1F4B1860EDE70CF004
:202C8000D5FD00224FF07E511C4B00F053F80CF097FE3060C8E7321E18BF01220C4B1A7095
:202CA000DBE70B4A16490020137000F02BF80CF087FE03460C4907480F4A097800681360C5
:202CC00002F0A2FE0B4802F085FCC6E75632002057320020D81000201C020100D80301009B
:202CE0002402010058040100553200205332002054320020C4100020D410002000007A44A8
:202D00000000964370B50E4604460DF0C3F90CF08DFD4FF040510CF01BFC214605463046CD
:202D20000CF0CEFC014628460CF012FC21460CF0C9FC70BD2DE9F84F4FF040564FF0000A3E
:202D400004468846174699460DF0A4F90CF06EFD31460CF0FDFB41460CF0FAFB51460CF0A8
:202D6000B1FC0546204629460CF0AAFC2946834620460CF0A7FC05460DF08CF90CF056FD8B
:202D800031460CF0E5FB5946044628460CF098FC014620460CF0DCFB59460CF093FC044605
:202DA000384621460CF002FE0028CDD1214648460CF0DEFD0028C7D12046BDE8F88F00BF8F
:202DC0002DE9F0411446DDE906781E4605460A4600210DF00DF9334628462246CDF81C803B
:202DE00006970249BDE8F04105F0D4BB94040100014800F049BF00BFA405002030B5002525
:202E00000B46044685B02946052202A801951D460DF0EEF820461F4901AA02F08FF804468A
:202E20000199224602A80CF0F1FF22461A4902A80DF07AF960B90124184B194A19491A484D
:202E40001C7005F04BFB194805F048FB05B030BD2246174902A80DF067F9034658B90F4CEC
:202E60000F4A10491048237005F038FB114805F035FB05B030BD0A4A0F490B4805F02EFB50
:202E80000E4805F02BFB8021284602F063F805B030BD00BFBC040100C404010058320020D0
:202EA000CC0401001C02010024020100D8040100F4040100FC040100180501001C050100E4
:202EC000F0B585B0164B02AF0C46ADF5007D15461B681449144A02AE12683046CDE9003175
:202EE000124B4FF40071FFF76BFF30460DF0EEF80246314628467A600CF088FF32212046C5
:202F000002F03CF8391D0122204602F03FF87A682946204602F0AAF80C37BD46F0BD00BF86
:202F2000E01000203C050100DC100020300501000022034B034904481A6000F085BC00BF8B
:202F4000E010002030050100A405002010B4044A044C054B116020601B6A10BC184700BF50
:202F6000E0100020DC100020A4050020014B1878704700BF58320020014800F085BE00BF35
:202F8000C805002030B500250B46044685B02946052202A801951D460DF02AF820461F4944
:202FA00001AA01F0CBFF04460199224602A80CF02DFF22461A4902A80DF0B6F860B901242F
:202FC000184B194A19491A481C7005F087FA194805F084FA05B030BD2246174902A80DF080
:202FE000A3F8034658B90F4C0F4A10491048237005F074FA114805F071FA05B030BD0A4AD2
:203000000F490B4805F06AFA0E4805F067FA8021284601F09FFF05B030BD00BFBC04010040
:20302000C404010059320020CC0401001C020100240201007C050100F404010090050100F4
:20304000180501001C050100F0B585B0164B02AF0C46ADF5007D15461B681449144A02AE8A
:2030600012683046CDE90031124B4FF40071FFF7A7FE30460DF02AF80246314628467A6031
:203080000CF0C4FE3221204601F078FF391D0122204601F07BFF7A682946204601F0E6FF7A
:2030A0000C37BD46F0BD00BFE8100020B0050100E4100020A80501000022034B03490448C6
:2030C0001A6000F0C1BB00BFE8100020A8050100C805002010B4044A044C054B11602060F5
:2030E0001B6A10BC184700BFE8100020E4100020C8050020014B1878704700BF593200204B
:20310000014800F0C1BD00BFEC05002030B500250B46044685B02946052202A801951D4615
:203120000CF066FF20461F4901AA01F007FF04460199224602A80CF069FE22461A4902A8F0
:203140000CF0F2FF60B90124184B194A19491A481C7005F0C3F9194805F0C0F905B030BDCC
:203160002246174902A80CF0DFFF034658B90F4C0F4A10491048237005F0B0F9114805F0C5
:20318000ADF905B030BD0A4A0F490B4805F0A6F90E4805F0A3F98021284601F0DBFE05B0DF
:2031A00030BD00BFBC040100C40401005A320020CC0401001C02010024020100EC05010024
:2031C000F404010004060100180501001C050100F0B585B0164B02AF0C46ADF5007D1546F3
:2031E0001B681449144A02AE12683046CDE90031124B4FF40071FFF7E3FD30460CF066FF4C
:203200000246314628467A600CF000FE3221204601F0B4FE391D0122204601F0B7FE7A68EA
:203220002946204601F022FF0C37BD46F0BD00BFF01000202C060100EC100020200601005F
:203240000022034B034904481A6000F0FDBA00BFF010002020060100EC05002010B4044A1C
:20326000044C054B116020601B6A10BC184700BFF0100020EC100020EC050020014B187825
:20328000704700BF5A3200200022014B1A7070475A3200200346806A596002F0E7BB00BF72
:2032A000F0B5858C044617461E4683B04DB36A2D22D182294BD14568002D63D0002304F1A4
:2032C000180204F114010093284601F097FED4E90431227E101E18BF0120994284F8200014
:2032E00047D0637E0133DBB26376002A3BD0032B0ED9042384F8203000230320A38403B0DF
:20330000F0BD254B45601B68056183624561058301F024FA3946308100F028FF02462060D1
:20332000F0B11E4BC36323681C64216991B921683046463101F028FA2368A3F84400206803
:2033400000F02EFF6A230120A38403B0F0BD012003B0F0BD40230022304601F06BFEE6E778
:203360000220A284CBE7032BC3D8022384F82030C2E7089B606898472369227E01332361C2
:20338000637EB2E70323284684F82030089B98470220A584B3E700BF201400209532000012
:2033A00010B5846882B01CB194F90830002B01DB02B010BD236A002BFAD01A68002AF7D01D
:2033C0000749097831B11B6A23B101909847236A01981A68002302B0BDE8104000F060BEF1
:2033E0005B3200202DE9F047064682B012480F4691469846DDF828A002F032FC70B10446C9
:20340000656845B143464A4639463046CDF800A0A847054638B92468002CF1D1002528463E
:2034200002B0BDE8F087B379012BF8D13A463146002000F02DFCF2E7F41000202DE9F04F1B
:20344000A94C05468BB02046884601F043FBA74E0346C4F8A050307008BBA279013A032ABE
:203460005FD9636823F07F4323F0FF03002B4CD06379032B00F01981208900F021FF07467E
:2034800000284AD0D0E90F9700F004FFB9F1000F00F08E8038469449C84733784BB30027A7
:2034A000C22B2AD0DFF84892384600F0F3FE3278C32A66D0BF2A85BFA02202210221327071
:2034C0002389894801F052F9D9F8004020460CF0FDFD21460246844801F0C8FD4146824844
:2034E00001F052F902464146284692B200F0FCFF337818460BB0BDE8F08F384600F0CAFE06
:20350000337818460BB0BDE8F08FC3232089337000F0D6FE07460028B4D13378002BE8D045
:20352000BEE703902946208900F020FE0746002842D0039BCDE9063308934023ADF8163030
:20354000637963BB4522022123896A4801F00EF9A27A002A40F0A48007AB009300226248E6
:203560000DF1160306A901F049FD70B9089B002B2ADA8223DFF8789133705F4BC9F8003090
:2035800092E70022032132709AE7BDF81630402B28BF4023ADF81630079B0893E7E701F0B2
:2035A000DDF8452203460121524801F0DFF8CFE73378002B9DD072E7A323DFF834913370AB
:2035C0004E4BC9F800306FE708AABDF8163007F1840B009247495A4643480393FFF702FFFD
:2035E000002844D1099009A93F4801F0E1FC8246434802F035FB814670B95BE007DD99F8D9
:203600000830DB0603D509990B5C2F2B0BD0D9F80090B9F1000F4DD0D9F804000CF056FD20
:203620008245EBD109990246D9F804000CF07CFD0028ECD10123A279511E012A03FA01F324
:2036400000F0C980990740F1A280D9F814A0BAF1000F00F09C8008AB264900935A46039B00
:203660002148D04799F80830590600F1E1803378002B7FF415AFA37D1A0753D5DFF87490FF
:2036800099F90630002B4DDB99F816301B0749D4A123DFF85C9033701A4BC9F8003003E78F
:2036A0001949144801F05EFC56E72846218900F0BDF9E1E684210F4801F04CFC84210D4810
:2036C00001F048FC3378002B7FF4EAAE094807F1460101F059F880B2A7F84400B0B9C123A0
:2036E000DFF80C903370DFE6FC1000205D3200206C060020A81100206806010088060100AB
:20370000F810002078060100071100203378002B7FF4C6AE384600F043FD337818460BB09B
:20372000BDE8F08F637DD91116D1089A002ACDD0DFF80891013218BF01224023484601F0CC
:2037400079FCB9F8A4204846402A28BF4022D9F8A81001F08BFCB5E7DDE9072393422BD0E1
:20376000013306993ED00122BDF81630DFF8CC90324801F05FFCBDF81620B9F8A43093420C
:20378000A0D9D9F8A8102D4801F070FC9AE75A0705D5D9F818A0BAF1000F7FF45CAF1807B9
:2037A00005D5D9F81CA0BAF1000F7FF454AF8521224801F0CFFB81E7DFF88090B9F8A420E3
:2037C00093421AD3822348460F221D4989F8063001F04CFC76E7D9F810A0BAF1000F7FF462
:2037E0003AAF2FE7DFF85490BDF81630B9F8A4209A4294BF00220122BAE7D21ABDF81630A3
:2038000006999A4294BF00220122484601F012FC0799B9F8A430BDF816205B1A9A4228BFC0
:203820001A46D9F8A8304846194401F01FFC49E74846024A034900F02BFA18E7A811002045
:2038400068060100FC1000200B4610B504460E486360214602F006FA94F90830002B00DB30
:2038600010BD206A0028FBD0036A002BF8D00268002AF5D005490023C0E903140830BDE837
:20388000104000F00DBC00BFF8100020A133000008B50B4B1A7802B108BD012209481A7049
:2038A00002F0DAF9084802F0D7F908490848FFF7CBFF00F013FEBDE8084000F047BF00BF2D
:2038C0005B320020F4100020F8100020980601001C060020014802F0C3B900BFF810002070
:2038E00002F064BA2DE9F0410546134802F0B8F90446E0B10026DFF844800F4F01E02468C1
:2039000094B1294604F1180000F04AFD0028F6D02146404602F07CFA2146384602F0EEF9AE
:2039200024680136002CECD13046BDE8F08106463046BDE8F08100BF5412002010060020FC
:203940002DE9F04705461A480F46164602F088F9044640B34FF00008DFF858A0DFF850903F
:20396000294604F1180000F01BFD18B194F82C30B34205D02468002CF2D14046BDE8F0872B
:203980003246394604F12D000CF00CFA0028F1D12146504602F03CFA2146484608F1010806
:2039A00002F0ACF9E6E780464046BDE8F08700BF54120020100600202DE9F04706461948C6
:2039C0000F4602F04DF9044640B34FF00008DFF858A0DFF8509004F11800251D1EB13146BB
:2039E00000F0DEFCA0B1BD4208D028460CF06EFB3946024628460CF0D5F948B92146504605
:203A000002F006FA2146484602F078F908F101082468002CDFD14046BDE8F0878046404604
:203A2000BDE8F08754120020100600202DE9F843054614480E4602F013F90446E8B100275A
:203A4000DFF84490DFF83C80294604F1180000F0A7FC10B1E38EB34205D02468002CF3D1A1
:203A60003846BDE8F8832146484602F0D1F921464046013702F042F9EFE707463846BDE85F
:203A8000F88300BF54120020100600202DE9F04F06460C46E1B0002800F0A88040680CF0C8
:203AA00015FB054605AF1322384671680CF07AFB122D40F3918000240DF12808452201219C
:203AC000404623460DF1D40AFC7400F04FFE234601222146504600F049FE3946504601F0A8
:203AE00071FA38460CF0F2FA054696F808B0CBF3001B614802F0B4F80446002869D0B9469A
:203B000002965F4608E004DD1FB163191B792F2B08D02468002C5CD0261D30460CF0D6FA24
:203B2000A842F0D131462A4648460CF0FDFA83460028EED100F012FE04F1180100F016FBB3
:203B400006460028E5D0A26B4C4B4D4901FB02324C4B4146B3EBB20F4FF0000228BF88F8AD
:203B600005B083880492E386A8F8083004AB00F184020093504640230392FFF733FC68B921
:203B8000029B002B61D004A9DDF808C00091402341465046039ADCF810C0E04798F90630A2
:203BA000002B47DA94F82C20404604F12D0101F0D9F9049A002A4CD106F14601404600F0DC
:203BC000E3FDA6F84400304600F0EAFA2468002CA2D161B0BDE8F08F002C3FF46CAF214698
:203BE000C5F1130278190CF0DDFA64E70029F0D005AF132238460DF128080CF0D3FA0DF106
:203C0000D40A33464522012140468DF8276000F0ADFD334601223146504600F0A7FD3946DC
:203C2000504601F0CFF938460CF050FA4FF0010B05465EE7A16B40464B1CA36301F0D6F9D7
:203C4000A36B23F07F43A363ACE7802388F80630A8E7013218BF012200214023404601F0D8
:203C6000E9F9B8F8A4204046402A28BF4022D8F8A81001F0FBF99FE7541200209899991959
:203C8000CDCCCCCCCCCCCC0C0021FFF7FFBE00BF2DE9F84F8B79012B01D0BDE8F88F92F9DB
:203CA00006301546002BF8DBCB7C0C465B06F4D5D1F8A070002FF0D04B6E43B1012BECD154
:203CC0003846BDE8F84F8A7A0B31FFF739BED1F860B091F80AA038465946D4F85C80FFF786
:203CE0006BFE1F4802F078F8064678B3B8F1120FC146C4BF4FF01308C14642464FF0000897
:203D000059460430B1440CF081F8394606F1180089F8048000F030FB524604F10B0186F8A1
:203D20002CA006F12D000CF071F831460D48A6F8368001F097FFB16B28464B1CB36301F08F
:203D400055F9B36B23F07F43B363A6E7A323AB712846BDE8F84F1022034901F087B900BFD5
:203D60001006002054120020AC0601002DE9F04F83B092469946DDF830800191FFF7AAFDE1
:203D8000002800F0AB80002506462C46D8F80030DFF858B1A34208D84D4510D24FF03C0366
:203DA0000AF80530D8F800300135621C934206D84D4504D24FF02F030AF805300135706847
:203DC0000CF084F90234D8F800202718974239D801D14D454AD3F0687C1CA0B1037893B19A
:203DE000D8F80030A34206D84D4504D23B230AF80530F06801350CF069F90237D8F80030DE
:203E00003C189C4237D84D4504D9D8F80030621B9A4240D83046FFF763FD064600284DD024
:203E2000D8F80030002CB5D0A34207D84D4505D22C230AF80530D8F8003001350134A342CE
:203E4000B3D8A9E77368121B09F10101002AA8BF9B18491B0AEB05005A4604F073FB054456
:203E60004D452BD2D8F800309F42B4D33E230AF805300135AFE7DF1BF36809F10101002F67
:203E8000A8BFDB19491B0AEB05005A4604F05AFB05444D45BED9019C51462A46204601F013
:203EA000E5F82821204601F069F8BEB1D8F800304B44C8F8003003B0BDE8F08F002DEAD177
:203EC000002CF2D0019C8221204601F043F80F222046074901F0CAF8002EE7D14FF0FF3331
:203EE000C8F8003003B0BDE8F08F00BFC006010068060100014801F0B9BD00BF4006002031
:203F000038B5038804463BB15C2B0DD188290FD082290DD0012038BD80211A4801F050FB21
:203F20005C232380012038BD00232380032038BD00F0E8F80546D8B900F0C6F850EA0103D3
:203F400016D0114BC9014FEAC01C41EA5061634575EB010310D3BCF57A7F71F100030ED385
:203F60004FF47A72002360460BF050FD0146D4E7064801F07BFDD3E74FF4F051CDE7012134
:203F8000CBE700BF60120020E73375004006002010B5FCF775FA0C4B1968411A03D10B4BA5
:203FA000D3E9000110BD4FF47A72A1FB0212074C1860C8092168636840EA4260401843EB56
:203FC000D211C4E9000110BD5C120020780900200021014801F054BC400600202DE9F0413C
:203FE000224B80461A7882B04AB3214801F038FE414606461E4801F081FE1D4801F030FE10
:2040000058B3D8E90475002103E0046801463CB32046D0E904349F4275EB0403F5D24246C7
:20402000134801F08DFE124801F01AFE864211D0104B9B68019302B0BDE8F04118470122A1
:204040000B481A7001F008FE0A4B1B68002BCCD09847CAE702B0BDE8F081B8F1000FE2D02B
:2040600001464246024801F06BFEDCE75C32002070120020E0060100074B10B55B680446AF
:20408000984702460B46C4E904232146BDE81040024801F033BE00BFE00601007012002004
:2040A000084970B54968054614461E468847241846EB0106C5E904462846BDE87040FFF7DC
:2040C0008DBF00BFE006010010B50C4801F0C8FD044678B10A4B5B689847D4E904239042FF
:2040E00071EB030402D30020014610BD101A63EB010110BD4EF66020214610BD7012002073
:20410000E00601002DE9F041164F7D68A847804615480E4601F0A4FD30B1D0E90423904599
:2041200076EB0303044602D20020BDE8F08101460D4801F0E3FD63680BB120469847BB6868
:204140009847094801F08CFD0028EDD0D0E90464A847B04271EB04032CBF01200020BDE89A
:20416000F08100BFE00601007012002070B5054609480E4601F030FE044658B10023314665
:204180002630A58084F8243000F0F6F82146034801F068FD204670BD50060020741200203F
:2041A0002DE9F04190F84630044613F0300FC3F301152FD190F82430042B13D8B0F8442060
:2041C00000F14601263000F08FF994F82430B3B3226A04F10800520022620023BDE8F0413B
:2041E000FFF75EBF2630D4E90F67FFF77BFB04F10800FFF741FF21461D4801F07FFD2146E4
:204200001C4801F005FE8EB3294638463346BDE8F0411847B0F8442000F14601263000F0E0
:2042200063F904F10800FFF727FF2146104801F065FD2146BDE8F0410E4801F0E9BD0E4B74
:20424000C4E903340BF026FF40F2DD510B4AA2FB0032920A01FB120202F6B832226204F1CF
:2042600008000023BDE8F041FFF71ABFBDE8F081741200205006002081420000B76FA5AE00
:20428000806830B190F82430013380F82430FFF787BF704770B110B504460830FFF7ECFE3E
:2042A0002146054801F02AFD2146BDE81040034801F0AEBD704700BF74120020500600209D
:2042C00010B50446054801F0CBFC10B904E0006810B18388A342FAD110BD00BF7412002007
:2042E000F8B5028804465AB1B2F5DA7F16D11A4B1B788B4216D04FF4DA7301202380F8BD97
:204300001146104606F0D4FB43F2163303824FF4DA73124A238010600120F0E7002323806B
:204320000320F8BD0E4B1B789B07E4D500220D490D4B088803F120010C4D0D4F0D4E415A3E
:20434000AA7429820FCB85E80F0028463A883168FFF774F8CFE700BF6F320020901200201B
:204360007332002042320020142D00207C12002044320020FC2D0020CB68D1F804C08A6844
:2043800000B5D1F800E0C0F804C0C0F800E08260C3600B8A03828B7C83745DF804FB00BF7B
:2043A00038B5102205460C460BF0FCFC58B92A8A238A9A4200D038BDA87CA37CC01AB0FA74
:2043C00080F0400938BD002038BD00BF2DE9F0470E1E814690468AB039DD0346002402E0A6
:2043E0000134A64233D01F4613F8015B5B2DF7D1A6422CDD254609EB0403AA460135AE4214
:2044000025D013F8012F5D2AF7D10622484632490BF08AFEB0FA80F0A5424FEA501088F84F
:2044200012001EDD3846414608F048FCC8B10AF1020A19F80A30CA443A2B32D098F812301C
:204440003BB343F216430120A8F810300CE00622484621490BF068FEB0FA80F0400988F88F
:204460001200272E03D900200AB0BDE8F0873246494668460BF0CAFC002306F128020DEB51
:2044800002064146684606F8283C08F017FC0028EAD043F216330120A8F810300AB0BDE8B2
:2044A000F087023E761BC9D000215246084604E00130864203EB440109D012F8013F01EBF5
:2044C0008104303BDDB2092DF2D90028B6D049BA0120A8F81010C7E7EC06010000210148BF
:2044E00001F0CEB95C06002070B582B0B8B148F2FE031446028805469A420E4603D00A4B40
:204500005B6A984758B12A8A08482B46006831460092224607F02EFE204602B070BD4FF0F9
:20452000FF34204602B070BD300B0100901200200C2846D9B0F5867F94BF6FF02F0C6FF0BC
:204540001F0C0C293BD9B1F5867F94BF0D230E2343EA0C03B0F5867F13701AD96FF4867CC7
:2045600084444FEA1C2CA0F10D0382F801C003204FF0020C9370B1F5867F16D96FF48673AD
:20458000CB181B0A13540D39624491700CF1030070470C280FD9A0F10D03B1F5867F4FF061
:2045A00002004FF0010C5370E8D80C2902D90D3911540130704701204FF0000CDBE74BB25C
:2045C000C6E703014FFA83FCBBE700BF2DE9F0411C46260C14F07F484FEA06460B4615462A
:2045E00014BF01210021CEB1013124F0FF072A46C01A0231FFF79CFFB8F1000F17D0230EFC
:204600002B54431C1EB3220C0230EA54EFB1230A421C2B54501CAC54BDE8F08134F0FF07F7
:20462000E5D14CB9BDE8F041C01AFFF781BF7EB1230C2B540130EAE7C01A0131FFF778FF81
:20464000B8F1000FDBD1002CE6D00246E2E71846002FDCD1002CDFD0F7E700BF2DE9F04704
:20466000002407461C6010460E46924698460BF02DFD3E443D18AE4227D981463C4606E0D2
:20468000013404EB09018E4205F101051DD9A74203D014F8011C2629F2D12B783D2BEFD168
:2046A00021464A4650460BF03FFD0028E8D109F101094C44361B3246262120460BF02AFB2B
:2046C00000B1061BC8F8004000E000263046BDE8F08700BF2DE9F04F1E46002483B00C9DF8
:2046E000824691462746A446B0469DF8343005F1010B03E001345C45A44623D816F80CE03B
:2047000006EB0C059E4509EB0702AAEB0100A5EB080503D0DDF830E0E645EBD129460193E2
:20472000FFF706FF0134384441462A4606EB04082F18013448440BF069FB5C455146A44650
:20474000019BDBD9384603B0BDE8F08F08B5FDF78BFE014B188008BD34320020024B18885E
:20476000013080B21880704734320020F8B504460F4616461D46AC2200210BF039FC6771FF
:20478000A6712581F8BD00BF012200232DE9F041016002710B7002680E46137801790446FF
:2047A00043EA811313700268437911781B0103F030030B4313700268837A117803F00F03FE
:2047C0000B4313700368827982B05A70038902681B0A937003680289DA708379002B00F031
:2047E0006A810268837A151D6BB16FF0030100F10B03891A13F8012B05F8012B94F80AC05E
:204800006A189445F6D8E37C9807C3F3400111D594F86A702A4639460120FFF789FE8046DB
:204820003A4604F16B0128180BF0F0FA01214744E37C3D441A0711D5D4E910782A46C1F177
:2048400003003946FFF774FE414680463A4628180BF0DCFA03214744E37C3D44DF0612D535
:2048600094F824702A46C1F104003946FFF760FE80463A4604F1250128180BF0C7FA04219D
:204880004744E37C3D44980606D5C1F1050305211B0105F8013BE37C5A0607D52A46636E23
:2048A0000620FFF793FE0621E37C0544DB0907D02A460720B4F85030FFF788FE0721054411
:2048C000237DDF070BD52F27A36C2A460093E36C08200197FFF7FEFE0821237D05441807D8
:2048E0000BD52F27E36D2A460093236E0B200197FFF7F0FE0B21237D0544DA0607D52A46B6
:20490000A38B0C20FFF762FE0C21237D05445F0607D52A46236A0E20FFF758FE0E21237D4A
:204920000544DB090CD02627D4F894302A460093D4F898300F200197FFF7CCFE0F210544FA
:20494000637D980708D52A46B4F868301120FFF73DFE1121637D0544DA060BD52627636DAD
:204960002A460093A36D14200197FFF7B3FE1421637D0544DB091CD0636F94F878201B0171
:20498000002A40F09C800020B4F87A20120900F1010C520886461FFA8CF0F8D118B10EF0D7
:2049A0000F0E43EA0E032A461720FFF70FFE17210544A37D1F071DD5D4F8803094F884208D
:2049C0001B01002A7ED10020B4F88620120900F1010C520886461FFA8CF0F8D118B10EF06C
:2049E0000F0E43EA0E032A461B20FFF7EFFD1B21A37D0544D80607D52A461C20D4F88C303C
:204A0000FFF7E4FD1C210544E37D1A0711D5D4E90C782A46C1F123003946FFF789FD4146CA
:204A200080463A4628180BF0F1F923214744E37D3D44DB0910D0D4E90E782A46C1F127000B
:204A40003946FFF775FD414680463A4628180BF0DDF9272147443D44A37EDB0612D42368CA
:204A6000EB1A3E2B19DCB4F8A420F2B92846D4F8A8100BF041FAB4F8A400AD1B284402B05A
:204A8000BDE8F0812A46D4F890303C20FFF79EFD23680544EB1A3E2BE5DD00200B4B0C4A47
:204AA00020601A6002B0BDE8F081FF2305F8013BB4F8A420DAE7042002B0BDE8F08143F089
:204AC000080360E743F008037DE700BF6C06002000070100032A40F2D0802DE9F84F054632
:204AE0000E4691460021AC220BF082FA2E6096F800B04FEA9B1B85F804B03378BBF1010FD2
:204B0000C3F301136B71327802F00F02AA727378AB7173885BBA2B8140F08480082A00F20B
:204B2000B380371D06EB090ABB189A45C0F08580394605F10B000BF069F90822002105F165
:204B400013000BF055FAAB7A1F44BA4588BF4FF0000840F2A5803C7804F0F003F02B00F0E6
:204B60007B81791C8A454FEA141304F00F0464D90D2B5DD00E2B67D00D2C61D00E2C6FD079
:204B80000F19BA4559D39844B8F13C0F55D805EBD802D07C08F007030BFA03F30343D37425
:204BA00008F1FF333B2B74D8DFE813F07C00730087008A0095009800A500B40073007300E2
:204BC000BB00C2007300D000DD007300E50073007300F40073007300FB00730073007300CC
:204BE00036011A01730073007300730073007300690073007300730069007300730073002D
:204C0000730073007300730073007300730073007300730073007300730073007300730064
:204C2000730028018020BA4BBA4A1A60BDE8F88F7B78B91C0D338A459ED88020BDE8F88F70
:204C400011F8014B0D349BE77B78BA1C92454FEA0323F2D9B878F91C00F20D100344EAE706
:204C6000084610F8014B82454FEA0424E5D94A78023102F20D12144482E780207047A44B9D
:204C8000A54AA5201A60D1E7A14BA44A80201A60CCE718F0010F40F04781BA453FF65BAF39
:204CA0000020C3E7082C224628BF082205F16B0085F86A200BF0AAF8EFE7C5E91041ECE7D0
:204CC000082C224628BF082205F1250085F824200BF09CF8E1E785F89CB0DEE74CB1621EE9
:204CE00000240A44013911F8013F914243EA0424F9D16C66D1E754B10023013C0C44013954
:204D000011F8012F8C4242EA0323F9D19CB2A5F85040C2E7AA6C002A40F0AE80C5E91241AD
:204D2000BBE7EA6D002A40F0B680C5E91741B4E754B10023013C0C44013911F8012F8C4253
:204D400042EA0323F9D19CB2AC83A6E74CB1621E00240A44013911F8013F8A4243EA04249A
:204D6000F9D12C6299E7D5F89420002A40F0B180C5E9254191E754B10023013C0C440139D4
:204D800011F8012F8C4242EA0323F9D19CB2A5F8684082E76A6D002A40F08C80C5E91541B3
:204DA0007BE7002C00F0BC800023013C0C44013911F8012F8C4242EA0323F9D1102203F007
:204DC000070123F00F048A408C4092B2C3F3C0011B0985F87810A5F87A20EC676B675CE78C
:204DE0004CB1621E00240A44013911F8013F8A4243EA0424F9D1C5F88C404EE74CB1621E1B
:204E000000240A44013911F8013F8A4243EA0424F9D1C5F8904040E7002C74D00023013C2E
:204E20000C44013911F8012F8C4242EA0323F9D1102203F0070123F00F048A408C4092B298
:204E4000C3F3C0011B0985F88410A5F88620C5F88840C5F8803020E70137BE1BA9EB0606B9
:204E6000B6B2402EC5F8A87048D83246A5F8A46000231846BB54D9E62F20EB6C9854A86C59
:204E8000EB6C0130A864224618440BF035F8AB6C2344AB6401E72F202B6E9854E86D2B6E5B
:204EA0000130E865224618440BF026F8EB6D2344EB65F2E62620AB6D9854686DAB6D013048
:204EC0006865224618440BF017F86B6D23446B65E3E62620D5F898309854D5F89400D5F86A
:204EE00098300130C5F89400224618440BF004F8D5F894302344C5F89430CEE640231A46BD
:204F0000A5F8A430B4E72346102221469BE700BF6C060020300701007007010048070100B0
:204F200023461022214654E7024B034A82201A607CE600BF6C060020980701008446B0F8B9
:204F4000A40000B9704713460A460146DCF8A800FFF784BB0346FF299ABF01209971002087
:204F6000704700BF082A10B528BF082204460B30A2720AF04BFFA07A10BD00BF03461A7D50
:204F8000012042F0100299831A757047082A10B528BF08220446253084F824200AF036FFB4
:204FA000E37C94F8240043F01003E37410BD00BF027D0346C2F3C000120702D51A6E0A609A
:204FC000D86D70470B7810B52F2B044603D111F8013F2F2BFBD0084621660BF077F8237DC8
:204FE000E06543F00803237510BD00BF0346DA7C012042F040025966DA7470478446407D8B
:20500000C01115D000B519B1DCF874E0C1F800E012B19CF87810117013B1BCF87A201A808E
:20502000019B1BB1DCF87C30019A13605DF804FB704700BF8446A3F11000B0F5FE6F02D856
:20504000B1F5801F01D300207047003A18BF01229CF81500CCF8741060F07F01ACF87A301D
:2050600001208CF815108CF878207047402A034628BF4022C3F8A8101046A3F8A4207047B8
:2050800038B5664CFBF792F8FBF7B4F900F0FCFC00F028FC0021624800F0F2FB00F042F987
:2050A000FBF7DEFA00F0D2F900F004FDFBF7BAF801F088FE01F02AFD00F018FB2368022B8C
:2050C0003BDC0822574958480AF0A0FE0021574800F0D6FB4FF0FF3006F0BEF92368054645
:2050E000022B13DCFBF7B4F8FEF7D2FB504800F0C3F8FBF7BDFA00F011FC0446E4B2FBF779
:20510000E3FA002CF7D1FBF70DF9F4E7494A4A494A4803F0E3F94A4803F0E0F92368022B4E
:20512000E0DD05B10235284600F0A0FA2368022BD8DD444803F0D2F9D4E73E4A3E493F48C5
:2051400003F0CCF9404803F0C9F92368022BB8DD384A3949394803F0C1F93C4B3C4819684F
:2051600003F0BCF92368022BABDD324A3249334803F0B4F9374B3848196803F0AFF923688C
:20518000022B9EDD2B4A2C492C4803F0A7F9334B3348196803F0A2F92368022B91DD254AD9
:2051A0002549264803F09AF94AF6CD312D4803F095F92368022B84DD1E4A1F491F4803F016
:2051C0008DF91A21284803F089F92368022B7FF778AF184A1849194803F080F9234B24486A
:2051E000198803F07BF92368022B7FF76AAF114A1149124803F072F91E4803F06FF92368A7
:20520000022B7FF75EAF074800F040FA2368022B7FF757AF0B4803F061F952E790060020A2
:2052200080060020F4150020042E002024070020740D0100B40701001C020100240201007E
:2052400070080100D00B0100BC070100300B0100E40701000C0A0100F4070100DC09010014
:20526000000801000C0801002808010036320020480801005808010010B50446006830B14D
:20528000002100F0FDFA54F8040F0028F8D110BDF0B50388054683B033B14A2B18D1882948
:2052A0001BD0012003B0F0BD1B4800F0D9FC044630B1A168201D00F083F92468002CF8D1FC
:2052C0000122164B1A704A2301202B8003B0F0BD002303202B8003B0F0BD0F48019200F0FC
:2052E000BFFC04460028EED0019A031D9A4205D02468231D002CE6D09A42F9D1084E214646
:20530000054800F0FBFCD4E90523376832600BB1E06998473760D6E7941200205E32002095
:205320002014002010B50024054B06481C7000F093FC2146BDE81040034800F0A1BA00BFD6
:205340005E3200209412002070060020F8B50E4C0E4D27782E680446C0E90623466137B9F7
:2053600081602146BDE8F840094800F07BBC094B04302B6000F024F921462E600448BDE88A
:20538000F84000F06FBC00BF5E32002020140020941200207006002070B50C4B04461B7842
:2053A0002BB92146BDE87040094800F05BBC094D094B2E6804302B6000F00CF921462E600C
:2053C0000348BDE8704000F04DBC00BF5E32002094120020201400207006002010B50A4BFB
:2053E00004461B783BB9C0E903332146BDE81040064800F083BC043000F00EF92146BDE8ED
:205400001040024800F07ABC5E3200209412002038B50C4B04461D786DB90B4800F020FCAE
:2054200038B1A04202D10BE0844209D000680028FAD1012038BD0430BDE8384000F0D4B806
:20544000002038BD5E32002094120020704700BF10B5FBF715F80B4B1A68D2E900319268C9
:205460000B44191A52B1D2E9003423441B1A9268994228BF1946002AF5D14318024A1360F7
:2054800010BD00BF9C120020981200202DE9F8430388054653B3592B2BD187292ED08229E2
:2054A0001FD14FF000092B4FDFF8AC803C68C4B1002603E0A36826469BB11C46204600F09A
:2054C000BDFB0028F6D022468821E06800F09CFA00282BD0404600F0C9FAA3682646002B49
:2054E000EBD159232B800120BDE8F883194A1360F7E700232B800320BDE8F883154F00203F
:20550000396819B9EDE789680120D9B1CB689342F9D000B139608B68002BE2D0D8689042AB
:205520000BBF9B6819468B609B68F5E7A368E0606EB1B3603B68C4F808902BB1FFF788FFA8
:205540003C68B4E73960CCE7044A1360C9E73B60F1E700BF9C1200208006002098120020DF
:2055600010B50446104800F081FA1049E3680A684BB142B194420FD0134601E09C420BD0AC
:205580009B68002BFAD10A4BA2601B680C60E360BDE81040FFF75CBF054B1B68E360BDE8C8
:2055A0001040FFF755BF00BF800600209C12002020140020014800F059BA00BF8006002059
:2055C00010B5044600F024FB2046BDE81040FFF7C7BF00BF10B5044600F022FB2046BDE8F0
:2055E0001040FFF7BDBF00BFC068B0FA80F04009704700BF024B1868003818BF0120704775
:205600009C120020024B186808B1024B186870479C1200209812002010B5124B044619682D
:20562000814214D00B462BB19A68A24206D01346002BF9D10023C4E9023310BDA2689A60B6
:2056400049B1FFF705FF0023C4E9023310BD82681A60002AF5D10022034B1A600023C4E976
:20566000023310BD9C1200209812002000B58BB002462821684607F095FB6946024802F0EF
:205680002DFF0BB05DF804FBC006010028B32DE9F041002504460126114FDFF8488065B13B
:2056A000EB070FD53846217802F018FF082E12D0013501360134002DF2D13846217802F041
:2056C0000DFFF5E7404602F009FF3846217802F005FF082EECD1BDE8F081034802F0FEBE53
:2056E000C4080100C0080100B0080100034A04499079D37903EB00230B807047F4150020F0
:20570000363200202DE9F84FDFF8C8800546D8F800400E46844257D0002C43D0234601E060
:20572000002B3FD01B689D42FAD1002B3AD02A4FAB7BD7F8009053B30023AB73002C45D047
:205740004FF0020A4FF0010BA54211D0A37BDB070ED5A36863B12A4687213C6084F80EA00B
:2057600004F10C0098470238012828D984F80EB02468002CE8D1AB683BB1B54205D000224D
:2057800083213D6005F10C009847D8F80040A5420AD02CB12368AB420CD01C46002CF9D18D
:2057A000C7F80090BDE8F88F2B68C7F80090C8F80030F7E72B682360C7F80090F2E7214619
:2057C0002046FFF79FFFD3E72346AEE7AB68002BD3D1E5E7241400202014002038B58368E5
:2057E0007BB104460220A07309480D46046004F10C0098470238012804D9832D02D0012330
:20580000A37338BD21462046BDE83840FFF77ABF201400200022F8B51249134B0C681A708A
:20582000D4B101250227114E01E02468A4B1E37B002BFAD0A36804F10C00E581002BF4D0BF
:20584000002282213460A77398470238012804D9A5732468002CEAD1F8BD21462046FFF7B3
:2058600051FFE2E7241400206232002020140020024B1878421C1A70704700BF60320020C2
:20588000F8B5164A1568854207D0044635B12B4600E01BB11B689C42FBD1F8BD002CFCD0B9
:2058A00025600126146000220D4DA3682F68A673A2815BB10A4602212C60A17304F10C004E
:2058C000812198470238B04202D9A6732F60F8BD21462046FFF716FFF8E700BF2414002015
:2058E0002014002000234FF08A0C074A10B4074813700749074A084C80F800C00B7013605A
:20590000236010BC704700BF5F320020603200206132002020140020241400202DE9F843AF
:205920002E4D2B78FBB92E4E3378C3B12D4C2E492278013B02EB4200013202F01F0222702D
:20594000DBB201EB800211F820803370D2E9017464B1B8F1810F1DD0A27BD2071CD428780F
:205960001844BDE8F883FFF755FFDCE71F4A146854B9F4E7A37BD90704D53A46414620468D
:20598000FFF72CFF24681CB32B78002BF2D0FFF741FFEFE70122A273D4F80890B9F1000F9A
:2059A000DDD00223A373124B3A4641461C6004F10C00C8470238012806D9B8F1830F03D0BF
:2059C00001223378A273CAE721462046FFF79AFE337828781844BDE8F88300BF623200209E
:2059E000613200205F320020A01200202414002020140020024A034B10781B7818447047FD
:205A0000613200206232002030B40F4C94F800C0BCF1200F15D005460C4B00201B786344D7
:205A20000CF1010C84F800C003F01F03084C03EB430304F8231004EB8303C3E9012530BC21
:205A40007047012030BC7047613200205F320020A012002038B5837B034CDB07256801D516
:205A6000FFF7BCFE256038BD2014002018B1837B013B012B00D970470123024AC3731370C0
:205A8000704700BF62320020FAF724BD10B5084C206858B1D0E90131002222609847236867
:205AA00023B1BDE810401868FAF716BD10BD00BF28140020074B82B001AA9A42019304D975
:205AC000CD2103F8011B9342FBD10021024802B0FFF7D6BE7B3200209406002038B5124CA7
:205AE000FAF7F2FD2378114DCD2B08D0AC4202D30EE0AC4212D014F8013FCD2BF9D1AC4280
:205B000002D30BE0AC4209D014F8013FCD2BF9D0FAF7DAFDAC4203D2281B38BDFAF7D4FD6C
:205B20004FF0FF3038BD00BF7B3200200050002070B5038804463BB1912B0ED11F48FFF728
:205B400053FD70B9012070BD4FF4A0611B48FFF737FD91232380012070BD0023238003201F
:205B600070BDFFF7BBFF164E164B051EA6EB030615DB002E13DBB5420DDD134B1B68002BCD
:205B800009DD124A1249134802F0A8FC32462946114802F0A3FC0948FFF71CFDD9E70A4B31
:205BA0001B68002BF7DD094A09490A4802F096FC32462946094802F091FCECE72C140020FE
:205BC000005000207B32002090060020CC080100180501002402010000090100D4080100D1
:205BE00010B541600446FAF76FFC206010BD00BF10B50446FAF768FCD4E900316FF000429A
:205C00000B44C01A90422CBF0020012010BD00BF10B541600446FAF733FC206010BD00BFF5
:205C200010B50446FAF72CFCD4E90021C2F1010303448B4284BF5218226010BD10B5044688
:205C4000FAF71EFCD4E90032C3F10103184482422CBF0020012010BD00230360704700BF7D
:205C6000006870470368D3B110B4002400E0134699420ED01A681C46002AF8D100230B60D7
:205C80000368C3B11A461B68002BFBD1116010BC70470A686CB1226000221A60EEE70023B2
:205CA0000B6003684BB11A461B68002BFBD1116070470260F0E70160E9E70160704700BFCF
:205CC00030B405684DB12B46002400E01346994207D01A681C46002AF8D10D60016030BC64
:205CE00070470A683CB1226000221A6005680D60016030BC70470260F6E700BF03688BB1ED
:205D000010B4002400E0134699421A6804D01C46002AF8D110BC70472CB1226000221A605E
:205D200010BC704770470260F8E700BF03682BB100201B680130002BFBD17047184670474B
:205D400030B479B1036843B1002500E023469A4217D01C681D46002CF8D10B6813600A6079
:205D600030BC7047056845B12B4600E023469A4210D01C681946002CF8D11560026030BC0C
:205D8000704725B11068286000201860E5E714680460F9E739B114680C6000211960056879
:205DA00015600260EBE711680160F6E700B10068704700BF10B504464288002140680AF058
:205DC00017F923886288A0680021BDE8104003FB02F20AF00DB900BF30B44588ADB100225E
:205DE000436802E00132AA420CD019460C780133002CF7D101230B700588806802FB0500FA
:205E000030BC7047002030BC70472846F8E700BF10B4448882685CB18A420DD00023B0F815
:205E200000C001E0914208D00133A3426244F9D14FF0FF3010BC704700234268D15C002979
:205E4000F6D00021D154084610BC704783688B4208D84288008800FB023081422CBF002080
:205E600001207047002070474188034649B100205B68194413F8012B02B901308B42F9D16D
:205E800070470846704700BF0023013A0160027143718371704700BF8179427990F804C036
:205EA000521A12EA0C0F034606D000684A1C02EA0C02405C9A7170474FF0FF30704700BF36
:205EC00010B5044690F84CC023460CF1010C8021064A203084F84CC0FFF738FA044B224604
:205EE000BDE8104000201978FFF78EBDC15E000063320020F8B50388044633B1B3F5867FD4
:205F000008D182290AD00120F8BD4FF4867323800120F8BD002323800320F8BDFCF7C4FB48
:205F2000BFF35F8F0022114B1E681A60BFF35F8F0F4DFCF7C1FB28680028E6D00D4F03E0EB
:205F400055F8040F0028E0D090F8453026FA03F3DB07F5D5FFF75CFA0028F1D02B683A4602
:205F600018460221FFF7F2F9EAE700BF481400203C040020915F00000146034A0348136809
:205F80000B431360FFF772BD48140020A406002070B50446FFF73CFA00B970BD04F1200639
:205FA0003046FFF735FA054694F84500FAF788FF48B994F8443063B9002DEED13046FFF73D
:205FC0000DFA0D4B11E00128F6D194F84430002BF2D1002DE1D00025234630467E21074AC1
:205FE00084F84C50FFF7B2F9054B22462846BDE870401978FFF708BD65320020C15E00004B
:20600000643200202DE9F843FFF732FC224B234D1870FFF72DFC224B224C1870FFF728FC54
:206020000023214A21496A602268AB6008704AB34FF0805801261E4FD8F8B431916C92F8AD
:2060400045009B6B41F08C0998472368494693F84500FAF7F9FE2268D8F8B43192F8450070
:2060600006FA00F2C7F8E0201B6B98472368A96893F8453054F8042F06FA03F30B43AB60A0
:20608000002AD9D10B480021FFF7FAFBBDE8F843024800F011B800BF643200203C14002005
:2060A000653200203C040020795F00006332002000200240A406002001460148FFF7D2BDFB
:2060C0004C14002038B505460748FFF7C9FD48B10446A068284002D0636803B1984724688E
:2060E000002CF6D138BD00BF4C1400200148FFF7B3BD00BF4C140020C20709D5134B5A78B4
:20610000DAB101221B78124902FA03F3C1F8A030830711D50D4BDA783AB101229B780C49D8
:2061200002FA03F3C1F8A030704701229B78084902FA03F3C1F89030704701221B78044981
:2061400002FA03F3C1F89030E2E700BF6C02010000200240C20709D5134B5A78DAB10122F6
:206160001B78124902FA03F3C1F89030830711D50D4BDA783AB101229B780C4902FA03F344
:20618000C1F89030704701229B78084902FA03F3C1F8A030704701221B78044902FA03F321
:2061A000C1F8A030E2E700BF6C0201000020024038B54FF08055084CD5F8B4312078DB6B18
:2061C0009847D5F8B431A078DB6B9847BDE838400320FFF7BFBF00BF6C02010070B504885E
:2061E0000646672C1BD0792C33D05CB300233380032070BD00251E4C1E49236809785A1C80
:2062000022601D4A2846D554FFF7FEFB1B4B2A4685211868FFF7F8FB30B300232360184C3D
:20622000134D06E00A28E5D00D28E3D02B687E2B15DD2046FFF730FE431CF3D16723338031
:20624000012070BDFFF714FB0A4B094A18701460E5E7852901D0012070BD054CDDE7064A49
:20626000591C2960D054E4E779233380012070BDD014002066320020501400202014002000
:20628000D414002008B5054905488022FFF7FCFDBDE8084000210348FFF7F2BADC14002002
:2062A000D4140020B406002010B1837A012B01D901207047FCF710BA10B1837A012B01D9DF
:2062C00001207047FCF7B2BA10B50446FCF7F8F938B10123E178044A8B40C2F8A03000206B
:2062E00010BD042010BD00BF0020024001460123C978034A8B400020C2F89030704700BFEB
:206300000020024010B584B08DF80F1018B1837A0446012B02D9012004B010BDFCF7D0F909
:2063200050B1002301222046CDE900330DF10F01FCF7D2FA04B010BD032004B010BD00BF16
:20634000B8B170B5837A0446012B82B002D9012002B070BD0D461646FCF7B2F958B10023B6
:20636000324629462046CDE90033FCF7B5FA02B070BD01207047032002B070BDB8B170B5FE
:20638000837A0446012B82B002D9012002B070BD0E461546FCF794F958B100223346204644
:2063A000114600950192FCF797FA02B070BD01207047032002B070BD10B50948FEF7ECFF2B
:2063C000084800F02BFA48B1064C037A01465B080372204600F0EAF90028F6D110BD00BFBD
:2063E000D4150020C40600200146014800F0D6BAC406002080B110B50446FAF741F82368BB
:20640000C01AB0F5963F05D2207A032894BF0020012010BD002010BD0020704770B50546F7
:20642000144689B1022907D006290CD1BDE8704001462A4800F0B2BA0146284800F0AEFA01
:206440000646002832D170BD0146244800F0A6FA0646002835D0FAF713F8337A306023443C
:20646000102BA8BF10233372FAF70AF83368E401C01AB0F5963FA4B208D2337AB188042B96
:2064800034BF19230A2329B9B48070BDB18819230029F9D003FB04F4C3F1640201FB0242A6
:2064A0000F4CA4FB02325209B28070BDF9F7E8FF337A30602344102BA8BF10230C343372BF
:2064C000D2E7334608222946044800F0D3F906460028B8D047F6FF73C380BCE7C40600206E
:2064E0001F85EB5138B50546042000F049FC29460446254800F052FA24B2034668B347F652
:20650000FF72B0F90610914232D05A2504EB8404620005FB01221D4C808884FB0241D417DD
:20652000C4EB611424B2DC8000B138BD6FF03B0294426FF05800A8BF14468442B8BF0446EE
:206540004FF470615A3424B2B1FBF4F4B4F5C07F28BF4FF4C0749C8038BD082229460A48ED
:2065600000F088F903460028DFD047F6FF72C2809A88DC80002AD8D147F6FF729442D5D11F
:206580004FF48074E7E700BFC40600201F85EB5138B5094800F042F960B10446064D2146EF
:2065A000284600F017FA2146284600F0FFF804460028F4D138BD00BFC406002010B50021F5
:2065C000054800F0D1F8BDE8104000234FF4E131024A0348FEF7BABEC4060020B96300003E
:2065E000D4150020082209F011BC00BF082208B509F0D8FBB0FA80F0400908BD38B50346D2
:206600000F4D1048002B18BF1D46FFF729FB58B104462846211DFFF7E9FF40B92046FFF715
:20662000C5FB04460028F4D14FF0FF3038BD064A064B9068201A801003FB00F038BD00BFFB
:206640004C09010028160020D4060020ABAAAAAA2DE9F0411648FFF703FB804620B300248D
:20666000144F154E154D08E0204607F0ADFF04464046FFF79BFB804698B1B368A8EB0303E2
:206680009B1005FB03F3FB5C002BF1D108F10401002CE9D140460C46FFF788FB80460028F2
:2066A000EBD12046BDE8F08104462046BDE8F081281600201C160020D4060020ABAAAAAA89
:2066C0002DE9F04705460F46214CDFF888A0DFF88890DFF8888004F1200654F8041FB9B19F
:2066E0008A68AAB1A5B1D9F80830EB1A4FEAA30C0C3308FB0CFC0BD04868CB6800FB0C30C2
:2067000030B109681AF80C300B41DB0700D59047B442E2D1C5B1104B104A9B68EB1A9B1078
:2067200002FB03F300220E490E48CA5429460AF80320FFF7E3FA0FB9BDE8F0872946BDE81A
:20674000F0470548FFF764BB4FF0FF33EAE700BFF8150020B4160020D4060020ABAAAAAAE5
:206760001C16002028160020034638B10268072A04D80C4850F82220934210D00A48026871
:20678000072A0AD810B499600649541C1A60046041F82230012010BC704700207047012065
:2067A00099607047FC150020B0160020F8B506460846174F174C184D2EB358B1F36871687F
:2067C000C01A90FBF1F1481C1BD0B86801EB410100EB8100FFF7EAFA88B1BB68C31A9B10AB
:2067E00004FB03F35A1C0AD07168F06801FB030028B1EB5C32681341DB07DDD5F8BD0020AD
:20680000F8BD0020E6E73046FFF7D0FA3046F8BDD4060020ABAAAAAAB416002010B50446D9
:206820001048FFF71DFAB8B10F4B9968411A94B111F10C0F0FD00D4B891001FB03F36068E8
:20684000E16800FB031038B109492268CB5C1341DB0701D510BD002001462046BDE810405A
:20686000FFF7A4BF28160020D4060020ABAAAAAAB41600202DE9F041002844D00D46424B71
:206880000446002908BF1D462846FFF7B7FE431C2AD06268E36802FB00332BB33B4B2268B6
:2068A0001B5C1341DF071FD500272846FFF7A6FE461C2CD06268E668002100FB0266304694
:2068C00009F096FBFEB1E3686268F31A93FBF2F35A1C06D001222D492468C85CA24002432E
:2068E000CA543046BDE8F0812846FFF787FE0130DAD12748FFF7B8FA0028D5DCFFF7A8FE9D
:2069000007460028D1D100263046BDE8F081DFF880804046FFF760FA0646B0B131461D4878
