:020000040000FA
:2000000000500020ED000000E5000000C9000000E9000000E9000000E9000000000000001A
:20002000000000000000000000000000E9000000E900000000000000E9000000E90000001C
:20004000250E0000E900000059170000E9000000E9050000090B0000E9000000E900000057
:20006000E9000000AD170000E9000000E9000000E9000000E9000000E9000000E90000005D
:20008000E9000000E9000000E9000000E9000000E9000000E9000000E9000000E900000018
:2000A000E9000000E9000000E9000000E9000000E9000000E9000000E9000000E9000000F8
:2000C000E90000001D2600004FF0E023D3F8282DB2F5806F04D0D3F8283D9B0500D4FEE79F
:2000E000704700BFFEE700BFFEE700BF08B507F083FD104A10498A420DD2104801390346D5
:20010000891A21F003010431014453F8040B8B4242F8040BF9D10A480A494FF000028842C3
:20012000B8BF40F8042BFADB04F09EFFFFF7CCFF08BD00BF00000020540700205021010029
:2001400058070020CD3B0020F0B5002706463C463D4683B0304605F0BDFF0195019B9C4271
:2001600006DD00BF019B01330193019BA342F8DB304605F0DDFF0195019BC4F5C8749C42D9
:2001800006DD00BF019B01330193019BA342F8DB0137B7F5487F06D0B7F5C87FD4BF3C467C
:2001A000C7F54874D6E703B0F0BD00BF70B54FF08054194DD4F8D831284601215B68984746
:2001C0000122D4F8D83111461B682846984707F0E5FB00F07FFE00F0FFFD00F0B5F805F03E
:2001E00073FF05F0D3FF0120FFF7AEFF01230B4ED4F8B01105F5B825F360094AAB600B69FC
:200200001020D26A984707F0CDFB00F06BF9BDE870400020FFF798BF0040034000400940B2
:200220000020094008B541F2342002F01BF900F01DFC06F015F80548082100F0EDFA05F0BD
:20024000CFFEBDE808400220FFF77EBF6C0F002008210023F0B585B00DEB0100CDE90033EC
:2002600000F0DAFABDF80E40254D64BAEE6A4AF6CD31A4B20220B04721460320B0471A2166
:200280000120B04708226B6B0DEB02010B201D4F984701206946AC6AA0473B68022B1ADC42
:2002A000022001A9A04758B93B68022B04DC0020FFF74AFF05B0F0BD0199134808F0FCF828
:2002C0003B68022BF3DD114808F0F6F80020FFF73BFF05B0F0BD0E4A0E490F4808F0ECF8AB
:2002E0000E4808F0E9F83B68022BD9DD0949084A094808F0E1F80099094808F0DDF8CFE716
:2003000040170100D4050020B01601003C1E0100601601007016010078160100881601003E
:20032000A016010000F01EBC10B54FF08054D4F8B83104205B699847D4F8B83104205B6B49
:2003400098470128F8D110BDF0B593B007F026FB0746FFF7E9FF4FF08053D3F8B8314FF4CB
:20036000A060DB6998470121164B174A9962936A9907FCD5002007F00FFA144800F020FD84
:2003800048226846124910F0A1FE6D4600244FF08056D6F8B43120469B6B9847D6F8B431AE
:2003A00020469B694FF40051984755F8044F631CEFD10FB113B0F0BD13B0BDE8F04007F0C2
:2003C000F1BA00BF002008600020084028040020C416010010B54FF08054D4F8B8310420EB
:2003E0005B699847D4F8B83104205B6B98470128F8D110BD38B5002400254FF080531A4A71
:200400000420C2E90045D3F8B8315B6B9847012801D0FFF7DFFF4FF08053D3F8B8310020BB
:20042000DB6998470121114B114A9962936A9B07FCD54FF080520F4C0F49E368204623F4C9
:20044000807323F00103E360D2F8C83104251B689847312040F221210122084B2560E063FE
:20046000A1605A6038BD00BF580700200020086000200840000001400021000400002443D1
:2004800010B507F0CBF90023044C400E40EAC112C4E90023D4E9000110BD00BF5807002085
:2004A00010B507F0BBF90023064C400E40EAC112C4E9002305F0BCF800B910BDBDE8104018
:2004C00005F08CB858070020014B9868704700BF00200940704700BF0146012000F04AB869
:2004E00007F090B92DE9F84307F058FA01254FF480724FF000094FF480334FF080561B4C0D
:20050000DFF86C802321C8F80090656062606360D6F8843107461B6848469847D6F88431F7
:20052000242128461B689847D6F88431252102201B689847236843F4E0232360C4F80890BD
:2005400007F060F90346D6F8B02103F50073E361C8F8A052C8F800501420136998470FB1A3
:20056000BDE8F883BDE8F84307F01CBA0020094000002443431E012B10B419D9042815D189
:2005800000231A4610F004001CBF124C21621BB10121114BC3F880121AB101220E4BC3F87F
:2005A000A02218B101220C4BC3F8C02210BC7047012808D10346074A916110F0020204D0B0
:2005C000044CE161DEE70023F7E7002BEED01046DEE700BF0020094000002443014B186864
:2005E000704700BF8007002010B5FFF779FF194B1860FFF755FF184BD3F8A0307BB9164BF2
:20060000D3F88020EAB9144BD3F8C02032B100204FF48031114AC3F8C002516010BD4FF432
:2006200080730E4C636007F0EDF800F2052020F4FF70094B20F00100E061D3F88020002AF9
:20064000E1D000200121054AC3F88002516005F03BFAD8E78007002000002443002009400A
:200660000122024BC3F8002C704700BF0000084010B507F093F9114BD3F8002C012A0AD0C5
:200680004FF0864201210E4C1C60C2F80411C2F8001178B110BD4FF086410A4CC3F8004C68
:2006A000074C1C60C1F80421C1F80021C3F8002C0028EFD1BDE8104007F074B90000084083
:2006C000502D190051E5CC1A0122014BDA6070470000084070B5044607F060F9214606464E
:2006E000114805F0E3FA104805F0DEFA38B101210E4B0F4AC3F8001253699B06FCD54FF0B3
:200700008055D5F8A03160681B689847D5F8A03160689B6898471128F8D106B170BDBDE869
:20072000704007F03FB900BF84070020000022430010094008B5064805F0B6FA38B1012137
:20074000044B054AC3F8001253699B06FCD508BD84070020000022430010094010B5A8B1B4
:200760004FF0805C0021134C134A6368012023F4C0536360DCF8A031C2F88011C2F80012EC
:20078000DB68984763699B06FCD410BD04460B4805F08AFA0028E3D005C814430028FBD124
:2007A000002CDDD0034A536823F4C05343F40063536010BD001009400000224384070020AB
:2007C00038B5054607F0EAF804462946054805F0B9FA0020FFF7C2FF04B138BDBDE83840BC
:2007E00007F0E0B88407002070B590B10E460024451E04E0A64206D000F04CF9013415F865
:20080000010F0028F6D100F065F90128FBD0204670BD0446F7E700BF10B40C4B0C4C1A7818
:200820000133FF2A0FD1A342F9D10A4C49B10139631801381978A34200F8011F03F1FF33DA
:20084000F8D110BC7047014CF0E700BFC8FF0100D0FF0100F012005038B54FF08055D5F8B1
:20086000B83102205B699847D5F8B83102205B6B984701280446F7D1D5F8B8314FF40070A9
:20088000DB699847034B044A9C62936A9B07FCD538BD00BF0020086000200840F0B54FF0A3
:2008A000805540F2F27683B0284CFFF7D5FFD5F8D0312046DB689847D5F8B03115205B695B
:2008C0009847A36BD5F8B42123F4FE6323F00203A3636664D36B03209847082112231C4A25
:2008E0002046C2F89010D5F8B4210093176C132303220221B847D5F8D0216023204657689D
:2009000014494FF4E132B847142240F2011340F201306263E26A104942F01002E2620A68E2
:20092000002A18BF0346236366640B685BB11520A36BD5F8B02143F05003A363136903B002
:20094000BDE8F040184703B0F0BD00BF0010004000200240006CDC02880700204FF0805387
:2009600070B5D3F8B83104465B6B02209847012807D13A4BDB6ED80703D5394A9369190768
:20098000FCD4032C45D0374B1B6803B170BD4FF08055D5F8B83102205B6B9847012856D17C
:2009A0002E4BDB6EDA0715D54FF080562C4DD6F8D0312846DB689847D6F8B03115205B6915
:2009C000984740F2F272AB6B23F4FE6323F00203AB636A644FF08053D3F8B8314FF40070A7
:2009E0001B6A9847032C23D001211F4B1B4A9962936A9B07FCD5032000F0FEF9022000F0F9
:200A0000FBF9132000F0F8F9BDE87040122000F0F3B94FF08055D5F8B83102205B6B98471A
:200A20000128BDD0D5F8B8314FF400701B6A98474FF08054D4F8B8314FF400709B6A9847D4
:200A4000D4F8B8314FF400701B6B9847CCE7D5F8B8314FF400701B6A9847C5E70020084035
:200A600000100040880700200020086010B506F095FF0446054800F0A3F90022044B1A6092
:200A800004B110BDBDE8104006F08CBFE8040020880700204FF0805310B5D3F8B83104460E
:200AA0005B6B0220984701280BD0FFF7F7FE4FF08053D3F8D0312146BDE810400348DB69B7
:200AC0001847034BDB6EDB07F1D4EEE7001000400020084008B54FF08053D3F8B831022047
:200AE0005B6B984701280AD1064BD86E10F0010004D0A3F501239869C0F3C00008BD0020CC
:200B000008BD00BF0020084070B5FFF7A5FE40F2F2720C4C236C626413F0500F0DD00A4D52
:200B20004FF0805606E0D6F8D03120461B6998472B681BB9A369DB06F5D570BDC0B2984786
:200B4000EEE700BF00100040880700204FF0E022D2F8103D23F00403C2F8103D30BFFFF7A4
:200B6000B3BD00BFF8B506F019FF04F061FF18B1BDE8F84006F016BF884805F095F802254D
:200B8000044648B1636823B19847A84228BF2846C5B22468002CF5D1FFF7A2FC804B0446B7
:200BA000D3F88032002B00F0D2807E4B9B691B1A022B00F19680A3F28F23002BACBF022016
:200BC0000120854228BF054604F032FD002840F08E80012D00F0CB80022DC9D12846611E53
:200BE000FFF7C8FC6D4805F05FF806250446002800F0AF80A3680BB102209847236924689E
:200C000025EA0305002CF5D1FFF75EFD6B0700F1A380002D40F0A38000F0BCF90020FFF7B9
:200C20009DFD4FF08052604C3920236823F003032360A36843F00F03A360D2F8B8319B69D3
:200C400098470020594B20642064C3F8200407F07FFA062D00F09D804FF080560027544C7E
:200C6000504D0321EB6AD4F82432524823F00303C4F82432D6F8D8315B689847D6F8B83147
:200C80009B6B9847EB6A07F083FB4B4AD6F8D831C2F88071474801215B6898470121D4F84D
:200CA0002432464A43F00303C4F82432D160EB6A07F0A0FBFFF73EFDFFF7F2FBFFF704FDE0
:200CC000364804F0F1FF044628B1E36803B198472468002CF9D106F065FEBDE8F84006F003
:200CE00061BE04F0A5FC00283FF442AF002504F0A7FC0646FFF7C4FB361A002E7FF738AF5C
:200D0000FFF76CFC00EB46210B1BA3F28F22002A36DA002D3FF42CAF082B2ED404F5803460
:200D2000631A31EA230128BF21460220FFF722FC4FF0E022D2F8103D23F00403C2F8103DFA
:200D400030BFFFF7C1FCBDE8F84006F02BBE022037E7FFF7B9FC06250022184BDA604FF021
:200D60008053D3F8B83128469B69984754E7022004F58031FFF7FEFBDAE704F10801D4E72B
:200D8000012DC9D0022D7FF4F3AE2846FFF7F2FB28E7022006F0A4FE5EE700BF8C07002078
:200DA0000000244300200940001009400000224300200840004003400000044300400940EA
:200DC0000146014804F072BF8C0700200146014804F0B8BF8C07002010B5064804F060FF97
:200DE000BDE810404FF08053D3F88431202103201B6818478C070020431C10D04FF0805322
:200E000010B5D3F8B43104461B684FF4C042002198470023024840EA8404236010BD704725
:200E2000001A4442034BD3F8E000C3F8E00005F037B900BF002002404FF0805370B5D3F876
:200E4000B4310C465B680546984714F00C0320F0E06222F4EC2207D0042B23D0082B24D0C5
:200E60000C2B08BF42F4403214F0030310D142F4C04223064FF08053D3F8B4312846BDE8AB
:200E800070404FF000011B6848BF42F480221847022B04D0012B08BF42F48042E9E742F4AF
:200EA0000052E6E742F40032DEE742F48032DBE7074AD2F8D030C340DB074CBFD2F88030B7
:200EC000D2F8C03023FA00F000F00100704700BF002002400022412300B585B002A8CDE9B2
:200EE0000223FFF7F7FB042006F0EAFD032805D102A8FFF765FC05B05DF804FB0321042091
:200F000006F0B2FD042006F0DBFD0328FAD11C234FF0405200210090044806F05DFD02A83D
:200F2000FFF74EFC05B05DF804FB00BF00A00C400022412300B583B06846CDE90023FFF7D2
:200F4000C9FB012006F0BCFD012803D00121032006F08AFD6846FFF733FC03B05DF804FB65
:200F60000022412300B583B06846CDE90023FFF7B1FB012006F0A4FD012805D04FF0805312
:200F8000D3F8800006F014FC6846FFF719FC03B05DF804FB10B54123002482B06846CDE95D
:200FA0000043FFF797FB0320214606F05DFD012006F086FD20B96846FFF702FC02B010BDF8
:200FC0004FF08053D3F8800006F0F2FB6846FFF7F7FB02B010BD00BF70B5038804463BB117
:200FE00040F2CB22934208D182290AD0012070BD40F2CB232380012070BD00232380032057
:2010000070BD094B094E1D69FFF75EFB05F07EFD05F04CFE8021A847002880B2E8DD05F0D0
:201020003FFEF3689847EFE740170100501B0100024BD3F89C0100F00100704700200840DA
:201040004FF0FF332DE9F0412E4C8046236023680F460B6010F0030302D1028811050DD470
:2010600006F09CFC284B0546D3F89C31DB071BD4002D36D000252846BDE8F081438006F026
:201080008DFC214B0546D3F89C31DA07F0D5B8F8003013F4405F07D003F44063B3F5006FC4
:2010A00004BF1A4BC3F80080194E4CF25032C6F800807368236003E07368013A236018D0A6
:2010C0002368DBB2002BF7D085B123683B602568EDB2A5F10105B5FA85F56D092846BDE830
:2010E000F08106F05FFC2846BDE8F08106F05AFCEBE71DB1236800253B60BCE706F052FC8C
:20110000F8E700BF900700200020084094070020001004400B4A01E0013A11D0438803F4EF
:201120004063B3F5806FF7D14388074A9BB21360428802F44062A2F58062B2FA82F252097B
:201140001046704720A107009007002070B54FF0805482B006F022FCD4F8B03105461B6A08
:2011600019209847D4F8B03112201B6A9847D4F8B03119205B699847D4F8B03112205B69E8
:201180009847D4F8B83101205B699847D4F8B83101205B6B98470128F8D1174A174BD06295
:2011A0009862936A9B07FCD54FF080540022144BD4F8B0111A615A6119200B699847D4F816
:2011C000B03112201B6998479DB140F2FF3600240C4B0D4A0D4D01A92E600D48DC611A6074
:2011E000FFF72EFFA0F10100B0FA80F0400902B070BD06F0D7FBE8E7002008400020086071
:20120000001004600010044051000706000004600100060400B587B01422002101A810F04D
:2012200047F84FF0010C40F60A0218499DF8113009686CF30303059101A86946ADF804201D
:201240008DF81130FFF7FCFE012803D0002007B05DF804FB0E4801E00138F8D0BDF806308E
:2012600003F44063B3F5806FF6D1BDF80630094A9BB21360BDF8060000F44060A0F58060B4
:20128000B0FA80F0400907B05DF804FBA407002020A107009007002000B587B01422002153
:2012A00001A810F005F84FF0010C40F609029DF8113069466CF3030301A8ADF804208DF81A
:2012C0001130FFF7BDFE012803D0C0B207B05DF804FB134A01E0013A1CD0BDF8063003F45C
:2012E0004063B3F5806FF6D1BDF806300D4A9BB21360BDF8063003F44063B3F5806F09D1F5
:20130000094B1A7852B90122059808491A7008601046DBE7002007B05DF804FB0120D5E7B9
:2013200020A1070090070020923B0020A407002030B54FF0805487B006F030FBD4F8B03179
:2013400005465B6919209847D4F8B03112205B699847334BD3F89C31DA072FD4FFF79CFF59
:20136000002001212E4A2F4BD0629962936A9B07FCD54FF08054D4F8B83101209B699847D0
:20138000D4F8B83101205B6B98470228F8D1D4F8B03119201B6A9847D4F8B03112201B6A31
:2013A0009847D4F8B03119201B699847D4F8B03112201B6998476DB307B030BD00211A4B79
:2013C000102219610124596102A80FF071FF40F60D029DF8153002A864F3030301A9ADF8F4
:2013E00008208DF81530FFF72BFEA042B6D10F4A01E0013AB2D0BDF80A3003F44063B3F54B
:20140000806FF6D1BDF80A30094A9BB21360BDF80A30A3E707B0BDE8304006F0C3BA00BF9D
:2014200000200840002008600010046020A107009007002008B506F0FBF9052803460ED0CE
:20144000032806D080B903220C4B0120C3F8D02108BD0222094B0120C3F8D02108BD074AE9
:201460000120C2F8D03108BD012801D0002008BD0521024AC2F8D01108BD00BF00200840F3
:2014800008B5FFF763FE012804D1FFF7C3FE012800D108BDFFF74CFF002008BD08B5FFF7EB
:2014A000FBFEFFF7B7FE012800D108BDFFF740FF002008BD38B5194B194A1978D2F89C21E3
:2014C0000029184C18BF0024D30700D438BD06F065FA02464FF080550021134B134898615D
:2014E0005C611446D5F8B0211961136A19209847D5F8B03112201B6A9847D5F8B0311920FD
:201500001B699847D5F8B03112201B699847002CDCD1BDE8384006F045BA00BF943B00208C
:20152000002008400000C0800010046000004080094B1B782BB100231946084A1161536112
:201540007047074A074B0849002808BF1346034A11615361704700BF943B0020001004604C
:201560000200C0800800C0800000C080044A054B1178054A002918BF00235361704700BFDE
:20158000943B00200000C08000100460014B1868704700BF9407002038B50B4604461546C8
:2015A00000211A460FF084FE0122637B258062F30303637338BD00BF014B1860704700BF64
:2015C0009807002010B5064B06495C6806480C6000234FF43441054A03F0AAFE012010BDB6
:2015E00000300440A0070020AC07002061160000164B1B6843B370B59B68984708B90020A4
:2016000070BD06F0CBF90023114A124E5468326814F1804143F10003914273F1000305462D
:2016200003D3346065B1012070BDFEF759FF0A4A0A4913680860013313603460002DF2D1DA
:2016400006F0B0F9012070BD002070479807002000300440A0070020A80700209C0700203A
:2016600010B5134B1B68B3B19B689847D8B9114C236A984701280ED1FFF7BAFF636A044656
:20168000984744B1BDE8104000234FF434410A4A0A4803F04DBE0023BDE810408021064AF9
:2016A000064803F045BEFFF7A3FF0446E9E700BF980700204017010061160000AC07002014
:2016C00070B5204E3368002B39D09B680446984708BB1D4D2B6A9847FFF78AFF6B6A9847A8
:2016E0001A4BB4F1404F1D681CD83268184BB2F90C101A68CB17891A63EBE273091945EB18
:2017000003052D0243F609520023080245EA11610FF024FB70BDFFF76BFF0C4BB4F1404FFA
:201720001D68E2D9FEF7DCFE0A4B1B68C3F17E4303F57203C34248BF05F1FF35D5E7184690
:2017400070BD00BF9807002040170100A8070020A40700209C07002010B5104BD3F89C3171
:20176000DA0704D4FFF7F2FC012800D010BD0C4C23695B0204D46FF00042094B1A6110BDB0
:201780000122084B08481A7004F08EF96FF480036FF000422361024B1A61F0E7002008406C
:2017A00000100460953B0020FC04002008B5114BD3F89C31D90704D4FFF7C8FC012800D089
:2017C00008BD06F0EBF80C4B1A6912020BD40A4B1A6912F00A0F1CBF6FF00A021A61BDE845
:2017E000084006F0DFB86FF4000204481A6104F05BF9ECE70020084000100460FC040020D1
:20180000014B1878704700BF963B002008B5FFF70FFC30B1034B5888A0F10200B0FA80F00B
:20182000400908BDD00700207D2901D90120704708B50A46014602480FF048FC002008BD85
:20184000A60A002010B588B040F60202182102A8FFF7A2FE012211499DF818300968104CE1
:20186000898823F00F03ADF81A1002A801A907948DF818308DF81620FFF7E2FB012802D01E
:20188000002008B010BD02A8FFF744FCA0F10100B0FA80F0400908B010BD00BF4C05002019
:2018A00020050020F8B50E4D00200E4E2C680E4F06E02379022B06D024682B68A34209D00C
:2018C0002379032BF5D133782BB124682B680120A342F5D1F8BD384604F0E6F80120EBE70E
:2018E000980A0020943B0020FC04002030B583B0FFF74CFE0446FFF79BFB08B903B030BD88
:201900000A4801A9FFF79CFB0128F7D1FEF7E8FD6FF03F052D1A03E0FEF7E2FDC542EDD509
:20192000638803F44063002BF6D0E7E7010001040B280BD00C2801D001207047042A08D16B
:2019400039B10A4B00201B680B607047082A00D109B902207047064A4B1E073112F80109E0
:2019600003F8010F8B42F9D100207047CC070020FF070020082200B585B000210DEB0200A6
:201980000FF096FC42F2034302A801A9ADF80830FFF756FB20B19DF90A30803303D000207D
:2019A00005B05DF804FB9DF80C0000F00C00A0F10400B0FA80F0400905B05DF804FB00BFC1
:2019C000082210B584B00DEB020000210FF070FC02229DF80C3042F2034462F301038DF810
:2019E0000C300CE0082200210DEB02000FF060FC02A801A9ADF80840FFF722FB38B19DF84D
:201A00000C0000F00303022BECD004B010BDFF2004B010BD2DE9F043DFF8CC8083B0814654
:201A20000F46D8F80060FEF75BFD304D2D1A03E0FEF756FDC5421DD53479022CF8D0032C1A
:201A400013D1D8F800100B7A062BDEB202DDB51FBD4211DD00231D4628460A680B71C8F83A
:201A600000200B7203B0BDE8F0830025284603B0BDE8F0833479E2E72A46093148460FF0F3
:201A800025FB0422D8F80010F31CCB5C184F5BB23B70331DCB5C05363144164E03F03F030B
:201AA0000DEB020033700FF011FB0198FFF708FE114B124A1B7810605BB100222846D8F8C2
:201AC000003019681A72C8F800101A7103B0BDE8F0833978042049B289B205F037F920460D
:201AE000317805F033F9E8E7A00A0020F4FEFFFF52070020933B0020943B0020CC0700204A
:201B000030B583B0FEF7ECFC194C241A06E0FFF731FF38B1FEF7E4FCC44203D5FFF788FA0D
:201B20000028F4D101A91348FFF78AFA6FF03F04FEF7D6FC104D241A06E06888022808D15C
:201B4000FEF7CEFCC44203D5FFF772FA0028F4D1688842F20243984207D042F20743C01A27
:201B6000B0FA80F0400903B030BD012003B030BD00FEFFFF01000104D007002008B5FFF7F5
:201B800057FA30B1044B5B88022B14BF0220012008BD022008BD00BFD007002030B583B024
:201BA000FFF746FA30B1134C6388022B02D1012003B030BD0F4801A9FFF742FA012802D0D5
:201BC000002003B030BDFEF78BFC6FF03F05094C2D1A03E0FEF784FCC54209D5608802283B
:201BE000F8D1A0F10200B0FA80F0400903B030BD6088F6E7D007002008B5FFF723FE0128CD
:201C000001D0002008BDFFF7C9FFC0B208BD00BF10B5FEF765FC1A4C241A06E0FFF7AAFE17
:201C200038B1FEF75DFCC44203D5FFF701FA0028F4D1FFF7FDF9134C20B16388022B01D1AB
:201C4000FFF75EFFFFF774FBFFF7A4F900220E4B62801979022908BF1A710C4B1A79022AB7
:201C600004BF00221A710A4B1A79022A04BF00221A71084B1A79022A04BF00221A7110BD21
:201C800000FEFFFFD007002068080020F4080020800900200C0A002008B5FFF7B1FD01283C
:201CA00001D0FFF7B5FF012008BD00BF10B5FFF7A7FD012808D0FFF73BF9FFF7B9F928B1F9
:201CC0001D4B5B88022B01D1012010BD4FF0010C4FF0840E19481A4B44791A496CF38304E3
:201CE00001601860A0F806E044714879164A6CF383000A60A1F806E04871507959796CF339
:201D000083006CF383011360A2F806E0A3F806E050715971FFF724F9FFF7B2FB012801D0AE
:201D2000002010BDFFF7C6FBFFF78CFD0128F7D1BDE81040FFF732BFD0070020680800202C
:201D40000C0A0020F408002080090020F8B50025354E3648FFF734F8FFF76CFB8C22294619
:201D600030460FF0A5FA8C22294631480FF0A0FA8C2229462F48304C0FF09AFA8C22294660
:201D80002E480FF095FA2E4F2E4B8022294620463E601E607D600FF08BFA42F601032A4EA1
:201DA0002360A623304642F202024FF2F001276101272377E36820F8022B1940234AA3694B
:201DC000C4E901551A4094F83730C4E9085567F3030384F837301E4BE5830B43E3601D4B9C
:201DE00004F118011343A3611B4B02226361A5630FF06CF93A4604F11A01301D0FF066F986
:201E0000FFF754FFB84202D02C462046F8BD04461248FFF7D1FBFFF7D5FB2946104803F03A
:201E20004DFD2046F8BD00BF680800200C050020F408002080090020D00700200C0A0020CB
:201E4000980A0020A00A002050080020007C008000011AB10702FF6F58080020781701002F
:201E6000FC04002070B5FFF7CBFC012835D0FFF7DFF8A8B3224E7388022B31D1FEF730FB50
:201E8000204C241A06E0FFF775FD38B1FEF728FBC44203D5FFF7CCF80028F4D1FFF7C8F80E
:201EA000D8B100257388022B26D1FFF789FDFF2822D000F00300441E18BF012475B1FFF753
:201EC0009FFC01280AD0FFF7A3FE204670BDFFF797FC012801D0FFF79BFE0124204670BD70
:201EE000FFF7E4FE01280446F1D1FFF7A1F80028E5D02546024ED5E70124002DEED0DEE71D
:201F0000D007002000FEFFFF70B588B00546FFF78FF800285AD03A4B5B88022B56D1002477
:201F2000FEF7DEFA6FF01F06361A07E0FFF722FD012854D1FEF7D4FAC64252D5FFF778F85E
:201F40000028F3D1182142F6014202A8FFF724FB00222C4BE8B28DF81700069304929DF88F
:201F60001430012062F303038DF81430FFF7E0FA02A801A9FFF764F8D0B1234DBDF80A3082
:201F80002A7803F4406333B982B3BDF80A3003F44063002BF8D0BDF80A50ADB2B5F51055EB
:201FA00018BF0125FFF7E2FA3CB9284608B070BD0125FFF7DBFA002CF7D0FFF721FC0128EA
:201FC000F3D0FFF725FE284608B070BDFFF76EFE01280446A4D00125284608B070BD0028E8
:201FE000B0D034B90225284608B070BDFEF7AEFDC4E7FFF705FC0128F4D0FFF709FEF1E7F6
:20200000D0070020A60A0020943B00207D2801D901207047FFF778BF7D2901D9012070472E
:2020200010B50C460A46014603480FF04FF82046BDE81040FFF768BFA60A002010B5FFF75E
:20204000DFFB01281AD0FEF7F3FFB8B10C4C6388022B13D1FEF7ECFF60B9FEF7E9FF68B100
:202060006388022B0AD1FFF7ABFCFF2806D0C0F3801010BDFFF77EFC0028EED0002010BD80
:20208000D00700200B2810B502D00124204610BD082A23D111B3154A01F1080313F8010DC8
:2020A0008B4202F8010BF9D1FEF7C2FF04460028ECD00F4C6388022B15D1FEF7B9FF80B168
:2020C0006388022B0DD1FFF71BFD012809D00324FFF764FD012818BF0324D7E7022420460B
:2020E00010BD0024F4E70024D0E700BFF8070020D007002030B585B0072800F2BB80DFE827
:2021000000F029323D474A7176045B4C2177FEF78FFF002838D06388022B35D1FEF788FF2F
:20212000002800F08C806388022B40F08880FFF7E7FC012818BF032400F08180FFF7AEF99D
:2021400001287ED0FFF72AFD012818BF0324204605B030BD012900F08780002974D0022408
:20216000204605B030BDA1F10B030F2BF7D8424CC9B2A37B8B4207D0A173C8E73E4C6186AF
:20218000FEF756FF0028C6D10024204605B030BD394C2186BBE731F00703E0D1364C01F0ED
:2021A0000103228B3548C1F3400543F0020302F4FE4243EA850313430278C1F380019142FD
:2021C00023830170A3D104F1180102222C480EF07DFF2C4803A9FEF733FF00280CBF0324F3
:2021E0000024B4E731F00103B9D1CCB2AFE701F115031A2BB3D86FF014030C25224A01E08F
:2022000052F83530994229DD013DF9D2FEF710FF044600289BD00422002103A80FF048F813
:202220001022194B03A803EBC505AB8802A90024ADF80E30ADF80C20FEF702FF87E7002467
:202240007CE7FFF7D5F97DE70191FFF7D9FA01289AD0FFF7DDFC01990C4678E70A4B0B4A41
:2022600003EBC5031360D1E7FFF720FD01288BD003246CE701246AE7D0070020943B002010
:202280005208002050080020881701004C050020D1B170B50C4684B0182813D8DFE800F02C
:2022A0003EB0AB684D0D16A5736D3912121235312C281224201C0DB56400002318460B607B
:2022C00004B070BD0120FBE7022070475D4B00201B681B680B60F3E70A2300200B60EFE7A0
:2022E000202300200B60EBE7032300200B60E7E7052300200B60E3E76FF0140300200B6041
:20230000DEE71A2300200B60DAE70B2300200B60D6E74D4B00201B780B60D1E7FEF788FE10
:20232000002800F08A80494B5888A0F10203B3FA83F35B0900202360C2E70023434A0B6083
:20234000137E03F001030B60127E520744BF43F002030B603E4B1B78002B44D00B6800200D
:2023600043F004030B60ABE77D2300200B60A7E7364B00201B8E0B60A2E7364B00201B78FB
:202380005BB20B609CE7FEF753FE00283FD02F4B5B88022B3BD10026082200210DEB0200C4
:2023A0000EF086FF02229DF80C3042F2034562F383038DF80C300AE0002102A80EF078FF63
:2023C00002A801A9ADF80850FEF73AFE48B39DF80C2002F00C02082AEED03EBB9DF90A300A
:2023E000236080332BD000206AE7184B002093F91C300B6064E7154B00205B8E0B605FE710
:20240000124B00209B7B0B605AE7182392E7FFF74DFC01280646BFD06FF07F0303202360FF
:202420004EE780238DF80A30002EF5D0FFF7E8F90128D3D0FFF7ECFBD0E703467AE703200E
:202440003EE700BF4C050020933B0020D0070020943B00205207002008B500F077F880B28C
:2024600008BD00BF00F004B938B54FF08055D5F8B83104205B699847D5F8B83104205B6B0D
:20248000984701280446F7D1D5F8B83140F20140DB699847034B044A9C62936A9B07FCD5CC
:2024A00038BD00BF0020086000200840034B1B68002B0CBF02200120704700BF5C0B002071
:2024C000F8B5038804465BB3B3F5847F2DD1194B1B788B4201D00120F8BD174D2B686BB145
:2024E0004FF080530026154AD3F8CC3157685B680220984739462B6898472E604FF0805369
:20250000D3F8B83140F201409B6A984701210C4B0C4A9962936A9B07FCD50B48FEF756FCDC
:202520004FF4847323800120F8BD002323800320F8BD00BF530700205C0B002000800240C8
:2025400000200860002008405005002070B52B4B1B686BB12A4900230A4612F8014B002C74
:202560003CD10133042BF8D125462046294670BD4FF08053D3F8B83104205B6B98470128FD
:2025800037D0FFF771FF1F4A1F4B92681A4210D101221E4BC3F8F02FD3F8F02F002AFBD17E
:2025A00010464FF4807105F061FF0122184BC3F8A82205F0F3F90646124A9368DB07FCD5FA
:2025C0004FF08053D3F8CC3102205B68556898470446002EC9D105F0E5F9C6E700200D4A97
:2025E000C85402EBC30552F833406D682046294670BD094BDB6B9A07C5D4C2E75C0B002072
:20260000600B002000800240010000800090024000005042600700200020084038B5002488
:202620004FF080510E4D0F4AC5F8A842D368D1F8B01123F00103D3604B69312098472246D4
:2026400020464FF4807105F011FF0121064BC5F8A812224619780548BDE8384003F0F2B9F0
:202660000000504200800240530700206405002010B5074C2378802B00D010BD03F016F906
:202680000346002123700348BDE8104003F016B9530700206405002008B505F07FF90038D6
:2026A00018BF012008BD00BF80F31088704700BF827A044B03EBC2035B68181AB0FA80F010
:2026C00040097047640B00202DE9F0434E4F827A0121064685B007EBC20202E0C2E8441F41
:2026E0004CB1D2E84F3F13F0FF05F7D00325284605B0BDE8F083BFF35F8F4FF08059B37A7F
:20270000DFF8088107EBC3077E60D9F8B431F078DB6B9847B37A08EB03135868D9F8B831CC
:202720005B699847B37AD9F8B82108EB0313526B5868904701280746F4D1D9F8B831DA698A
:20274000B37A08EB031398689047314B314A9F62936A9B07FCD503204FF08051B37A1B0188
:2027600058F80320536923F00F035361B37A1B0158F803301862D1F8C4311F68B37A1B017D
:2027800058F8030033893BB1337A002B35D1737A002B0CBF03240124082322464FF080548B
:2027A000019373681C4900930023B847B37A96F800C0D4F8B471B27871781B01CDF800C070
:2027C00058F803007F6C4FF0FF33B847B37A1B0158F80320536843F002035360B37AD4F8F0
:2027E000C4211B01126958F8030003A990470028F4D1284605B0BDE8F083737A002B14BF74
:2028000003240224C8E700BF640B00200C1801000020086000200840006CDC0270B5264D77
:20282000837A05EBC3025268904201D0042070BD4FF08051214A044602EB03139868D1F8A7
:20284000B8311B6A984701211D4B1E4A9962936A9B07FCD54FF08056D6F8B43160789B6B28
:202860009847D6F8B4314FF4005160789B699847D6F8B431A0789B6B9847D6F8B4314FF4D1
:202880000051A0789B699847D6F8B43120789B6B9847D6F8B4314FF400519B6920789847FA
:2028A0000023A27A05EBC2025360A27ABFF35F8F184605F8323070BD640B00200C18010018
:2028C00000200860002008402DE9F04F9846334D837A164605EBC3056A6885B0904203D098
:2028E000042005B0BDE8F08F4FF080592C4D044605EB03135868D9F8B8310F465B6B984786
:20290000012849D1A37A2749886F05EB0311C9681B01084240D0DDE90E210A44B242B8BF97
:202920003246002A019235D0D8BF0DF10C0A24DD4FF0000B0DF10C0A5E45D4BF002117F8ED
:202940000B10E8580391D9F8C4315B689847A37A51461B01E858D9F8C431DB6898470E9B7F
:202960005B45C4BF039B08F80B30019B0BF1010B5B45A37A4FEA0313DED14FF0805601E006
:20298000A37A1B01D6F8C421E8585146136998470028F5D10020A4E70520A2E7640B002043
:2029A0000C1801000020084038B5038804461C2B06D0212B1ED04BB100232380032038BD97
:2029C000244B1B788B4236D0012038BD1046224B224A18602249234805F06EFD224805F0D0
:2029E0006BFD02F063FF1C230146204A01201170238038BD1E4802F015FE18B921232380CE
:202A0000012038BD1B4D28680EF0B8F84FF08241194B1A4A00F086F90EF07AF903460E4AAF
:202A20001249106809782A462B6003F00BF8104802F0E4FDE2E74FF448610D4802F0D4FD59
:202A40000D490E4800F056F90EF062F9094B1860D4E700BF983B0020880B00202C18010001
:202A6000701601007816010034180100973B0020740B0020840B00200000A0420000A0C170
:202A800070B503880446222B0E4607D0282B154623D04BB100232380032070BD2E4B1B7805
:202AA0008B423DD0012070BD2C4A2D482D49137005602D4A2D4805F0FFFC2D4805F0FCFC67
:202AC00002F0F4FE2B4B187002F0F0FE22230146294A01201170238070BD284802F0A2FDC2
:202AE000A0B11E4B1B784BB3254A1368053B13601B4B2049224A0978186802F0A3FF1F48B7
:202B000002F07CFD28232380012070BD1A4B1B78B342F7D12A1E18BF0122104B1A70F1E75A
:202B20004FF4D061154802F05FFD1649002000F0E1F80EF0EDF8124B1860E3E7104D2868BF
:202B40000EF01CF800220F4B0F4900F0EBF80EF0DFF82860CCE700BF9B3B00209C3B002000
:202B6000A00B0020701601002C18010078160100781801009A3B0020993B00208C0B0020FE
:202B80009C0B00200000C8420000F04170B503880446242B0D4607D0292B164627D04BB11D
:202BA00000232380032070BD444B1B788B4250D0012070BD424A4348434913700660434A89
:202BC000434805F079FC434805F076FC02F06EFE414B187002F06AFE404B187002F066FED9
:202BE000242301463E4A01201170238070BD3D4802F018FD034600B3314D3B4E2B78306883
:202C0000002B34D10DF0BAFF0022384B384900F089F80EF07DF83060B0F5967FA8BF0123EF
:202C20002D49A8BF2B70274B2F4A0978186802F009FF2C4802F0E2FC07E0284A1278AA4223
:202C400021D0274A1278AA4223D029232380012070BD4FF46071234802F0C6FC23490020AD
:202C600000F048F80EF054F81F4B1860EDE70DF085FF00224FF07E511C4B00F053F80EF0D3
:202C800047F83060C8E7321E18BF01220C4B1A70DBE70B4A16490020137000F02BF80EF061
:202CA00037F803460C4907480F4A09780068136002F0C8FE0B4802F0A1FCC6E7A03B002001
:202CC000A13B0020B80B0020701601002C18010078160100AC1801009F3B00209D3B002003
:202CE0009E3B0020A40B0020B40B002000007A440000964370B50E4604460EF02BFB0DF0B2
:202D00003DFF4FF040510DF0CBFD2146054630460DF07EFE014628460DF0C2FD21460DF06C
:202D200079FE70BD2DE9F84F4FF040564FF0000A04468846174699460EF00CFB0DF01EFF01
:202D400031460DF0ADFD41460DF0AAFD51460DF061FE0546204629460DF05AFE294683468A
:202D600020460DF057FE05460EF0F4FA0DF006FF31460DF095FD5946044628460DF048FEC2
:202D8000014620460DF08CFD59460DF043FE0446384621460DF0B2FF0028CDD1214648468B
:202DA0000DF08EFF0028C7D12046BDE8F88F00BF2DE9F0411446DDE906781E4605460A4694
:202DC00000210EF075FA334628462246CDF81C8006970249BDE8F04105F0BCBBE81801008A
:202DE000026F00F174018A42034608D04FF0000C521A00F2347083F874C208F037B8012207
:202E000080F87422704700BF90F83830024623B90B4B0C48197802F015BE022310B500F23E
:202E2000347482F86030204608F03EF8204608F049F82046BDE81040342200210EF038BAEB
:202E4000A83B0020A405002008B502F02FFD1B4A1B4B1070187002F029FD1A4B187002F001
:202E600025FD194B187002F021FD184B187002F01DFD174B187002F019FD164B187002F070
:202E800015FD154B187002F011FD144B187002F00DFD134A134B1070187002F007FD124B3F
:202EA000187002F003FD114802F0FAFE0021104802F004FD01220F4B1A7008BDA63B00201C
:202EC000AD3B0020A53B0020A73B0020AA3B0020AB3B0020A93B0020A83B0020AE3B0020CD
:202EE000A33B0020AC3B0020A43B0020C00B0020A4050020A23B002070B501230025062683
:202F000084B00446294680F86060A0F86830A0F89C5280F838504FF4087200F595600EF031
:202F2000C7F94FF400730E490E4A039104F2347604F1740184F8745230460292009104F2FB
:202F4000A6222146019307F02DFF3046B4F8302704F5E46104B0BDE8704007F061BF00BFF5
:202F600019300000014A000070B50446D0F8A052006F16462944551B04F51D72121A954261
:202F800028BF1546ADB22A460EF0A0F8D4F8A002226F28442A448642C4F8A002226704D12D
:202FA0000023C4F8A032184670BD04F174018A420BD00023521A04F2347084F8743207F082
:202FC00055FFD4F8A002301A70BD012384F87432F9E700BF08B5026F034600F51D70824216
:202FE00005D011701A6F002001321A6708BD03F174018A420AD04FF0000C521A03F23470FA
:2030000083F874C207F032FF012008BD012283F87422104608BD00BFF0B5032A83B00C468C
:203020008DF807200ED8F2B9072501232B49224609782B4884F8605084F8743202F002FDF4
:2030400003B0F0BD042AFBD1B1F856372BB9012301F174020A6781F8743204F1180002F0E1
:20306000AFF903B0F0BD042700261E4B0A461C48197802F0E7FC04F1180084F8607002F029
:20308000C1F901212046636E0DF107029847164B32461978E06E02F0D5FC04F174032367C6
:2030A0002422314604F2347584F86A6004F51E700EF0FEF8284607F0F7FE284607F002FF33
:2030C0003422314628460EF0F3F8637D84F86070012BB5D12046FFF70FFFB1E7A53B0020EC
:2030E000A4050020A33B0020AE3B002040F2966C2DE9F04F038883B06345054614468DF8E7
:20310000071000F0BC816BD840F276618B4200F03D8240F2BF8040F284618B4240F0A981F4
:20312000A64B9DF807101B788B4200F09383A44B1B788B4240F27683A24B1B788B4240F095
:20314000D282A14ED6F800A09AF8603040F28E27DFF87092DFF87482032B01F0A082BAF81C
:203160009C32BB4201F02E8100F263814BB140F28D22934241F0DF809AF87432002B00F079
:203180006981DAF870300AF51D729A4201F0E982E0211970DAF870300133CAF870309A429F
:2031A00001F0018100201870DAF870200AF1740101328A42CAF8702001F0FD828AF8740269
:2031C000521A0AF2347007F051FE4FF480710AF1040002F03BFD40F29D23AAF89C322DE1D0
:2031E000B3F5D66F00F03C8240F2BD618B4240F09380724B9DF807101B788B4200F05D833B
:203200006F4B1B788B4240F201836E4B1B788B4240F073826C4E346894F860304FF00008E7
:20322000684F092B40F0FE80B4F89C32002B01F04A81A3F26B339AB2252A00F2F080252B14
:2032400000F2ED80DFE813F09204AF04EB00EB00070529053505EB00EB005E05F204EB0098
:20326000EB00EB00EB00EB00EB00EB00EB003A05EB00EB00EB00EB00EB00EB00EB00EB004A
:20328000EB00EB00EB00EB00EB00EB00EB00EB00EB00D200002B00F0C58040F25F629342F1
:2032A00040F0E780454B9DF807101B788B4200F0E082474B1B788B4201F0EC80454B1B7817
:2032C0008B4201F03B80444E33788B4201F0B080424B1B788B4201F08080414B1B788B4280
:2032E00001F04F803F4B1B788B4201F038803E4B1B788B4240F0968094F87432324E012B6E
:20330000346040F08F8094F86030092B40F08A800022A4F89C2281E740F2A3618B4240F039
:20332000A880264B9DF807101B788B4200F0D482234B1B788B4240F28182224B1B788B42D2
:2033400040F0F181204ED6F8009099F86030DFF874801E4F092B41F00082B9F89C32002B15
:2033600001F05381A3F531739AB21F2A00F2FE811F2B00F2FB81DFE813F0DC04FE04F901E8
:20338000F901F9016A058E05F901F901F901F901F901F901F901A805C2054205F901F901B2
:2033A000F901F901F9015405F901F901F901F901F901F901F901F901E00100BFA33B002058
:2033C000AD3B0020A43B0020BC0B0020500D0020A63B0020A53B0020A73B0020A83B00207C
:2033E000AA3B0020AB3B0020A93B002004F1040994F89932012B05D0484602F043FC00287D
:2034000000F02D84484602F03DFC4FF40872002104F595600DF04CFF002384F86A300023E2
:20342000A4F89C3240F25F6301202B8003B0BDE8F08F40F29D22934240F07D879AF8743259
:20344000002B40F058820AF1040002F01BFC002840F05182002299F80010D8F8000002F07F
:20346000F1FA002800F03F81D6F800A09AF8603072E6002303202B8003B0BDE8F08FA14BED
:203480009DF807101B788B4200F0F4879E4B1B788B4240F2AF819D4B1B788B4240F02881E9
:2034A0009B4E376897F8603040F2B138DFF85CA2DFF86092092B41F0F580B7F89C324345CD
:2034C00000F0AC8747D82BB1B3F56C7F58D197F8743293B33B6F07F51D729A4201F05381C1
:2034E000C02119703B6F01333B67934200F08787002018703A6F07F1740101328A423A67B1
:2035000001F05E8187F87402521A07F2347007F0ADFC01234FF4087287F83830002107F558
:2035200095600DF0C5FE4FF4A061381D02F08EFB4FF46F73A7F89C3210E000229AF800107C
:20354000D9F8000002F07EFA002800F0D180376897F86030AEE7B3F56F7F11D197F8B03489
:2035600023B9381D02F08EFB0028E6D04FF40872002107F595600DF09BFE002387F8383052
:2035800000239DF80710A7F89C32A6E65D4B9DF807101B788B4200F086875B4B1B788B42AC
:2035A00040F21C81594B1B788B4240F0C180584E3768B7F89C324FF00008DFF85C91002BCF
:2035C00001F07480A3F22B239AB2422A00F2F380422B00F2F080DFE813F0AB04C904EE0003
:2035E000EE0054067F06F8040D05250534054205EE00EE00EE00EE00EE00EE00EE0051056E
:203600005A058A06EE00EE00EE00EE00EE00EE00EE00EE00EC05F5050D06EE001D06260610
:203620003F06EE00EE00EE00EE00EE00EE00EE00EE00B905C205DC05EE00EE00EE00EE00B7
:2036400085058E05A905EE00EE00EE00EE00EE00EE00EE00EE00EE00EE00EE00EE009006E1
:20366000284B9DF807101B788B4200F0F386264B1B788B4240F2A680244B1B788B424DD14C
:20368000234ED6F8009099F86030DFF88080214F092B41F05E80B9F89C32002B00F06D8722
:2036A0006FF4457213449AB2182A7ED8182B7CD8DFE813F0630184017B007B007B00E10118
:2036C00004027B007B007B007B007B007B0029024302CB017B007B007B007B007B007B00E4
:2036E0007B007B00620040F2846301202B809DE640F2966301202B8098E640F2BD63012022
:203700002B8093E6A33B0020AD3B0020A43B0020BC0B0020500D0020101901004FF4D66376
:2037200001202B8082E640F2A36301202B807DE640F2766301202B8078E609F1040A99F820
:203740009932012B05D0504602F09CFA002800F08283504602F096FA4FF40872002109F56E
:2037600095600DF0A5FD002389F86A3000239DF80710A9F89C32B5E509F1040A99F899323B
:20378000012B05D0504602F07DFA002800F07781504602F077FA4FF40872002109F595604F
:2037A0000DF086FD002389F86A3000239DF80710A9F89C329BE5C64E00239DF80710A7F80B
:2037C0009C3281E5C34B1B788B42FFF455AFC24B186802F037F99DF807104DE7BD4B1B7826
:2037E0008B42FFF4DFAEBC4B186802F02BF99DF80710D7E6B74B1B788B42FFF44CAEB64B26
:20380000186802F01FF99DF8071044E6B14B1B788B42FFF4FAACB04B186802F013F99DF845
:203820000710F2E4AB4B1B788B42FFF485ACAA4B186802F007F99DF807107DE4A54B1B782A
:203840008B42FFF47AADA44B186802F0FBF89DF8071072E50320A14B1B6883F8600000209D
:20386000A3F89C029C4B186802F0ECF89DF8071062E403230027994A84F86030146004F13B
:203880007402394604F23476226704F51E70242284F86A700DF00CFD304607F005FB3046FE
:2038A00007F010FB3946342230460DF001FD04239DF8071084F86030FBE400200324874BE9
:2038C0001B68A3F89C0283F86040834B186802F0B9F89DF8071098E40320804B1B6883F80C
:2038E00060000020A3F89C027B4B186802F0AAF89DF8071021E537680023AAF89C324FF012
:20390000000807F174033B672422414607F2347907F51E7087F86A800DF0CAFC484607F0E0
:20392000C3FA484607F0CEFA3422414648460DF0BFFC0423366887F8603001213046736E0D
:203940000DF107029847664B42461978F06E02F079F89DF80710BBE409F174018A4200F080
:203960004E870023521A89F8743209F2347007F07DFA40F21533A9F89C3299F87432002B64
:203980007DD0D9F8702009F51D739A4299F87812E2D000231170C9F8A032D9F87030013366
:2039A000C9F87030484699F8842209F52071FFF7DBFA40B140F21633A9F89C3299F8743275
:2039C000002BEFD15BE0D9F87010B9F8862209F51D738B424FEA12223CD00A70D9F8702068
:2039E0000132C9F87020934299F8861255D01170D9F870200132C9F87020B9F88C129A428F
:203A00004FEA11216ED01170D9F870200132C9F870209A4299F88C127ED000231170C9F8D9
:203A2000A032D9F870300133C9F870304846B9F88C22D9F88812FFF797FA8346002800F0EE
:203A40003B874FF44973A9F89C3299F87432002BECD114E009F174018B4200F00B875A1AF1
:203A6000002309F2347089F8743207F0FFF940F21A33A9F89C3299F87432002BA3D1002288
:203A800098F80010386801F0DDFF00283FF446AED6F8009099F86030FAE509F17401994222
:203AA00000F0F2865A1A002309F2347089F8743207F0DCF940F21B33A9F89C3299F874324F
:203AC000002BDCD0D9F8702009F51D738BE700BFA73B0020AC3B0020500D0020BC0B002082
:203AE000AE3B002009F17401914200F008870023521A89F8743209F2347007F0B7F940F2CE
:203B00002233A9F89C3299F87432002BB7D0D9F8702009F51D7370E709F174018A4200F087
:203B2000F3860023521A89F8743209F2347007F09DF940F22333A9F89C3299F87432002BD1
:203B40009DD0D9F8702009F51D7362E704F174018A4200F0598684F87482521A04F2347043
:203B600007F084F940F26B33A4F89C3294F87432002B74D094F87832226F04F51D718A42DC
:203B8000E4D01370236FC4F8A08201332367204694F8842204F52071FFF7E6F940B14FF495
:203BA0005B73A4F89C3294F87432002BEFD156E0216FB4F88C3204F51D728A424FEA1323BD
:203BC00039D00B70236F013323679A4294F88C1253D01970236FC4F8A082013323672046CB
:203BE000B4F88C22D4F88812FFF7BEF900285CD194F89832002B00F00C86226FB4F886320B
:203C000004F51D718A424FEA13236BD01370236F01332367204694F88612FFF7DBF9002858
:203C200000F0F78540F27533A4F89C3294F87432002BEFD113E004F174018A4200F0158603
:203C400084F87482521A04F2347007F00FF940F26F33A4F89C3294F87432002BA8D1C64BC8
:203C600000221868397801F0EDFE00283FF445AD346894F86030FFF7D4BA04F1740191424F
:203C800000F0808684F87482521A04F2347007F0EDF84FF45C73A4F89C3294F87432002B01
:203CA000DDD0236F04F51D728FE740F27133A4F89C3294F87432002B91D1D0E794F87432DF
:203CC000002BCCD02046B4F89422D4F89012FFF74BF98246002800F0A58540F27E33A4F824
:203CE0009C32EBE704F174018A4200F02F8684F87482521A04F2347007F0B8F84FF45D7317
:203D0000A4F89C3294F87432002B7FF476AFA6E709F174018A4200F080850023521A89F877
:203D2000743209F2347007F0A1F84FF43173A9F89C3299F87432002B00F08D80D9F8702098
:203D400009F51D739A4299F87812E1D000231170C9F8A032D9F870300133C9F87030484662
:203D600099F8842209F52071FFF7FEF840B140F2C523A9F89C3299F87432002BEFD16AE0AB
:203D8000B9F88632D9F870101A0A09F51D738B424CD00A70D9F870200132C9F8702093429A
:203DA00099F8861266D01170D9F870200132C9F87020B9F88C129A424FEA112174D01170E3
:203DC000D9F870200132C9F870209A4299F88C1200F0848000231170C9F8A032D9F8703057
:203DE0000133C9F870304846B9F88C22D9F88812FFF7BAF840B14FF43573A9F89C3299F852
:203E00007432002BEFD126E0484699F89812FFF7E1F88346002800F09E8540F2DA23A9F89F
:203E20009C3299F87432002BEED114E009F174018B4200F024855A1A002309F2347089F813
:203E4000743207F013F840F2C923A9F89C3299F87432002B94D1002298F80010386801F013
:203E6000F1FD00283FF45FACD6F8009099F86030FFF770BA09F17401994200F034855A1AE8
:203E8000002309F2347089F8743206F0EFFF40F2CA23A9F89C3299F87432002BDBD0D9F8E9
:203EA000702009F51D737AE709F174018A4200F0F5840023521A89F8743209F2347006F094
:203EC000D5FF40F2D223A9F89C3299F87432002BC1D0D9F8702009F51D736AE709F17401D6
:203EE0008A4200F0D6840023521A89F8743209F2347006F0BBFF40F2D323A9F89C3299F87F
:203F00007432002BA7D0D9F8702009F51D735CE707F174018A4200F0A38487F87482521AF6
:203F200007F2347006F0A2FF40F22B23A7F89C3297F87432002B00F0A9813A6F07F51D73B1
:203F40009A4297F87812E3D011703B6FC7F8A08201333B67384697F8842207F52071FFF7A1
:203F600003F858B14FF40B73A7F89C3297F87432002BEFD18AE100BF500D00203A6F07F5A3
:203F80001D7A524500F06D8182F800803B6F01333B6748460DF036FB3A6FC3B2524500F03A
:203FA0008A8113703B6FC7F8A08201333B6748460DF028FB02464946384692B2FEF7D4FF03
:203FC000E8B140F23123A7F89C3297F87432002BEDD15BE107F174018A4200F0648487F86B
:203FE0007482521A07F2347006F040FF40F23223A7F89C3297F87432002B00F047813A6FD8
:2040000007F51D739A42E5D0032313703B6F01333B673846397DFEF7DDFF40B140F23323DC
:20402000A7F89C3297F87432002BF2D12EE1F98A3846090AFEF7CEFF40B14FF40D73A7F8B8
:204040009C3297F87432002BF1D11FE13846B97DFEF7C0FF40B140F23523A7F89C3297F891
:204060007432002BF2D111E1398A3846090AFEF7B1FF88B140F23D23A7F89C3297F8743254
:20408000002BF1D102E140F23E23A7F89C3297F87432002B00F0FA803846397CFEF79AFFC5
:2040A0000028F0D1C7F8A00238463A8AF968FEF75BFF002840F017813B7D58076ED497F9EB
:2040C0001430002B37DB3B7D590640F12284B7F85C103846090AFEF77DFF88B140F25E2368
:2040E000A7F89C3297F87432002BF0D1CEE040F25F23A7F89C3297F87432002B00F0C680CD
:20410000384697F85C10FEF765FF0028EFD1C7F8A0023846B7F85C20B96DFEF725FF002874
:2041200000F0F7834FF41873A7F89C3297F87432002BEED1AAE0B7F854103846090AFEF798
:2041400049FF88B140F25723A7F89C3297F87432002BF0D19AE04FF41673A7F89C3297F862
:204160007432002B00F09280384697F85410FEF731FF0028EFD1C7F8A0023846B7F85420EC
:20418000396DFEF7F1FE00289DD040F25923A7F89C3297F87432002BEFD177E0B7F840106F
:2041A0003846090AFEF716FF80B14FF41273A7F89C3297F87432002BF0D167E040F24923F8
:2041C000A7F89C3297F87432002B5FD0384697F84010FEF7FFFE0028F0D1C7F8A0023846CC
:2041E000B7F84020F96BFEF7BFFE40B140F24A23A7F89C3297F87432002BF0D146E0B7F8A7
:2042000048103846090AFEF7E5FE78B14FF41373A7F89C3297F87432002BF0D136E040F215
:204220004D23A7F89C3297F874327BB3384697F84810FEF7CFFE0028F1D1C7F8A00238464E
:20424000B7F84820796CFEF78FFE00283FF437AF40F24E23A7F89C3297F87432002BEED170
:2042600014E007F174018A4200F06C8387F87482521A07F2347006F0F9FD40F22F23A7F8A5
:204280009C3297F87432002B7FF478AE336893F86030032B00F08B82D14B00221978D14B8B
:2042A000186801F0CFFB00283FF442AA3768B7F89C32FFF784B907F174018A4500F0F88287
:2042C00087F87482AAEB010207F2347006F0CEFD4FF40C73A7F89C3297F87432002BD5D03F
:2042E00007F51D7A55E640F23F23A7F89C3297F87432002B7FF4D8AEC8E707F1040A97F852
:204300009932012B04D0504601F0BCFC0028BDD0504601F0B7FC20B197F86030092B00F090
:204320006082B14E4FF40872002107F595600CF0BFFFFFF741BA5746FFF7DEBAB4F8A43275
:20434000AA4EA4F85C3794F874323460012B7EF4BAAF00232746A4F89C32FFF72CB994F808
:204360007432A24E012B34607EF4C1AF94F86030092B7EF4BCAF0022A146A4F89C22FFF77F
:2043800084B994F87432994E012B34607EF4AAAF94F86030092B7EF4A5AF0022A146A4F881
:2043A0009C22FEF7D4BF0AF17401914200F015820023521A8AF874320AF2347006F056FD4D
:2043C000AAF89C729AF87432002B3FF443A8DAF870300AF51D72FEF7E2BE94F87432834E14
:2043E000012B34607EF479AF94F86030092B7EF474AF00222746A4F89C22FFF755B807F19A
:204400007401994200F0F7815A1A002307F2347087F8743206F02AFDA7F89C8297F874327C
:20442000002B3FF48AA83B6F07F51D72FFF75DB894F860306D4E0A2B34607EF449AF94F816
:204440007422012A40F01F810022A246A4F89C22FEF77CBE0320654B1B6883F860000020E7
:20446000A3F89C025F4B186801F0ECFA9DF80710FFF702B903205D4B1B6883F8600000205C
:20448000A3F89C02574B186801F0DCFA9DF80710FFF701B8554B20461C60FEF72DFD9DF869
:2044A0000710FEF70BBF0320504B1B6883F860000020A3F89C024B4B186801F0C3FA9DF858
:2044C0000710FFF76FB894F8981294F89A224B0043F03003DBB2012A84F8783208BF43F0A1
:2044E0000103B4F88C2208BF84F87832D4F894321A44002940F0CF800232C4F87C22002328
:2045000084F8848204F5207E02F07F007F2A60F07F0C4FEAD21216D80EF8030094F8843237
:204520000133DBB2042B84F8843216D894F89832002B7FF41FAB94F8783203F0F70384F80E
:204540007832FFF719BB0EF803C094F884320133DBB2042B84F88432D6D9002281212046E1
:20456000636E9847224B00221978E06E01F06AFA0023A4F89C32FEF755BFA222B9F88C121F
:2045800089F88432043189F87822C9F87C1209F5207C01F07F007F2960F07F0E4FEAD1119B
:2045A00028D80CF8030099F884320133DBB2042B89F884327FF6E5A9002281214846D9F860
:2045C000643098470A4B00221978D9F86C0001F039FA00239DF80710A9F89C32FEF787BE87
:2045E000A43B0020500D0020A73B0020BC0B0020AE3B00200CF803E099F884320133DBB25E
:20460000042B89F88432C4D9D6E78222B9F88C1289F88432053189F87822C9F87C1209F512
:20462000207C01F07F007F2960F07F0E4FEAD1111ED80CF8030099F884320133DBB2042B9A
:2046400089F884327FF67AAB002281214846D9F864309847CE4B00221978D9F86C0001F0F9
:20466000F1F900239DF80710A9F89C32FEF73ABE0CF803E099F884320133DBB2042B89F886
:204680008432CED9E0E72246C24801F0DBF99DF80710FEF71DBE0432C4F87C222FE7574600
:2046A000FFF72DB99DF80710FEF717BE10233A8A87F87832002A78D00E32B7F854300BB1E7
:2046C00002331A44B7F85C300BB102331A44B7F840300BB102331A44B7F848300BB1023337
:2046E0001A440023C7F87C2287F8848207F5207C02F07F007F2A60F07F0E4FEAD2121DD8B6
:204700000CF8030097F884320133DBB2042B87F884327FF612AC0022812138467B6E9847EB
:204720009B4B00221978F86E01F08CF900239DF80710994EA7F89C32FEF7C6BD0CF803E082
:2047400097F884320133DBB2042B87F88432CFD9E1E79DF80710FEF7CABD9DF80710FEF7B6
:20476000C1BD0AF174018A4233D00023521A8AF874320AF2347006F079FB40F28D23AAF837
:204780009C32FEF7F9BC07F174018A421DD00023521A87F8743207F2347006F067FB4FF48F
:2047A0006C73A7F89C32FEF792BE0C2285E79DF80710FEF788BD01238AF87432FEF705BDE5
:2047C000012387F87432FEF7A4BE012387F87432E5E701238AF87432CFE701238AF87432D6
:2047E000EEE50A236C4E3A46317887F86030694801F028F996E5012387F874320CE601232A
:2048000089F87432FFF7B5B8012384F87432FFF7A9B9C4F8A082FFF755BA012389F8743242
:20482000FFF783BA204604F10409FEF7D9FA4FF4A061484601F00AFA94F89822002A57D0B7
:20484000012A7EF4E2AD51464FF4087204F595600CF02EFD4FF46473A4F89C32FEF7C8BDC5
:20486000012387F87432FFF75FBB012384F87432FFF7EDB9012389F87432FFF7F8B80123E8
:2048800089F87432FFF7DFBA012389F87432FFF711B9012389F87432FFF72DBB012389F889
:2048A0007432FFF70EBB012387F87432FFF79EBB012387F874320BE5484609F1040AFEF737
:2048C0008FFA4FF4A061504601F0C0F959464FF4087209F595600CF0EBFC40F22D33A9F866
:2048E0009C32FEF74BBF012389F87432FFF7CFBA274BE06E197801F0A5F8FEF786BD0123E6
:2049000089F87432FFF7FBB8012389F87432FFF710B93846FEF764FA082307F1040A87F83C
:2049200060304FF4A061504601F090F94FF40872002107F595600CF0BBFC40F26D23A7F8B0
:204940009C32DCE4012387F8743296E4012384F87432FFF7D3B9484609F1040AFEF740FA79
:204960004FF4A061504601F071F959464FF4087209F595600CF09CFC40F2E323A9F89C3278
:20498000FEF7DDBE012384F87432FFF782B900BFAE3B0020A4050020A73B00202DE9F04334
:2049A000002483B007460A9E01942AB314684FF0010E00200130A142C0B24FEACE1804F1B5
:2049C000010515D917F804C015600CF07F0913B11D6801351D6005280AD034881CF0800FBD
:2049E00009FB0E445FFA88FE348002D01468E1E7002003B0BDE8F083144601AAD7E700BF4B
:204A000000202DE9F04F87B00490002B00F08C801D4691F8B0340C461646002B40F097803F
:204A200094F8B1346BB9049B5A1CF35CAA4284F8B134D4F8AC34049203F10103C4F8AC345A
:204A400072D294F8B634002B00F06081B4F8B22494F8B104B2F5007F6AD820F00F0C00F05A
:204A6000F001D4F8AC34501C834237D2BCF1300F4FF001094FF000070499DFF8108300F0ED
:204A8000B380B4F8B8046A1AC0F5007A924528BF924600F2BA403144524620440CF016FBC8
:204AA000B4F8B804D4F8AC340499504480B253445144B0F5007FC4F8AC34A4F8B8040491A6
:204AC00000F0F4808D42B4F8B22400F28180511C994229D894F8B11401F0F00101F0D003EE
:204AE00004F2BA40902BC4F8BC0600F02881402900F06181402937D9902900F04B815ED994
:204B0000B0290ED1012520460321636E04F2B44284F8995298479D4B00221978E06E00F051
:204B200091FF012384F8B034002007B0BDE8F08F00F0F001302920F00F0C92D0D4F8AC34F3
:204B400001321D449542C4F8AC54EDD3E9E701464FF4087204F595600CF0AAFB94F8B1349A
:204B6000002B3FF460AF6CE7202900F0F6803029D7D10025B4F8B814636E04F5D962C4F867
:204B80001007A4F8141720460421A4F81A5798477E4B2A461978E06E00F054FF94F816378C
:204BA000B4F81A17012B08BF84F816570029B8D14FF4087204F595600CF07AFBB1E760294D
:204BC00001D0502BADD1002284212046636EA1E7501C98427FF67EAF94F8B10420F00F0C31
:204BE000BCF1300F7FF44DAF94F8C526002A7FF448AF94F8C426E2B9A4F8C226725C481C88
:204C0000120203F1010CA842A4F8C0260490C4F8ACC480F0A080305C023102430233402A20
:204C2000C4F8AC340491A4F8C02684F8C4963FF628AFB4F8C4B6BBF1010F7FF422AFB4F80D
:204C4000C236B4F8C0A6AAEB030A03F2CC63E0186B1A9A4528BF9A4631441FFA8AF20392C2
:204C60000CF034FADDE90321D4F8AC34B4F8C20613445044C4F8AC34B4F8C03680B2114450
:204C80009842A4F8C20604910DD1231884F8C5B683F8CC76B4F8B234023B1B1A9BB2A4F887
:204CA0001837A4F81A3784F81697EAE6B4F81A3704F2BA4AA3F500730421A4F81407A4F845
:204CC0001A372046636E04F5D962C4F810A7984798F800100022E06E00F0B4FE94F816373B
:204CE000B4F81A17012B08BF84F8167739B10499D4F8AC34C4F810A7A4F8B874E2E64FF462
:204D0000087204F595600CF0D3FAF0E704F2B24300932946304604F2AC4304AAFFF73EFE63
:204D20000746002859D00123B4F8B22494F8B104B2F5007F84F8B6343FF6FAAE8DE6B4F866
:204D4000BA5440296DBAA4F8B45404F2BC45C4F8BC5639D0CEE6014693E6022A49D194F8FD
:204D6000BB54002D6DD1012684F899620926E18A2346074AC90104F1180000F0D9FA2946BE
:204D80002046636E05AA84F86060C3E6AE3B0020092E00000126B4F8B434D4F8BC56ADF8CA
:204DA000143084F899622D7802212046636E05AA8DF81650AEE6B4F8BA2404F2BC4352BA80
:204DC000A4F8B424C4F8BC36012520460521636E04F2B44284F899529CE60246636E2046DA
:204DE000802198471A4B3A461978E06E00F02AFE9AE60022802116462046636E9847144B43
:204E000032461978E06E00F01DFE04F1740323672422314604F2347584F86A6004F51E7011
:204E20000CF046FA284606F03FF8284606F04AF83422314628460CF03BFA042384F8603056
:204E40006FE682210026204604F2BB42D5E700BFAE3B00202DE9F041044610461546884647
:204E60001E46BDF818700CF0CDFB70B34FF4ED62002120460CF01CFAE56025B328460CF0F8
:204E8000C1FB2082002501234FF408726375A4F868302946A4F8A4726666C4F86C8004F514
:204EA0009560A4F89C5284F838500CF001FA0A4B84F874521B785BB12146084800F0F6FEA7
:204EC0000020BDE8F0812582DCE78220BDE8F081FDF7BAFFF0E700BFA23B0020C00B00204F
:204EE00070B50446084694F8601084B004299DF820502FD8E382002304F17401C4F81C07BB
:204F00002167A4F8302784F89932BDB16D46237D294643F00203237508F0E0FEB8B195E813
:204F20000F000E4E04F5E46C8CE80F00224631780B4800F087FD002004B070BD238A002B89
:204F4000E4D06D46294608F0C9FE0028E7D1802004B070BD002004B070BD00BFA63B00209A
:204F6000A4050020F8B5044690F86000092829D194F86A5015B101252846F8BD1F46012380
:204F80001046C4F88822B4F8682084F86A30023292B2A4F86820A4F886220E460CF032FBAE
:204FA00084F89952A4F88C0216B1B4F886323380064B2246197884F89872054800F042FD36
:204FC0002846F8BD81252846F8BD00BFAA3B0020A40500202DE9F0410D4690F860109DF831
:204FE0001C7009299DF820C035D190F86A800446B8F1000F04D04FF001084046BDE8F0814C
:205000001E46012380F89AC2C0F888221046B4F8682084F86A30023292B2A4F86820A4F8FA
:2050200086220CF0EFFA069BC4F89062C4F8943284F8987284F89982A4F88C0215B1B4F859
:2050400086322B80064B22461978064800F0FAFC4046BDE8F0814FF081084046BDE8F0816F
:20506000A93B0020A405002038B5654CFBF79EF8FBF7C0F900F026FD00F052FC0021614877
:2050800000F01CFC00F040F9FBF7EAFA00F0F2F900F02EFDFBF7C6F801F082FE01F024FDE0
:2050A00000F042FB2368022B39DC0822564957480CF00CF80021564800F000FC4FF0FF3075
:2050C00006F0CCFB23680546022B11DCFBF7C0F8504800F0C3F8FBF7CBFA00F03DFC04460C
:2050E000E4B2FBF7F1FA002CF7D1FBF71BF9F4E7494A4A494A4803F0DFF94A4803F0DCF98B
:205100002368022BE2DD05B10235284600F0CCFA2368022BDADD444803F0CEF9D6E73E4A0D
:205120003E493F4803F0C8F9404803F0C5F92368022BBADD384A3949394803F0BDF93C4B70
:205140003C48196803F0B8F92368022BADDD324A3249334803F0B0F9374B3848196803F0E0
:20516000ABF92368022BA0DD2B4A2C492C4803F0A3F9334B3348196803F09EF92368022BAD
:2051800093DD254A2549264803F096F94AF6CD312D4803F091F92368022B86DD1E4A1F49B7
:2051A0001F4803F089F91A21284803F085F92368022B7FF77AAF184A1849194803F07CF914
:2051C000234B2448198803F077F92368022B7FF76CAF114A1149124803F06EF91E4803F0E6
:2051E0006BF92368022B7FF760AF074800F06CFA2368022B7FF759AF0B4803F05DF954E75C
:20520000D4050020C40500206C0F0020502C002078060020482101002819010070160100A4
:2052200078160100E41901003C1E010030190100B81C010058190100801B010068190100D7
:20524000501B010074190100801901009C190100803B0020BC190100CC19010010B504465E
:20526000006830B1002100F029FB54F8040F0028F8D110BDF0B50388054683B033B14A2B8C
:2052800018D188291BD0012003B0F0BD1B4800F00BFD044630B1A168201D00F0A5F9246822
:2052A000002CF8D10122164B1A704A2301202B8003B0F0BD002303202B8003B0F0BD0F48AA
:2052C000019200F0F1FC04460028EED0019A031D9A4205D02468231D002CE6D09A42F9D16E
:2052E000084E2146054800F02DFDD4E90523376832600BB1E06998473760D6E7C40B00204D
:20530000AF3B0020500D002010B50024054B06481C7000F0C5FC2146BDE81040034800F0AB
:20532000CDBA00BFAF3B0020C40B0020B4050020F8B50E4C0E4D27782E680446C0E90623A2
:20534000466137B981602146BDE8F840094800F0ADBC094B04302B6000F046F921462E60B0
:205360000448BDE8F84000F0A1BC00BFAF3B0020500D0020C40B0020B405002070B50C4B2D
:2053800004461B782BB92146BDE87040094800F08DBC094D094B2E6804302B6000F02EF9F0
:2053A00021462E600348BDE8704000F07FBC00BFAF3B0020C40B0020500D0020B40500201F
:2053C00070B50C4B04461B782BB92146BDE87040094800F06BBC094D094B2E6804302B606D
:2053E00000F016F921462E600348BDE8704000F05DBC00BFAF3B0020C40B0020500D0020DB
:20540000B405002010B50A4B04461B783BB9C0E903332146BDE81040064800F093BC0430CC
:2054200000F018F92146BDE81040024800F08ABCAF3B0020C40B002038B50C4B04461D7873
:205440006DB90B4800F030FC38B1A04202D10BE0844209D000680028FAD1012038BD0430EA
:20546000BDE8384000F0DEB8002038BDAF3B0020C40B0020704700BF10B5FBF701F80B4BFF
:205480001A68D2E9003192680B44191A52B1D2E9003423441B1A9268994228BF1946002A4F
:2054A000F5D14318024A136010BD00BFCC0B0020C80B00202DE9F8430388054653B3592BE5
:2054C0002BD187292ED082291FD14FF000092B4FDFF8AC803C68C4B1002603E0A368264629
:2054E0009BB11C46204600F0CDFB0028F6D022468821E06800F0A6FA00282BD0404600F070
:20550000D3FAA3682646002BEBD159232B800120BDE8F883194A1360F7E700232B80032053
:20552000BDE8F883154F0020396819B9EDE789680120D9B1CB689342F9D000B139608B68D6
:20554000002BE2D0D86890420BBF9B6819468B609B68F5E7A368E0606EB1B3603B68C4F88A
:2055600008902BB1FFF788FF3C68B4E73960CCE7044A1360C9E73B60F1E700BFCC0B002015
:20558000C4050020C80B002010B50446104800F08BFA1049E3680A684BB142B194420FD099
:2055A000134601E09C420BD09B68002BFAD10A4BA2601B680C60E360BDE81040FFF75CBF70
:2055C000054B1B68E360BDE81040FFF755BF00BFC4050020CC0B0020500D0020014800F061
:2055E00063BA00BFC405002010B5044600F02EFB2046BDE81040FFF7C7BF00BF10B5044619
:2056000000F02CFB2046BDE81040FFF7BDBF00BF10B5044600F030FB2046BDE81040FFF76C
:20562000B3BF00BFC068B0FA80F04009704700BF024B1868003818BF01207047CC0B00208D
:20564000024B186808B1024B18687047CC0B0020C80B002010B5124B04461968814214D0C2
:205660000B462BB19A68A24206D01346002BF9D10023C4E9023310BDA2689A6049B1FFF72D
:20568000FBFE0023C4E9023310BD82681A60002AF5D10022034B1A600023C4E9023310BD2F
:2056A000CC0B0020C80B002000B58BB002462821684608F087FB6946024802F0FDFE0BB0B6
:2056C0005DF804FB241A010028B32DE9F041002504460126114FDFF8488065B1EB070FD594
:2056E0003846217802F0E8FE082E12D0013501360134002DF2D13846217802F0DDFEF5E751
:20570000404602F0D9FE3846217802F0D5FE082EECD1BDE8F081034802F0CEBEA81D0100C6
:20572000381A0100281A0100034A04499079D37903EB00230B8070476C0F0020803B00201B
:205740002DE9F84FDFF8C8800546D8F800400E46844257D0002C43D0234601E0002B3FD06E
:205760001B689D42FAD1002B3AD02A4FAB7BD7F8009053B30023AB73002C45D04FF0020AF6
:205780004FF0010BA54211D0A37BDB070ED5A36863B12A4687213C6084F80EA004F10C0015
:2057A00098470238012828D984F80EB02468002CE8D1AB683BB1B54205D0002283213D60CD
:2057C00005F10C009847D8F80040A5420AD02CB12368AB420CD01C46002CF9D1C7F800903F
:2057E000BDE8F88F2B68C7F80090C8F80030F7E72B682360C7F80090F2E721462046FFF7CC
:205800009FFFD3E72346AEE7AB68002BD3D1E5E7540D0020500D002038B583687BB1044638
:205820000220A07309480D46046004F10C0098470238012804D9832D02D00123A37338BD5A
:2058400021462046BDE83840FFF77ABF500D00200022F8B51249134B0C681A70D4B1012581
:205860000227114E01E02468A4B1E37B002BFAD0A36804F10C00E581002BF4D00022822165
:205880003460A77398470238012804D9A5732468002CEAD1F8BD21462046FFF751FFE2E71F
:2058A000540D0020B33B0020500D0020024B1878421C1A70704700BFB13B0020F8B5164A88
:2058C0001568854207D0044635B12B4600E01BB11B689C42FBD1F8BD002CFCD025600126DA
:2058E000146000220D4DA3682F68A673A2815BB10A4602212C60A17304F10C008121984739
:205900000238B04202D9A6732F60F8BD21462046FFF716FFF8E700BF540D0020500D0020AF
:2059200000234FF08A0C074A10B4074813700749074A084C80F800C00B701360236010BC1E
:20594000704700BFB03B0020B13B0020B23B0020500D0020540D00202DE9F8432E4D2B7840
:20596000FBB92E4E3378C3B12D4C2E492278013B02EB4200013202F01F022270DBB201EB92
:20598000800211F820803370D2E9017464B1B8F1810F1DD0A27BD2071CD428781844BDE847
:2059A000F883FFF755FFDCE71F4A146854B9F4E7A37BD90704D53A4641462046FFF72CFF2D
:2059C00024681CB32B78002BF2D0FFF741FFEFE70122A273D4F80890B9F1000FDDD00223A9
:2059E000A373124B3A4641461C6004F10C00C8470238012806D9B8F1830F03D00122337883
:205A0000A273CAE721462046FFF79AFE337828781844BDE8F88300BFB33B0020B23B0020C4
:205A2000B03B0020D00B0020540D0020500D0020024A034B10781B7818447047B23B00208D
:205A4000B33B002030B40F4C94F800C0BCF1200F15D005460C4B00201B7863440CF1010CE6
:205A600084F800C003F01F03084C03EB430304F8231004EB8303C3E9012530BC7047012013
:205A800030BC7047B23B0020B03B0020D00B002038B5837B034CDB07256801D5FFF7BCFE21
:205AA000256038BD500D002018B1837B013B012B00D970470123024AC3731370704700BF91
:205AC000B33B0020FAF706BD10B5084C206858B1D0E90131002222609847236823B1BDE8E8
:205AE00010401868FAF7F8BC10BD00BF580D0020074B82B001AA9A42019304D9CD2103F8BB
:205B0000011B9342FBD10021024802B0FFF7D6BECD3B0020D805002038B5124CFAF7D4FDEF
:205B20002378114DCD2B08D0AC4202D30EE0AC4212D014F8013FCD2BF9D1AC4202D30BE05F
:205B4000AC4209D014F8013FCD2BF9D0FAF7BCFDAC4203D2281B38BDFAF7B6FD4FF0FF30BA
:205B600038BD00BFCD3B00200050002070B5038804463BB1912B0ED11F48FFF753FD70B982
:205B8000012070BD4FF4A0611B48FFF72DFD91232380012070BD00232380032070BDFFF73F
:205BA000BBFF164E164B051EA6EB030615DB002E13DBB5420DDD134B1B68002B09DD124A6E
:205BC0001249134802F078FC32462946114802F073FC0948FFF712FDD9E70A4B1B68002BEF
:205BE000F7DD094A09490A4802F066FC32462946094802F061FCECE75C0D00200050002033
:205C0000CD3B0020D40500203C1A0100441A010078160100741A0100481A010010B54160C6
:205C20000446FAF751FC206010BD00BF10B50446FAF74AFCD4E900316FF000420B44C01AD2
:205C400090422CBF0020012010BD00BF10B541600446FAF715FC206010BD00BF10B50446ED
:205C6000FAF70EFCD4E90021C2F1010303448B4284BF5218226010BD10B50446FAF700FC88
:205C8000206010BD10B50446FAF7FAFBD4E90032C3F10103184482422CBF0020012010BD02
:205CA00000230360704700BF006870470368D3B110B4002400E0134699420ED01A681C461C
:205CC000002AF8D100230B600368C3B11A461B68002BFBD1116010BC70470A686CB1226085
:205CE00000221A60EEE700230B6003684BB11A461B68002BFBD1116070470260F0E70160A2
:205D0000E9E70160704700BF30B405684DB12B46002400E01346994207D01A681C46002AFF
:205D2000F8D10D60016030BC70470A683CB1226000221A6005680D60016030BC704702606C
:205D4000F6E700BF03688BB110B4002400E0134699421A6804D01C46002AF8D110BC7047D6
:205D60002CB1226000221A6010BC704770470260F8E700BF03682BB100201B680130002BA8
:205D8000FBD170471846704700B10068704700BF10B504464288002140680BF089FA238811
:205DA0006288A0680021BDE8104003FB02F20BF07FBA00BF30B44588ADB10022436802E038
:205DC0000132AA420CD019460C780133002CF7D101230B700588806802FB050030BC704704
:205DE000002030BC70472846F8E700BF10B4448882685CB18A420DD00023B0F800C001E038
:205E0000914208D00133A3426244F9D14FF0FF3010BC704700234268D15C0029F6D0002153
:205E2000D154084610BC704783688B4208D84288008800FB023081422CBF002001207047AF
:205E4000002070474188034649B100205B68194413F8012B02B901308B42F9D17047084660
:205E6000704700BF0023013A0160027143718371704700BF8179427990F804C0521A12EAF3
:205E80000C0F034606D000684A1C02EA0C02405C9A7170474FF0FF30704700BF10B50446AF
:205EA00090F84CC023460CF1010C8021064A203084F84CC0FFF73CFA044B2246BDE810403A
:205EC00000201978FFF7BEBD9D5E0000B43B0020F8B50388044633B1B3F5867F08D18229FF
:205EE0000AD00120F8BD4FF4867323800120F8BD002323800320F8BDFCF7CEFBBFF35F8F43
:205F00000022114B1E681A60BFF35F8F0F4DFCF7CBFB28680028E6D00D4F03E055F8040F41
:205F20000028E0D090F8453026FA03F3DB07F5D5FFF782FA0028F1D02B683A4618460221DB
:205F4000FFF7F6F9EAE700BF780D00203C0400206D5F00000146034A034813680B431360E0
:205F6000FFF7A2BD780D0020E805002070B50446FFF762FA00B970BD04F120063046FFF7EC
:205F80005BFA054694F84500FAF792FF48B994F8443063B9002DEED13046FFF733FA0D4B14
:205FA00011E00128F6D194F84430002BF2D1002DE1D00025234630467E21074A84F84C5028
:205FC000FFF7B6F9054B22462846BDE870401978FFF738BDB63B00209D5E0000B53B002009
:205FE0002DE9F843FFF762FC224B234D1870FFF75DFC224B224C1870FFF758FC0023214A0D
:2060000021496A602268AB6008704AB34FF0805801261E4FD8F8B431916C92F845009B6B10
:2060200041F08C0998472368494693F84500FAF703FF2268D8F8B43192F8450006FA00F2DE
:20604000C7F8E0201B6B98472368A96893F8453054F8042F06FA03F30B43AB60002AD9D1DE
:206060000B480021FFF72AFCBDE8F843024800F011B800BFB53B00206C0D0020B63B002034
:206080003C040020555F0000B43B002000200240E805002001460148FFF708BE7C0D002079
:2060A00038B505460748FFF7FFFD48B10446A068284002D0636803B198472468002CF6D105
:2060C00038BD00BF7C0D00200148FFF7E9BD00BF7C0D0020C20709D5134B5A78DAB1012291
:2060E0001B78124902FA03F3C1F8A030830711D50D4BDA783AB101229B780C4902FA03F3B5
:20610000C1F8A030704701229B78084902FA03F3C1F89030704701221B78044902FA03F3A1
:20612000C1F89030E2E700BFC016010000200240C20709D5134B5A78DAB101221B781249B2
:2061400002FA03F3C1F89030830711D50D4BDA783AB101229B780C4902FA03F3C1F89030D9
:20616000704701229B78084902FA03F3C1F8A030704701221B78044902FA03F3C1F8A03031
:20618000E2E700BFC01601000020024038B54FF08055084CD5F8B4312078DB6B9847D5F8AD
:2061A000B431A078DB6B9847BDE838400320FFF7BFBF00BFC016010070B504880646672CE3
:2061C0001BD0792C33D05CB300233380032070BD00251E4C1E49236809785A1C22601D4A96
:2061E0002846D554FFF72EFC1B4B2A4685211868FFF728FC30B300232360184C134D06E09F
:206200000A28E5D00D28E3D02B687E2B15DD2046FFF730FE431CF3D167233380012070BD49
:20622000FFF744FB0A4B094A18701460E5E7852901D0012070BD054CDDE7064A591C296089
:20624000D054E4E779233380012070BD000E0020B73B0020800D0020500D0020040E002016
:2062600008B5054905488022FFF7FCFDBDE8084000210348FFF722BB0C0E0020040E00209D
:20628000F805002010B1837A012B01D901207047FCF71ABA10B1837A012B01D901207047E2
:2062A000FCF7BCBA10B50446FCF702FA38B10123E178044A8B40C2F8A030002010BD04205D
:2062C00010BD00BF0020024001460123C978034A8B400020C2F89030704700BF002002409A
:2062E00010B584B08DF80F1018B1837A0446012B02D9012004B010BDFCF7DAF950B100235E
:2063000001222046CDE900330DF10F01FCF7DCFA04B010BD032004B010BD00BFB8B170B5C2
:20632000837A0446012B82B002D9012002B070BD0D461646FCF7BCF958B100233246294673
:206340002046CDE90033FCF7BFFA02B070BD01207047032002B070BDB8B170B5837A0446B4
:20636000012B82B002D9012002B070BD0E461546FCF79EF958B100223346204611460095B5
:206380000192FCF7A1FA02B070BD01207047032002B070BD10B50948FEF7F0FF084800F0E9
:2063A0002BFA48B1064C037A01465B080372204600F0EAF90028F6D110BD00BF4C0F0020A2
:2063C000080600200146014800F0D6BA0806002080B110B50446FAF753F82368C01AB0F5CB
:2063E000963F05D2207A032894BF0020012010BD002010BD0020704770B50546144689B103
:20640000022907D006290CD1BDE8704001462A4800F0B2BA0146284800F0AEFA0646002841
:2064200032D170BD0146244800F0A6FA0646002835D0FAF725F8337A30602344102BA8BF1C
:2064400010233372FAF71CF83368E401C01AB0F5963FA4B208D2337AB188042B34BF192317
:206460000A2329B9B48070BDB18819230029F9D003FB04F4C3F1640201FB02420F4CA4FBFB
:2064800002325209B28070BDF9F7FAFF337A30602344102BA8BF10230C343372D2E7334695
:2064A00008222946044800F0D3F906460028B8D047F6FF73C380BCE7080600201F85EB519C
:2064C00038B50546042000F049FC29460446254800F052FA24B2034668B347F6FF72B0F938
:2064E0000610914232D05A2504EB8404620005FB01221D4C808884FB0241D417C4EB6114F4
:2065000024B2DC8000B138BD6FF03B0294426FF05800A8BF14468442B8BF04464FF470611E
:206520005A3424B2B1FBF4F4B4F5C07F28BF4FF4C0749C8038BD082229460A4800F088F9B0
:2065400003460028DFD047F6FF72C2809A88DC80002AD8D147F6FF729442D5D14FF4807479
:20656000E7E700BF080600201F85EB5138B5094800F042F960B10446064D2146284600F0A4
:2065800017FA2146284600F0FFF804460028F4D138BD00BF0806002010B50021054800F0F2
:2065A000D1F8BDE8104000234FF4E131024A0348FEF7BEBE08060020956300004C0F0020FC
:2065C00008220AF083BD00BF082208B50AF04AFDB0FA80F0400908BD38B503460F4D10485E
:2065E000002B18BF1D46FFF75FFB58B104462846211DFFF7E9FF40B92046FFF7C5FB0446AA
:206600000028F4D14FF0FF3038BD064A064B9068201A801003FB00F038BD00BFC01A01004A
:20662000A40F002018060020ABAAAAAA2DE9F0411648FFF739FB804620B30024144F154E4E
:20664000154D08E0204608F0CFFF04464046FFF79BFB804698B1B368A8EB03039B1005FBFA
:2066600003F3FB5C002BF1D108F10401002CE9D140460C46FFF788FB80460028EBD120469B
:20668000BDE8F08104462046BDE8F081A40F0020940F002018060020ABAAAAAA2DE9F04754
:2066A00005460F46214CDFF888A0DFF88890DFF8888004F1200654F8041FB9B18A68AAB1BF
:2066C000A5B1D9F80830EB1A4FEAA30C0C3308FB0CFC0BD04868CB6800FB0C3030B10968DD
:2066E0001AF80C300B41DB0700D59047B442E2D1C5B1104B104A9B68EB1A9B1002FB03F3F8
:2067000000220E490E48CA5429460AF80320FFF719FB0FB9BDE8F0872946BDE8F047054872
:20672000FFF764BB4FF0FF33EAE700BF700F00207C10002018060020ABAAAAAA940F00204E
:20674000A40F0020034638B10268072A04D80C4850F82220934210D00A480268072A0AD85B
:2067600010B499600649541C1A60046041F82230012010BC704700207047012099607047E8
:20678000740F002078100020F8B506460846174F174C184D2EB358B1F3687168C01A90FBB6
:2067A000F1F1481C1BD0B86801EB410100EB8100FFF7EAFA88B1BB68C31A9B1004FB03F33B
:2067C0005A1C0AD07168F06801FB030028B1EB5C32681341DB07DDD5F8BD0020F8BD0020ED
:2067E000E6E73046FFF7D0FA3046F8BD18060020ABAAAAAA7C10002010B504461048FFF77B
:2068000053FAB8B10F4B9968411A94B111F10C0F0FD00D4B891001FB03F36068E16800FBDC
:20682000031038B109492268CB5C1341DB0701D510BD002001462046BDE81040FFF7A4BF65
:20684000A40F002018060020ABAAAAAA7C1000202DE9F041002844D00D46424B04460029FC
:2068600008BF1D462846FFF7B7FE431C2AD06268E36802FB00332BB33B4B22681B5C13417E
:20688000DF071FD500272846FFF7A6FE461C2CD06268E668002100FB026630460AF008FD80
:2068A000FEB1E3686268F31A93FBF2F35A1C06D001222D492468C85CA2400243CA54304644
:2068C000BDE8F0812846FFF787FE0130DAD12748FFF7B8FA0028D5DCFFF7A8FE07460028DC
:2068E000D1D100263046BDE8F081DFF880804046FFF760FA0646B0B131461D48FFF7D6F949
:20690000D8F808302946301DF51AFFF759FE15F10C0F21D100210E46084662680AF0C8FCF9
