:020000040000FA
:2000000000500020ED000000E5000000C9000000E9000000E9000000E9000000000000001A
:20002000000000000000000000000000E9000000E900000000000000E9000000E90000001C
:20004000C5120000E9000000F91B0000E9000000E9050000A90F0000E9000000E90000006B
:20006000E90000004D1C0000E9000000E9000000E9000000E9000000E9000000E9000000B8
:20008000E9000000E9000000E9000000E9000000E9000000E9000000E9000000E900000018
:2000A000E9000000E9000000E9000000E9000000E9000000E9000000E9000000E9000000F8
:2000C000E9000000BD2A00004FF0E023D3F8282DB2F5806F04D0D3F8283D9B0500D4FEE7FB
:2000E000704700BFFEE700BFFEE700BF08B506F045F8104A10498A420DD210480139034619
:20010000891A21F003010431014453F8040B8B4242F8040BF9D10A480A494FF000028842C3
:20012000B8BF40F8042BFADB03F080FAFFF7CCFF08BD00BF000000201403002094F400007B
:200140001803002098320020F0B5002706463C463D4683B0304604F07FFA0195019B9C4237
:2001600006DD00BF019B01330193019BA342F8DB304604F09FFA0195019BC4F5C8749C421D
:2001800006DD00BF019B01330193019BA342F8DB0137B7F5487F06D0B7F5C87FD4BF3C467C
:2001A000C7F54874D6E703B0F0BD00BF70B54FF08054194DD4F8D831284601215B68984746
:2001C0000122D4F8D83111461B682846984705F0A7FE01F0CFF801F04FF800F0B5F804F0E5
:2001E00035FA04F095FA0120FFF7AEFF01230B4ED4F8B01105F5B825F360094AAB600B6983
:200200001020D26A984705F08FFE00F06BF9BDE870400020FFF798BF0040034000400940EF
:200220000020094008B541F2342002F06BFB00F033FE04F0D7FA0548082100F0EDFA04F092
:2002400091F9BDE808400220FFF77EBFF011002008210023F0B585B00DEB0100CDE90033A9
:2002600000F0DAFABDF80E40254D64BAEE6A4AF6CD31A4B20220B04721460320B0471A2166
:200280000120B04708226B6B0DEB02010B201D4F984701206946AC6AA0473B68022B1ADC42
:2002A000022001A9A04758B93B68022B04DC0020FFF74AFF05B0F0BD0199134806F0BEFB65
:2002C0003B68022BF3DD114806F0B8FB0020FFF73BFF05B0F0BD0E4A0E490F4806F0AEFB25
:2002E0000E4806F0ABFB3B68022BD9DD0949084A094806F0A3FB0099094806F09FFBCFE7CD
:20030000F4EC00009801002058EC0000F8EF000008EC000018EC000020EC000030EC0000F9
:2003200048EC000000F06EBE10B54FF08054D4F8B83104205B699847D4F8B83104205B6B7A
:2003400098470128F8D110BDF0B593B005F0E8FD0746FFF7E9FF4FF08053D3F8B8314FF409
:20036000A060DB6998470121164B174A9962936A9907FCD5002005F0D1FC144800F070FF70
:200380004822684612490EF05BFA6D4600244FF08056D6F8B43120469B6B9847D6F8B431FA
:2003A00020469B694FF40051984755F8044F631CEFD10FB113B0F0BD13B0BDE8F04005F0C4
:2003C000B3BD00BF0020086000200840000000206CEC000010B54FF08054D4F8B8310420D5
:2003E0005B699847D4F8B83104205B6B98470128F8D110BD38B5002400254FF080531A4A71
:200400000420C2E90045D3F8B8315B6B9847012801D0FFF7DFFF4FF08053D3F8B8310020BB
:20042000DB6998470121114B114A9962936A9B07FCD54FF080520F4C0F49E368204623F4C9
:20044000807323F00103E360D2F8C83104251B689847312040F221210122084B2560E063FE
:20046000A1605A6038BD00BF18030020002008600020084000000140002100040000244315
:2004800010B505F08DFC0023044C400E40EAC112C4E90023D4E9000110BD00BF1803002006
:2004A00010B505F07DFC0023064C400E40EAC112C4E9002303F07EFB00B910BDBDE8104092
:2004C00003F04EBB18030020014B9868704700BF00200940704700BF0146012000F04AB8EA
:2004E00005F052BC2DE9F84305F01AFD01254FF480724FF000094FF480334FF080561B4C87
:20050000DFF86C802321C8F80090656062606360D6F8843107461B6848469847D6F88431F7
:20052000242128461B689847D6F88431252102201B689847236843F4E0232360C4F80890BD
:2005400005F022FC0346D6F8B02103F50073E361C8F8A052C8F800501420136998470FB1E0
:20056000BDE8F883BDE8F84305F0DEBC0020094000002443431E012B10B419D9042815D1C7
:2005800000231A4610F004001CBF124C21621BB10121114BC3F880121AB101220E4BC3F87F
:2005A000A02218B101220C4BC3F8C02210BC7047012808D10346074A916110F0020204D0B0
:2005C000044CE161DEE70023F7E7002BEED01046DEE700BF0020094000002443014B186864
:2005E000704700BF4003002010B5FFF779FF194B1860FFF755FF184BD3F8A0307BB9164B36
:20060000D3F88020EAB9144BD3F8C02032B100204FF48031114AC3F8C002516010BD4FF432
:2006200080730E4C636005F0AFFB00F2052020F4FF70094B20F00100E061D3F88020002A36
:20064000E1D000200121054AC3F88002516003F0FDFCD8E74003002000002443002009408C
:200660000122024BC3F8002C704700BF0000084010B505F055FC114BD3F8002C012A0AD002
:200680004FF0864201210E4C1C60C2F80411C2F8001178B110BD4FF086410A4CC3F8004C68
:2006A000074C1C60C1F80421C1F80021C3F8002C0028EFD1BDE8104005F036BC00000840C0
:2006C000502D190051E5CC1A0122014BDA6070470000084070B5044605F022FC214606468B
:2006E000114803F0A5FD104803F0A0FD38B101210E4B0F4AC3F8001253699B06FCD54FF02D
:200700008055D5F8A03160681B689847D5F8A03160689B6898471128F8D106B170BDBDE869
:20072000704005F001BC00BF44030020000022430010094008B5064803F078FD38B10121F5
:20074000044B054AC3F8001253699B06FCD508BD44030020000022430010094010B5A8B1F8
:200760004FF0805C0021134C134A6368012023F4C0536360DCF8A031C2F88011C2F80012EC
:20078000DB68984763699B06FCD410BD04460B4803F04CFD0028E3D005C814430028FBD161
:2007A000002CDDD0034A536823F4C05343F40063536010BD001009400000224344030020EF
:2007C00038B5054605F0ACFB04462946054803F07BFD0020FFF7C2FF04B138BDBDE8384036
:2007E00005F0A2BB4403002070B590B10E460024451E04E0A64206D000F062FB013415F8CE
:20080000010F0028F6D100F0B5FB0128FBD0204670BD0446F7E700BF10B40C4B0C4C1A78C6
:200820000133FF2A0FD1A342F9D10A4C49B10139631801381978A34200F8011F03F1FF33DA
:20084000F8D110BC7047014CF0E700BFC8FF0100D0FF0100F012005000F032BB014800F069
:200860004FBB00BFCD0B00002DE9F84F0388044633B1FA2B12D1822915D00120BDE8F88FDC
:200880000121AC48AC4A03801380AC48AC4A03801170FA2323800120BDE8F88F0023238075
:2008A0000320BDE8F88FA54FA24E3B883288934249D06FD2002540F201584FF0C009A148B8
:2008C000A14900EB050E11F803C003F1010BBCF1DB0F05F1010A3AD01FFA8BF39A420EF849
:2008E00001CB1FFA8AF502D94545ECD1002501321FFA82FEBEF5A26F08BF4FF0000EA6F80B
:2009000000E08D4BB3F800C0F4450FD073468E4A08E0D05CC02800F0F4808BB2B3F5A26FB5
:2009200008BF00239C4503F10101F2D1A7F800E0864B1D80002DACD0854B1B6803B19847B7
:2009400008F016FCA5E70022804B1A80A1E703F1010E1FFA8EFE7245C9D9B5F5A06FC5D89B
:2009600011F80EE0BEF1DD0F08D00233BEF1DC0F9BB200F0BD809A42A3D8B8E702339BB24C
:2009800000F805C0934205F10105ADB2AFD2454597D1ABE7B3F5A26F80F0C380002540F2A2
:2009A000015B6848684901EB030E00EB05081EF801CB03F1010ABCF1DB0F05F1010914D029
:2009C0001FFA8AF3B3F5A26F08F801CB1FFA89F500F081805D45EAD1002A40F0A780002571
:2009E0004FF0010EA6F800E08BE703F1010E1FFA8EFEBEF5A26F00F09280B5F5A06F00F2A0
:200A0000878011F80EE0BEF1DD0F24D00233BEF1DC0F9BB255D0B3F5A26FC4D10023002A6D
:200A2000DED001EB030C00EB05081CF801EB03F1010ABEF1DB0F05F1010919D01FFA8AF3FE
:200A40009A4208F801EB1FFA89F57FF650AFB5F5A06FEAD94AE702339BB200F805C0B3F52F
:200A6000A26F05F10105ADB235D05D459BD1B3E703F1010C1FFA8CFC62457FF638AFB5F50E
:200A8000A06F3FF633AF02339BB211F80CC0BCF1DD0F09D0BCF1DC0F10D09A427FF627AFC8
:200AA000B5F5A06FBDD921E74FF0DB0C00F805C09A4205F10105ADB2F2D818E74FF0C00CF1
:200AC000F4E76FF03F0CB3F5A26F00F805C005F10105ADB2C9D10023002A81D0B5F5A06FCF
:200AE0003FF604AF002B9CD001234FF0000CCCE700F805909A4205F10105ADB23FF647AF66
:200B0000F5E614483380A7F800E003F08FFA0FE7002A3FF464AF00250123AC46B5E701238F
:200B2000DAE7002A3FF45BAF0648074900231D4677E700BF64320020623200206032002030
:200B400078320020202800204C0300207432002048030020C0000020014B1860704700BFA9
:200B60004803002070B50E460546C020FFF774FE002E17DD002407E0DB2818D00134A4B25B
:200B8000FFF76AFEB4420DDA15F8010BC028F3D1DB200134FFF760FEA4B2DC20FFF75CFE2F
:200BA000B442F1DBBDE87040C020FFF755BEFFF753FEDD20E2E700BF024B03481988FFF73A
:200BC000D1BF00BF743200202028002010B5274A1378022B05D0032B0BD1C02837D00020BC
:200BE00010BD00F12403DBB2012B28D80123137003E0DB2804BF022313701D491D4CB1F8E7
:200C000000C0B4F800E00CF101039BB2B3F5A26F08BF00239E450B801DD0174BC02803F8F7
:200C20000C00DCD1154A138863451BD09E45144808BFA2F800C003F0F9F9012010BD032315
:200C40000E480B49048813700C80002010BD01231370002010BD0323084C13702488002005
:200C60000C8010BDA1F800C0002010BD7832002062320020603200204C0300206432002080
:200C8000C000002038B54FF08055D5F8B83102205B699847D5F8B83102205B6B9847012852
:200CA0000446F7D1D5F8B8314FF40070DB699847034B044A9C62936A9B07FCD538BD00BFD8
:200CC0000020086000200840F0B54FF0805540F2F27683B0284CFFF7D5FFD5F8D03120462C
:200CE000DB689847D5F8B03115205B699847A36BD5F8B42123F4FE6323F00203A36366643C
:200D0000D36B03209847082112231C4A2046C2F89010D5F8B4210093176C132303220221D9
:200D2000B847D5F8D02160232046576814494FF4E132B847142240F2011340F201306263F8
:200D4000E26A104942F01002E2620A68002A18BF0346236366640B685BB11520A36BD5F8CB
:200D6000B02143F05003A363136903B0BDE8F040184703B0F0BD00BF0010004000200240E2
:200D8000006CDC025C0800204FF0805370B5D3F8B83104465B6B02209847012807D13A4B03
:200DA000DB6ED80703D5394A93691907FCD4032C45D0374B1B6803B170BD4FF08055D5F8B9
:200DC000B83102205B6B9847012856D12E4BDB6EDA0715D54FF080562C4DD6F8D0312846BB
:200DE000DB689847D6F8B03115205B69984740F2F272AB6B23F4FE6323F00203AB636A6432
:200E00004FF08053D3F8B8314FF400701B6A9847032C23D001211F4B1B4A9962936A9B0748
:200E2000FCD5032000F038FA022000F035FA132000F032FABDE87040122000F02DBA4FF06F
:200E40008055D5F8B83102205B6B98470128BDD0D5F8B8314FF400701B6A98474FF08054AA
:200E6000D4F8B8314FF400709B6A9847D4F8B8314FF400701B6B9847CCE7D5F8B8314FF4AD
:200E800000701B6A9847C5E700200840001000405C0800200020086010B505F041F80446D1
:200EA000054800F0DDF90022044B1A6004B110BDBDE8104005F038B8D00000205C08002064
:200EC0004FF0805310B5D3F8B83104465B6B0220984701280BD0FFF7F7FE4FF08053D3F8AA
:200EE000D0312146BDE810400348DB691847034BDB6EDB07F1D4EEE70010004000200840DC
:200F0000184A10B51060D8B14FF080540221164AD4F8B83111614FF400705B6A9847D4F8D1
:200F2000B8314FF40070DB6A984701210F4B104A9962936A9B07FCD5BDE81040FFF7C4BE43
:200F400003464FF08054084A4FF400701361D4F8B8319B6A9847D4F8B8314FF400701B6B35
:200F60009847E2E75C080020D0000020002008600020084008B54FF08053D3F8B8310220C0
:200F80005B6B984701280AD1064BD86E10F0010004D0A3F501239869C0F3C00008BD002027
:200FA00008BD00BF0020084070B5FFF76BFE40F2F2720C4C236C626413F0500F0DD00A4DE8
:200FC0004FF0805606E0D6F8D03120461B6998472B681BB9A369DB06F5D570BDC0B29847E2
:200FE000EEE700BF001000405C0800204FF0E022D2F8103D23F00403C2F8103D30BFFFF72B
:2010000063BB00BFF8B504F08BFF02F0D3FF18B1BDE8F84004F088BF884803F007F9022539
:20102000044648B1636823B19847A84228BF2846C5B22468002CF5D1FFF752FA804B044664
:20104000D3F88032002B00F0D2807E4B9B691B1A022B00F19680A3F28F23002BACBF022071
:201060000120854228BF054602F0A4FD002840F08E80012D00F0CB80022DC9D12846611E3E
:20108000FFF778FA6D4803F0D1F806250446002800F0AF80A3680BB10220984723692468DB
:2010A00025EA0305002CF5D1FFF70EFB6B0700F1A380002D40F0A38000F0BCF90020FFF767
:2010C0004DFB4FF08052604C3920236823F003032360A36843F00F03A360D2F8B8319B6981
:2010E00098470020594B20642064C3F8200405F0F1FA062D00F09D804FF080560027544C6A
:20110000504D0321EB6AD4F82432524823F00303C4F82432D6F8D8315B689847D6F8B831A2
:201120009B6B9847EB6A05F0F5FB4B4AD6F8D831C2F88071474801215B6898470121D4F838
:201140002432464A43F00303C4F82432D160EB6A05F012FCFFF7EEFAFFF7A2F9FFF7B4FAC2
:20116000364803F063F8044628B1E36803B198472468002CF9D104F0D7FEBDE8F84004F086
:20118000D3BE02F017FD00283FF442AF002502F019FD0646FFF774F9361A002E7FF738AFB5
:2011A000FFF71CFA00EB46210B1BA3F28F22002A36DA002D3FF42CAF082B2ED404F580340E
:2011C000631A31EA230128BF21460220FFF7D2F94FF0E022D2F8103D23F00403C2F8103DA9
:2011E00030BFFFF771FABDE8F84004F09DBE022037E7FFF769FA06250022184BDA604FF0B1
:201200008053D3F8B83128469B69984754E7022004F58031FFF7AEF9DAE704F10801D4E7D8
:20122000012DC9D0022D7FF4F3AE2846FFF7A2F928E7022004F016FF5EE700BF60080020DF
:20124000000024430020094000100940000022430020084000400340000004430040094045
:201260000146014802F0E4BF600800200146014803F02AB86008002010B5064802F0D2FFFE
:20128000BDE810404FF08053D3F88431202103201B68184760080020431C10D04FF08053A8
:2012A00010B5D3F8B43104461B684FF4C042002198470023024840EA8404236010BD704781
:2012C000001A4442034BD3F8E000C3F8E00003F0A9B900BF002002404FF0805370B5D3F862
:2012E000B4310C465B680546984714F00C0320F0E06222F4EC2207D0042B23D0082B24D021
:201300000C2B08BF42F4403214F0030310D142F4C04223064FF08053D3F8B4312846BDE806
:2013200070404FF000011B6848BF42F480221847022B04D0012B08BF42F48042E9E742F40A
:201340000052E6E742F40032DEE742F48032DBE7074AD2F8D030C340DB074CBFD2F8803012
:20136000D2F8C03023FA00F000F00100704700BF002002400022412300B585B002A8CDE90D
:201380000223FFF7A7F9042004F05CFE032805D102A8FFF715FA05B05DF804FB032104201F
:2013A00004F024FE042004F04DFE0328FAD11C234FF0405200210090044804F0CFFD02A847
:2013C000FFF7FEF905B05DF804FB00BF00A00C400022412300B583B06846CDE90023FFF781
:2013E00079F9012004F02EFE012803D00121032004F0FCFD6846FFF7E3F903B05DF804FB85
:201400000022412300B583B06846CDE90023FFF761F9012004F016FE012805D04FF080534E
:20142000D3F8800004F086FC6846FFF7C9F903B05DF804FB10B54123002482B06846CDE99B
:201440000043FFF747F90320214604F0CFFD012004F0F8FD20B96846FFF7B2F902B010BD18
:201460004FF08053D3F8800004F064FC6846FFF7A7F902B010BD00BF70B5038804463BB153
:2014800040F2CB22934208D182290AD0012070BD40F2CB232380012070BD002323800320B2
:2014A00070BD094B094E1D69FFF70EF903F0F0FD03F0BEFE8021A847002880B2E8DD03F0A0
:2014C000B1FEF3689847EFE7F4EC000058F20000024BD3F89C0100F001007047002008405E
:2014E0004FF0FF332DE9F0412E4C8046236023680F460B6010F0030302D1028811050DD4CC
:2015000004F00EFD284B0546D3F89C31DB071BD4002D36D000252846BDE8F081438004F012
:20152000FFFC214B0546D3F89C31DA07F0D5B8F8003013F4405F07D003F44063B3F5006FAD
:2015400004BF1A4BC3F80080194E4CF25032C6F800807368236003E07368013A236018D001
:201560002368DBB2002BF7D085B123683B602568EDB2A5F10105B5FA85F56D092846BDE88B
:20158000F08104F0D1FC2846BDE8F08104F0CCFCEBE71DB1236800253B60BCE704F0C4FC97
:2015A000F8E700BF640800200020084068080020001004400B4A01E0013A11D0438803F4A1
:2015C0004063B3F5806FF7D14388074A9BB21360428802F44062A2F58062B2FA82F25209D7
:2015E0001046704720A107006408002070B54FF0805482B004F094FCD4F8B03105461B6A1F
:2016000019209847D4F8B03112201B6A9847D4F8B03119205B699847D4F8B03112205B6943
:201620009847D4F8B83101205B699847D4F8B83101205B6B98470128F8D1174A174BD062F0
:201640009862936A9B07FCD54FF080540022144BD4F8B0111A615A6119200B699847D4F871
:20166000B03112201B6998479DB140F2FF3600240C4B0D4A0D4D01A92E600D48DC611A60CF
:20168000FFF72EFFA0F10100B0FA80F0400902B070BD04F049FCE8E700200840002008605B
:2016A000001004600010044051000706000004600100060400B587B01422002101A80DF0AC
:2016C000B1F94FF0010C40F60A0218499DF8113009686CF30303059101A86946ADF804200E
:2016E0008DF81130FFF7FCFE012803D0002007B05DF804FB0E4801E00138F8D0BDF80630EA
:2017000003F44063B3F5806FF6D1BDF80630094A9BB21360BDF8060000F44060A0F580600F
:20172000B0FA80F0400907B05DF804FB7808002020A107006408002000B587B01422002104
:2017400001A80DF06FF94FF0010C40F609029DF8113069466CF3030301A8ADF804208DF80D
:201760001130FFF7BDFE012803D0C0B207B05DF804FB134A01E0013A1CD0BDF8063003F4B7
:201780004063B3F5806FF6D1BDF806300D4A9BB21360BDF8063003F44063B3F5806F09D150
:2017A000094B1A7852B90122059808491A7008601046DBE7002007B05DF804FB0120D5E715
:2017C00020A1070064080020793200207808002030B54FF0805487B004F0A2FBD4F8B031DD
:2017E00005465B6919209847D4F8B03112205B699847334BD3F89C31DA072FD4FFF79CFFB5
:20180000002001212E4A2F4BD0629962936A9B07FCD54FF08054D4F8B83101209B6998472B
:20182000D4F8B83101205B6B98470228F8D1D4F8B03119201B6A9847D4F8B03112201B6A8C
:201840009847D4F8B03119201B699847D4F8B03112201B6998476DB307B030BD00211A4BD4
:20186000102219610124596102A80DF0DBF840F60D029DF8153002A864F3030301A9ADF8EE
:2018800008208DF81530FFF72BFEA042B6D10F4A01E0013AB2D0BDF80A3003F44063B3F5A6
:2018A000806FF6D1BDF80A30094A9BB21360BDF80A30A3E707B0BDE8304004F035BB00BF88
:2018C00000200840002008600010046020A107006408002008B504F06DFA052803460ED0E4
:2018E000032806D080B903220C4B0120C3F8D02108BD0222094B0120C3F8D02108BD074A45
:201900000120C2F8D03108BD012801D0002008BD0521024AC2F8D01108BD00BF002008404E
:2019200008B5FFF763FE012804D1FFF7C3FE012800D108BDFFF74CFF002008BD08B5FFF746
:20194000FBFEFFF7B7FE012800D108BDFFF740FF002008BD38B5194B194A1978D2F89C213E
:201960000029184C18BF0024D30700D438BD04F0D7FA02464FF080550021134B1348986148
:201980005C611446D5F8B0211961136A19209847D5F8B03112201B6A9847D5F8B031192058
:2019A0001B699847D5F8B03112201B699847002CDCD1BDE8384004F0B7BA00BF7B3200209A
:2019C000002008400000C0800010046000004080094B1B782BB100231946084A116153616E
:2019E0007047074A074B0849002808BF1346034A11615361704700BF7B32002000100460CA
:201A00000200C0800800C0800000C080044A054B1178054A002918BF00235361704700BF39
:201A20007B3200200000C08000100460014B1868704700BF6808002038B50B460446154670
:201A400000211A460CF0EEFF0122637B258062F30303637338BD00BF014B1860704700BF57
:201A60006C08002010B5064B06495C6806480C6000234FF43441054A01F03EFF012010BDA9
:201A8000003004407408002080080020011B0000164B1B6843B370B59B68984708B90020B0
:201AA00070BD04F03DFA0023114A124E5468326814F1804143F10003914273F10003054618
:201AC00003D3346065B1012070BDFEF709FD0A4A0A4913680860013313603460002DF2D188
:201AE00004F022FA012070BD002070476C08002000300440740800207C08002070080020D1
:201B000010B5134B1B68B3B19B689847D8B9114C236A984701280ED1FFF7BAFF636A0446B1
:201B2000984744B1BDE8104000234FF434410A4A0A4801F0E1BE0023BDE810408021064AC2
:201B4000064801F0D9BEFFF7A3FF0446E9E700BF6C080020F4EC0000011B00008008002006
:201B600070B5204E3368002B39D09B680446984708BB1D4D2B6A9847FFF78AFF6B6A984703
:201B80001A4BB4F1404F1D681CD83268184BB2F90C101A68CB17891A63EBE273091945EB73
:201BA00003052D0243F609520023080245EA11610CF08EFC70BDFFF76BFF0C4BB4F1404FEE
:201BC0001D68E2D9FEF78CFC0A4B1B68C3F17E4303F57203C34248BF05F1FF35D5E718463E
:201BE00070BD00BF6C080020F4EC00007C080020780800207008002010B5104BD3F89C31F1
:201C0000DA0704D4FFF7F2FC012800D010BD0C4C23695B0204D46FF00042094B1A6110BD0B
:201C20000122084B08481A7002F000FA6FF480036FF000422361024B1A61F0E70020084056
:201C4000001004607C320020E400002008B5114BD3F89C31D90704D4FFF7C8FC012800D022
:201C600008BD04F05DF90C4B1A6912020BD40A4B1A6912F00A0F1CBF6FF00A021A61BDE82F
:201C8000084004F051B96FF4000204481A6102F0CDF9ECE70020084000100460E400002067
:201CA000014B1878704700BF7D32002008B5FFF70FFC30B1034B5888A0F10200B0FA80F089
:201CC000400908BDA40800207D2901D90120704708B50A46014602480CF0B2FD002008BDA4
:201CE0007A0B002010B588B040F60202182102A8FFF7A2FE012211499DF818300968104C68
:201D0000898823F00F03ADF81A1002A801A907948DF818308DF81620FFF7E2FB012802D079
:201D2000002008B010BD02A8FFF744FCA0F10100B0FA80F0400908B010BD00BF3401002090
:201D400008010020F8B50E4D00200E4E2C680E4F06E02379022B06D024682B68A34209D083
:201D60002379032BF5D133782BB124682B680120A342F5D1F8BD384602F058F90120EBE7F8
:201D80006C0B00207B320020E400002030B583B0FFF74CFE0446FFF79BFB08B903B030BD4C
:201DA0000A4801A9FFF79CFB0128F7D1FEF798FB6FF03F052D1A03E0FEF792FBC542EDD509
:201DC000638803F44063002BF6D0E7E7010001040B280BD00C2801D001207047042A08D1C7
:201DE00039B10A4B00201B680B607047082A00D109B902207047064A4B1E073112F801093C
:201E000003F8010F8B42F9D100207047A0080020D3080020082200B585B000210DEB020057
:201E20000CF000FE42F2034302A801A9ADF80830FFF756FB20B19DF90A30803303D000206F
:201E400005B05DF804FB9DF80C0000F00C00A0F10400B0FA80F0400905B05DF804FB00BF1C
:201E6000082210B584B00DEB020000210CF0DAFD02229DF80C3042F2034462F301038DF803
:201E80000C300CE0082200210DEB02000CF0CAFD02A801A9ADF80840FFF722FB38B19DF840
:201EA0000C0000F00303022BECD004B010BDFF2004B010BD2DE9F043DFF8CC8083B08146B0
:201EC0000F46D8F80060FEF70BFB304D2D1A03E0FEF706FBC5421DD53479022CF8D0032C1A
:201EE00013D1D8F800100B7A062BDEB202DDB51FBD4211DD00231D4628460A680B71C8F896
:201F000000200B7203B0BDE8F0830025284603B0BDE8F0833479E2E72A46093148460CF051
:201F20008FFC0422D8F80010F31CCB5C184F5BB23B70331DCB5C05363144164E03F03F03FB
:201F40000DEB020033700CF07BFC0198FFF708FE114B124A1B7810605BB100222846D8F8B5
:201F6000003019681A72C8F800101A7103B0BDE8F0833978042049B289B203F0A9F92046F8
:201F8000317803F0A5F9E8E7740B0020F4FEFFFF120300207A3200207B320020A008002013
:201FA00030B583B0FEF79CFA194C241A06E0FFF731FF38B1FEF794FAC44203D5FFF788FA0D
:201FC0000028F4D101A91348FFF78AFA6FF03F04FEF786FA104D241A06E06888022808D10A
:201FE000FEF77EFAC44203D5FFF772FA0028F4D1688842F20243984207D042F20743C01AD5
:20200000B0FA80F0400903B030BD012003B030BD00FEFFFF01000104A408002008B5FFF77B
:2020200057FA30B1044B5B88022B14BF0220012008BD022008BD00BFA408002030B583B0AA
:20204000FFF746FA30B1134C6388022B02D1012003B030BD0F4801A9FFF742FA012802D030
:20206000002003B030BDFEF73BFA6FF03F05094C2D1A03E0FEF734FAC54209D5608802283A
:20208000F8D1A0F10200B0FA80F0400903B030BD6088F6E7A408002008B5FFF723FE012853
:2020A00001D0002008BDFFF7C9FFC0B208BD00BF10B5FEF715FA1A4C241A06E0FFF7AAFEC5
:2020C00038B1FEF70DFAC44203D5FFF701FA0028F4D1FFF7FDF9134C20B16388022B01D159
:2020E000FFF75EFFFFF774FBFFF7A4F900220E4B62801979022908BF1A710C4B1A79022A13
:2021000004BF00221A710A4B1A79022A04BF00221A71084B1A79022A04BF00221A7110BD7C
:2021200000FEFFFFA40800203C090020C8090020540A0020E00A002008B5FFF7B1FD01286F
:2021400001D0FFF7B5FF012008BD00BF10B5FFF7A7FD012808D0FFF73BF9FFF7B9F928B154
:202160001D4B5B88022B01D1012010BD4FF0010C4FF0840E19481A4B44791A496CF383043E
:2021800001601860A0F806E044714879164A6CF383000A60A1F806E04871507959796CF394
:2021A00083006CF383011360A2F806E0A3F806E050715971FFF724F9FFF7B2FB012801D00A
:2021C000002010BDFFF7C6FBFFF78CFD0128F7D1BDE81040FFF732BFA40800203C090020DE
:2021E000E00A0020C8090020540A0020F8B50025354E3648FFF734F8FFF76CFB8C222946F7
:2022000030460CF00FFC8C22294631480CF00AFC8C2229462F48304C0CF004FC8C22294680
:202220002E480CF0FFFB2E4F2E4B8022294620463E601E607D600CF0F5FB42F601032A4E2C
:202240002360A623304642F202024FF2F001276101272377E36820F8022B1940234AA369A6
:20226000C4E901551A4094F83730C4E9085567F3030384F837301E4BE5830B43E3601D4BF7
:2022800004F118011343A3611B4B02226361A5630CF0D6FA3A4604F11A01301D0CF0D0FA11
:2022A000FFF754FFB84202D02C462046F8BD04461248FFF7D1FBFFF7D5FB2946104801F098
:2022C000BFFD2046F8BD00BF3C090020F4000020C8090020540A0020A4080020E00A0020AA
:2022E0006C0B0020740B002024090020007C008000011AB10702FF6F2C0900202CED0000AE
:20230000E400002070B5FFF7CBFC012835D0FFF7DFF8A8B3224E7388022B31D1FEF7E0F81A
:20232000204C241A06E0FFF775FD38B1FEF7D8F8C44203D5FFF7CCF80028F4D1FFF7C8F8BC
:20234000D8B100257388022B26D1FFF789FDFF2822D000F00300441E18BF012475B1FFF7AE
:202360009FFC01280AD0FFF7A3FE204670BDFFF797FC012801D0FFF79BFE0124204670BDCB
:20238000FFF7E4FE01280446F1D1FFF7A1F80028E5D02546024ED5E70124002DEED0DEE778
:2023A000A408002000FEFFFF70B588B00546FFF78FF800285AD03A4B5B88022B56D10024FE
:2023C000FEF78EF86FF01F06361A07E0FFF722FD012854D1FEF784F8C64252D5FFF778F85E
:2023E0000028F3D1182142F6014202A8FFF724FB00222C4BE8B28DF81700069304929DF8EB
:202400001430012062F303038DF81430FFF7E0FA02A801A9FFF764F8D0B1234DBDF80A30DD
:202420002A7803F4406333B982B3BDF80A3003F44063002BF8D0BDF80A50ADB2B5F5105546
:2024400018BF0125FFF7E2FA3CB9284608B070BD0125FFF7DBFA002CF7D0FFF721FC012845
:20246000F3D0FFF725FE284608B070BDFFF76EFE01280446A4D00125284608B070BD002843
:20248000B0D034B90225284608B070BDFEF7AEFDC4E7FFF705FC0128F4D0FFF709FEF1E751
:2024A000A40800207A0B00207B3200207D2801D901207047FFF778BF7D2901D90120704702
:2024C00010B50C460A46014603480CF0B9F92046BDE81040FFF768BF7A0B002010B5FFF77D
:2024E000DFFB01281AD0FEF7F3FFB8B10C4C6388022B13D1FEF7ECFF60B9FEF7E9FF68B15C
:202500006388022B0AD1FFF7ABFCFF2806D0C0F3801010BDFFF77EFC0028EED0002010BDDB
:20252000A40800200B2810B502D00124204610BD082A23D111B3154A01F1080313F8010D4E
:202540008B4202F8010BF9D1FEF7C2FF04460028ECD00F4C6388022B15D1FEF7B9FF80B1C3
:202560006388022B0DD1FFF71BFD012809D00324FFF764FD012818BF0324D7E70224204666
:2025800010BD0024F4E70024D0E700BFCC080020A408002030B585B0072800F2BB80DFE8D8
:2025A00000F029323D474A7176045B4C2177FEF78FFF002838D06388022B35D1FEF788FF8B
:2025C000002800F08C806388022B40F08880FFF7E7FC012818BF032400F08180FFF7AEF9F9
:2025E00001287ED0FFF72AFD012818BF0324204605B030BD012900F08780002974D0022464
:20260000204605B030BDA1F10B030F2BF7D8424CC9B2A37B8B4207D0A173C8E73E4C61860A
:20262000FEF756FF0028C6D10024204605B030BD394C2186BBE731F00703E0D1364C01F048
:202640000103228B3548C1F3400543F0020302F4FE4243EA850313430278C1F38001914258
:2026600023830170A3D104F1180102222C480CF0E7F82C4803A9FEF733FF00280CBF0324ED
:202680000024B4E731F00103B9D1CCB2AFE701F115031A2BB3D86FF014030C25224A01E0EA
:2026A00052F83530994229DD013DF9D2FEF710FF044600289BD00422002103A80CF0B2F907
:2026C0001022194B03A803EBC505AB8802A90024ADF80E30ADF80C20FEF702FF87E70024C3
:2026E0007CE7FFF7D5F97DE70191FFF7D9FA01289AD0FFF7DDFC01990C4678E70A4B0B4A9D
:2027000003EBC5031360D1E7FFF720FD01288BD003246CE701246AE7A40800207B320020B8
:2027200026090020240900203CED000034010020D1B170B50C4684B0182813D8DFE800F070
:202740003EB0AB684D0D16A5736D3912121235312C281224201C0DB56400002318460B60D6
:2027600004B070BD0120FBE7022070475D4B00201B681B680B60F3E70A2300200B60EFE7FB
:20278000202300200B60EBE7032300200B60E7E7052300200B60E3E76FF0140300200B609C
:2027A000DEE71A2300200B60DAE70B2300200B60D6E74D4B00201B780B60D1E7FEF788FE6C
:2027C000002800F08A80494B5888A0F10203B3FA83F35B0900202360C2E70023434A0B60DF
:2027E000137E03F001030B60127E520744BF43F002030B603E4B1B78002B44D00B68002069
:2028000043F004030B60ABE77D2300200B60A7E7364B00201B8E0B60A2E7364B00201B7856
:202820005BB20B609CE7FEF753FE00283FD02F4B5B88022B3BD10026082200210DEB02001F
:202840000CF0F0F802229DF80C3042F2034562F383038DF80C300AE0002102A80CF0E2F8FC
:2028600002A801A9ADF80850FEF73AFE48B39DF80C2002F00C02082AEED03EBB9DF90A3065
:20288000236080332BD000206AE7184B002093F91C300B6064E7154B00205B8E0B605FE76B
:2028A000124B00209B7B0B605AE7182392E7FFF74DFC01280646BFD06FF07F03032023605B
:2028C0004EE780238DF80A30002EF5D0FFF7E8F90128D3D0FFF7ECFBD0E703467AE703206A
:2028E0003EE700BF340100207A320020A40800207B3200201203002008B500F077F880B2B7
:2029000008BD00BF00F004B938B54FF08055D5F8B83104205B699847D5F8B83104205B6B68
:20292000984701280446F7D1D5F8B83140F20140DB699847034B044A9C62936A9B07FCD527
:2029400038BD00BF0020086000200840034B1B68002B0CBF02200120704700BF300C0020F7
:20296000F8B5038804465BB3B3F5847F2DD1194B1B788B4201D00120F8BD174D2B686BB1A0
:202980004FF080530026154AD3F8CC3157685B680220984739462B6898472E604FF08053C4
:2029A000D3F8B83140F201409B6A984701210C4B0C4A9962936A9B07FCD50B48FEF756FC38
:2029C0004FF4847323800120F8BD002323800320F8BD00BF13030020300C00200080024093
:2029E00000200860002008403801002070B52B4B1B686BB12A4900230A4612F8014B002CEC
:202A00003CD10133042BF8D125462046294670BD4FF08053D3F8B83104205B6B9847012858
:202A200037D0FFF771FF1F4A1F4B92681A4210D101221E4BC3F8F02FD3F8F02F002AFBD1D9
:202A400010464FF4807103F0D3FF0122184BC3F8A82203F065FA0646124A9368DB07FCD574
:202A60004FF08053D3F8CC3102205B68556898470446002EC9D103F057FAC6E700200D4A81
:202A8000C85402EBC30552F833406D682046294670BD094BDB6B9A07C5D4C2E7300C0020F8
:202AA000340C002000800240010000800090024000005042200300200020084038B5002453
:202AC0004FF080510E4D0F4AC5F8A842D368D1F8B01123F00103D3604B6931209847224630
:202AE00020464FF4807103F083FF0121064BC5F8A812224619780548BDE8384001F064BA6B
:202B00000000504200800240130300204C01002010B5074C2378802B00D010BD01F088F951
:202B20000346002123700348BDE8104001F088B9130300204C01002008B503F0F1F90038B1
:202B400018BF012008BD00BF80F31088704700BF827A044B03EBC2035B68181AB0FA80F06B
:202B600040097047380C00202DE9F0434E4F827A0121064685B007EBC20202E0C2E8441FC7
:202B80004CB1D2E84F3F13F0FF05F7D00325284605B0BDE8F083BFF35F8F4FF08059B37ADA
:202BA000DFF8088107EBC3077E60D9F8B431F078DB6B9847B37A08EB03135868D9F8B83128
:202BC0005B699847B37AD9F8B82108EB0313526B5868904701280746F4D1D9F8B831DA69E6
:202BE000B37A08EB031398689047314B314A9F62936A9B07FCD503204FF08051B37A1B01E4
:202C000058F80320536923F00F035361B37A1B0158F803301862D1F8C4311F68B37A1B01D8
:202C200058F8030033893BB1337A002B35D1737A002B0CBF03240124082322464FF08054E6
:202C4000019373681C4900930023B847B37A96F800C0D4F8B471B27871781B01CDF800C0CB
:202C600058F803007F6C4FF0FF33B847B37A1B0158F80320536843F002035360B37AD4F84B
:202C8000C4211B01126958F8030003A990470028F4D1284605B0BDE8F083737A002B14BFCF
:202CA00003240224C8E700BF380C0020C0ED00000020086000200840006CDC0270B5264D76
:202CC000837A05EBC3025268904201D0042070BD4FF08051214A044602EB03139868D1F803
:202CE000B8311B6A984701211D4B1E4A9962936A9B07FCD54FF08056D6F8B43160789B6B84
:202D00009847D6F8B4314FF4005160789B699847D6F8B431A0789B6B9847D6F8B4314FF42C
:202D20000051A0789B699847D6F8B43120789B6B9847D6F8B4314FF400519B692078984755
:202D40000023A27A05EBC2025360A27ABFF35F8F184605F8323070BD380C0020C0ED000016
:202D600000200860002008402DE9F04F9846334D837A164605EBC3056A6885B0904203D0F3
:202D8000042005B0BDE8F08F4FF080592C4D044605EB03135868D9F8B8310F465B6B9847E1
:202DA000012849D1A37A2749886F05EB0311C9681B01084240D0DDE90E210A44B242B8BFF3
:202DC0003246002A019235D0D8BF0DF10C0A24DD4FF0000B0DF10C0A5E45D4BF002117F849
:202DE0000B10E8580391D9F8C4315B689847A37A51461B01E858D9F8C431DB6898470E9BDB
:202E00005B45C4BF039B08F80B30019B0BF1010B5B45A37A4FEA0313DED14FF0805601E061
:202E2000A37A1B01D6F8C421E8585146136998470028F5D10020A4E70520A2E7380C0020C9
:202E4000C0ED00000020084070B5838D0446622B0D4608D0752B20D01BB10023A38503205C
:202E600070BD6223838528460BF02EFE04F12C0602462946304604F083FD01280BD9752396
:202E8000A38507480BF020FE05490246304604F077FD0128E1D8002070BD00F12C06F0E705
:202EA0004CEE000070B503890446A32B2FD01BD8002B41D09E2B3CD104F10805202128465A
:202EC00004F0B4FD01280ED904222F4904F152000BF028FE38BBA32320212846238104F037
:202EE000A5FD01281BD870BDBC2B22D100F108050A21284604F09AFD0128F4D9BC23238172
:202F00000A21284604F092FD0128F7D8EBE700F108052021284604F089FD0128E3D994F833
:202F200052302F2B0BD010210023184A2381117070BD0023238170BD9E230381BCE794F86A
:202F40005330202B16D0284604F06AFD034600262344012204F1520104F16C0083F8516026
:202F60000BF01EFE84F86D60012384F87430BC232381C5E70122064904F16C000BF010FEA2
:202F8000002384F86D30EFE768EE00009432002028EF000038B5B0F8503004466BB1853B91
:202FA0009AB20A2A26D80A2B24D8DFE803F032233B23232323231023190003676D3000F026
:202FC000DFFA05462067C8B18D23A4F8503020462149FFF739FF01280FD98F23A4F8503024
:202FE0002046236F9847012807D9002110221B4B21671A700023A4F8503038BD012218496E
:2030000004F16C000BF0CCFD852384F86D50A4F8503020461349FFF717FF0128EDD9872327
:20302000A4F85030A38D4BB1552B09D0002310210A4AA3851170A4F8503038BD5523A385ED
:2030400009480BF041FD0849024604F12C0004F097FC0128EAD8D0E770EE000094320020BF
:20306000E0ED0000C8EE0000F0ED0000F8B52C4D04462B7813F0300613D11A0611D413F0B8
:20308000400717D100283FD01B0740D501F0BCF890B320232146276722482B7001F068F91C
:2030A0002AE084B3002323672146BDE8F8401D4801F05EB91B4801F03FF9044620B31A4B63
:2030C000014604F15205186806F04AF81922294604F1080004F00CFD294604F12C00192236
:2030E00004F006FD4FF4A0612046A4F85060266784F8746001F06CF82046FFF7D3FE94F8F8
:203100007430012B06D0F8BD20232B70F8BD01F075F8F1E72046BDE8F840FFF73BBF00BF99
:20312000943200205C010020242D002008B54FF4A04005F0FFFFBDE80840014801F0EAB81F
:203140005C01002010B5038804463BB1A62B0BD1094B1B788B420BD0012010BDFFF7E6FF67
:20316000A6232380012010BD00232380032010BD1046FFF77BFFF3E7903200202DE9F04770
:20318000002607463446DFF890A0244DDFF8909082B000F1010806E0002E20DB2FD0013662
:2031A0000234102C18D03A5D18F8043003EB02239BB2002BF0D0002E11DD4FF0FF3628686F
:2031C000C0F580715246484403F05EFC2B6802340344102C2B60E6D102B0BDE8F0870CB9B7
:2031E0002868EDE728680F4AC0F580714844019303F04AFC2A68019B10442860E0E7286822
:20320000094AC0F58071484403F03EFC2B68012603442B60C4E700BF3CEF00003C0D002072
:20322000400D002038EF000034EF00002DE9F041838D044688B0002B68D05A3B9AB23F2A51
:203240005ED83F2B5CD8DFE813F063005B005B005D015B005B005B005B005B005B003701FF
:203260005B005B003A015B005B005B005B005B005B005B005B005B005B005B005B005B00BE
:203280005B005B005B005B005B005B005B005B005B005B005B00C5005B005B005B005B0014
:2032A0005B005B005B005B005B005B005B005B005B005B005B005B001F015B005B005B0099
:2032C00040005B005B005B00340100F12C059D480BF0FAFB9B490246284604F051FB01286E
:2032E00074D90022984B1A609923A38597480BF0EBFB96490246284604F042FB012865D931
:2033000000230320A38508B0BDE8F0815A2383858F480BF0D9FB04F12C0502468C49284695
:2033200004F02EFB012851D9874E86483168894A0844C1F5807103F0A7FB5D223368A28545
:20334000034433607F480BF0BFFB7E490246284604F016FB012839D900237B4E7E4F33600E
:2033600006F084F93860002800F0CF803068DFF8D481C0F58071794A404403F085FB02466F
:203380003368386813443360FFF7F8FE3168744A08EB0100C1F5807103F076FB64223368A5
:2033A000A2850344336067480BF08EFB65490246284604F0E5FA012808D90023664F624E10
:2033C0003868336006F058F93860CCE7002008B0BDE8F08100F12C055A480BF075FB594969
:2033E0000246284604F0CCFA0128EFD90023564E5C4F336007F052F93860002800F0938062
:203400004369002B51D0584B0146D3F818806846C0473B6804A85969C047DFF82881306882
:203420004E4AC0F58071404403F02EFB02463368684613443360FFF7A1FE30684B4AC0F5BC
:203440008071404403F020FB0246336804A813443360FFF793FE30683B68C0F580715B6845
:20346000434A404403F010FB31683D4A014408EB01003160C1F5807103F006FB912233686A
:20348000A2850344336001E000F12C052D480BF01BFB2C490246284604F072FA012895D980
:2034A0000023304F284E3868336007F0FDF83860A3E700F12C0519E700F12C0573E7214FA5
:2034C00000F12C051F480BF0FFFA1E490246284604F056FA01287FF679AF00231A4E33602A
:2034E00006F0FCFF00287FF7FFAE3168214A7818C1F5807103F0C8FA80223368A2850344F5
:20350000336069E700F12C051CE730680D4FC0F58071194A384403F0B7FA6723A385336839
:2035200003443360CEE731680648144A0844C1F5807103F0A9FA95223368A28503443360DB
:20354000C5E600BF400D00203C0D0020E8EF000040EF000080EF0000440E002094EF0000C1
:20356000A0EF0000400E0020A0F30000CCEF0000D8EF0000B4EF0000A8EF0000E0EF000030
:20358000004870472D3200002DE9F041144A1549154803F053FA154803F050FA144CDFF85C
:2035A0004080104F104E04F1600514F8023C13B1237C012B04D92034AC42F6D1BDE8F0815F
:2035C00042463946304603F039FA0A4803F036FA204600F02BFB084803F030FAEBE700BF59
:2035E00008F0000018EC000020EC00000CF00000EA24002024F00000F8EF00004FF0010C52
:2036000010B5054A054C0021A36882F800C09847E368BDE8104018477E320020A0F30000FE
:203620000021014800F00CBCF002002038B5664CFCF7BCFDFCF7DEFE00F006FD00F032FC2B
:203640000021624800F0FCFB00F042F9FDF708F800F0D2F900F00EFDFCF7E4FD01F062FEBE
:2036600001F004FD00F022FB2368022B3BDC0822574958480BF0E4F80021574800F0E0FBB0
:203680004FF0FF3006F006FA23680546022B13DCFCF7DEFDFFF7C4FF504800F0C3F8FCF717
:2036A000E7FF00F01BFC0446E4B2FDF70DF8002CF7D1FCF737FEF4E7494A4A494A4803F0A2
:2036C000BDF94A4803F0BAF92368022BE0DD05B10235284600F0AAFA2368022BD8DD44489F
:2036E00003F0ACF9D4E73E4A3E493F4803F0A6F9404803F0A3F92368022BB8DD384A3949E7
:20370000394803F09BF93C4B3C48196803F096F92368022BABDD324A3249334803F08EF967
:20372000374B3848196803F089F92368022B9EDD2B4A2C492C4803F081F9334B3348196819
:2037400003F07CF92368022B91DD254A2549264803F074F94AF6CD312D4803F06FF9236897
:20376000022B84DD1E4A1F491F4803F067F91A21284803F063F92368022B7FF778AF184A80
:203780001849194803F05AF9234B2448198803F055F92368022B7FF76AAF114A114912480F
:2037A00003F04CF91E4803F049F92368022B7FF75EAF074800F04AFA2368022B7FF757AF44
:2037C0000B4803F03BF952E79801002088010020F0110020D02E00202C0200208CF40000C7
:2037E00028F0000018EC000020EC0000E4F00000F8EF000030F00000A0F3000058F00000EB
:2038000088F2000068F0000058F2000074F0000080F000009CF0000066320020BCF00000C8
:20382000CCF0000010B50446006830B1002100F007FB54F8040F0028F8D110BDF0B5038814
:20384000054683B033B14A2B18D188291BD0012003B0F0BD1B4800F0E9FC044630B1A1681F
:20386000201D00F083F92468002CF8D10122164B1A704A2301202B8003B0F0BD0023032031
:203880002B8003B0F0BD0F48019200F0CFFC04460028EED0019A031D9A4205D02468231D10
:2038A000002CE6D09A42F9D1084E2146054800F00BFDD4E90523376832600BB1E069984784
:2038C0003760D6E7480E00207F320020D40F002010B50024054B06481C7000F0A3FC214641
:2038E000BDE81040034800F0ABBA00BF7F320020480E002078010020F8B50E4C0E4D277893
:203900002E680446C0E90623466137B981602146BDE8F840094800F08BBC094B04302B609E
:2039200000F024F921462E600448BDE8F84000F07FBC00BF7F320020D40F0020480E002028
:203940007801002070B50C4B04461B782BB92146BDE87040094800F06BBC094D094B2E682D
:2039600004302B6000F00CF921462E600348BDE8704000F05DBC00BF7F320020480E0020EF
:20398000D40F00207801002010B50A4B04461B783BB9C0E903332146BDE81040064800F027
:2039A00093BC043000F018F92146BDE81040024800F08ABC7F320020480E002038B50C4B1C
:2039C00004461D786DB90B4800F030FC38B1A04202D10BE0844209D000680028FAD10120CF
:2039E00038BD0430BDE8384000F0DEB8002038BD7F320020480E0020704700BF10B5FCF771
:203A00003FFD0B4B1A68D2E9003192680B44191A52B1D2E9003423441B1A9268994228BFE0
:203A20001946002AF5D14318024A136010BD00BF500E00204C0E00202DE9F8430388054672
:203A400053B3592B2BD187292ED082291FD14FF000092B4FDFF8AC803C68C4B1002603E0B0
:203A6000A36826469BB11C46204600F0CDFB0028F6D022468821E06800F0A6FA00282BD009
:203A8000404600F0D3FAA3682646002BEBD159232B800120BDE8F883194A1360F7E7002346
:203AA0002B800320BDE8F883154F0020396819B9EDE789680120D9B1CB689342F9D000B12F
:203AC00039608B68002BE2D0D86890420BBF9B6819468B609B68F5E7A368E0606EB1B360F8
:203AE0003B68C4F808902BB1FFF788FF3C68B4E73960CCE7044A1360C9E73B60F1E700BF48
:203B0000500E0020880100204C0E002010B50446104800F08BFA1049E3680A684BB142B123
:203B200094420FD0134601E09C420BD09B68002BFAD10A4BA2601B680C60E360BDE8104066
:203B4000FFF75CBF054B1B68E360BDE81040FFF755BF00BF88010020500E0020D40F002056
:203B6000014800F063BA00BF8801002010B5044600F02EFB2046BDE81040FFF7C7BF00BFC9
:203B800010B5044600F02CFB2046BDE81040FFF7BDBF00BF10B5044600F030FB2046BDE83E
:203BA0001040FFF7B3BF00BFC068B0FA80F04009704700BF024B1868003818BF01207047D9
:203BC000500E0020024B186808B1024B18687047500E00204C0E002010B5124B0446196878
:203BE000814214D00B462BB19A68A24206D01346002BF9D10023C4E9023310BDA2689A6011
:203C000049B1FFF7FBFE0023C4E9023310BD82681A60002AF5D10022034B1A600023C4E9DB
:203C2000023310BD500E00204C0E002000B58BB002462821684608F0FDF86946024802F083
:203C4000FDFE0BB05DF804FB24F1000028B32DE9F041002504460126114FDFF8488065B178
:203C6000EB070FD53846217802F0E8FE082E12D0013501360134002DF2D13846217802F0CC
:203C8000DDFEF5E7404602F0D9FE3846217802F0D5FE082EECD1BDE8F081034802F0CEBE70
:203CA0003CF1000038F1000028F10000034A04499079D37903EB00230B807047F011002032
:203CC000663200202DE9F84FDFF8C8800546D8F800400E46844257D0002C43D0234601E08B
:203CE000002B3FD01B689D42FAD1002B3AD02A4FAB7BD7F8009053B30023AB73002C45D0A2
:203D00004FF0020A4FF0010BA54211D0A37BDB070ED5A36863B12A4687213C6084F80EA065
:203D200004F10C0098470238012828D984F80EB02468002CE8D1AB683BB1B54205D00022A7
:203D400083213D6005F10C009847D8F80040A5420AD02CB12368AB420CD01C46002CF9D1E7
:203D6000C7F80090BDE8F88F2B68C7F80090C8F80030F7E72B682360C7F80090F2E7214673
:203D80002046FFF79FFFD3E72346AEE7AB68002BD3D1E5E7D80F0020D40F002038B58368E1
:203DA0007BB104460220A07309480D46046004F10C0098470238012804D9832D02D001238A
:203DC000A37338BD21462046BDE83840FFF77ABFD40F00200022F8B51249134B0C681A7036
:203DE000D4B101250227114E01E02468A4B1E37B002BFAD0A36804F10C00E581002BF4D01A
:203E0000002282213460A77398470238012804D9A5732468002CEAD1F8BD21462046FFF70D
:203E200051FFE2E7D80F002083320020D40F0020024B1878421C1A70704700BF813200207C
:203E4000F8B5164A1568854207D0044635B12B4600E01BB11B689C42FBD1F8BD002CFCD013
:203E600025600126146000220D4DA3682F68A673A2815BB10A4602212C60A17304F10C00A8
:203E8000812198470238B04202D9A6732F60F8BD21462046FFF716FFF8E700BFD80F0020C0
:203EA000D40F002000234FF08A0C074A10B4074813700749074A084C80F800C00B70136005
:203EC000236010BC704700BF803200208132002082320020D40F0020D80F00202DE9F84349
:203EE0002E4D2B78FBB92E4E3378C3B12D4C2E492278013B02EB4200013202F01F02227088
:203F0000DBB201EB800211F820803370D2E9017464B1B8F1810F1DD0A27BD2071CD4287869
:203F20001844BDE8F883FFF755FFDCE71F4A146854B9F4E7A37BD90704D53A4641462046E7
:203F4000FFF72CFF24681CB32B78002BF2D0FFF741FFEFE70122A273D4F80890B9F1000FF4
:203F6000DDD00223A373124B3A4641461C6004F10C00C8470238012806D9B8F1830F03D019
:203F800001223378A273CAE721462046FFF79AFE337828781844BDE8F88300BF83320020D7
:203FA0008232002080320020540E0020D80F0020D40F0020024A034B10781B781844704707
:203FC000823200208332002030B40F4C94F800C0BCF1200F15D005460C4B00201B786344F0
:203FE0000CF1010C84F800C003F01F03084C03EB430304F8231004EB8303C3E9012530BC7C
:204000007047012030BC70478232002080320020540E002038B5837B034CDB07256801D57E
:20402000FFF7BCFE256038BDD40F002018B1837B013B012B00D970470123024AC37313706B
:20404000704700BF83320020FCF744BA10B5084C206858B1D0E90131002222609847236881
:2040600023B1BDE810401868FCF736BA10BD00BFDC0F0020074B82B001AA9A42019304D901
:20408000CD2103F8011B9342FBD10021024802B0FFF7D6BE983200209C01002038B5124CE1
:2040A000FCF712FB2378114DCD2B08D0AC4202D30EE0AC4212D014F8013FCD2BF9D1AC42BA
:2040C00002D30BE0AC4209D014F8013FCD2BF9D0FCF7FAFAAC4203D2281B38BDFCF7F4FA89
:2040E0004FF0FF3038BD00BF983200200050002070B5038804463BB1912B0ED11F48FFF766
:2041000053FD70B9012070BD4FF4A0611B48FFF72DFD91232380012070BD00232380032083
:2041200070BDFFF7BBFF164E164B051EA6EB030615DB002E13DBB5420DDD134B1B68002B27
:2041400009DD124A1249134802F078FC32462946114802F073FC0948FFF712FDD9E70A4BF5
:204160001B68002BF7DD094A09490A4802F066FC32462946094802F061FCECE7E00F002009
:2041800000500020983200209801002044F100004CF1000020EC00007CF1000050F10000E0
:2041A00010B541600446FCF78FF9206010BD00BF10B50446FCF788F9D4E900316FF00042B6
:2041C0000B44C01A90422CBF0020012010BD00BF10B541600446FCF753F9206010BD00BF31
:2041E00010B50446FCF74CF9D4E90021C2F1010303448B4284BF5218226010BD10B50446C4
:20420000FCF73EF9206010BD10B50446FCF738F9D4E90032C3F10103184482422CBF002022
:20422000012010BD00230360704700BF006870470368D3B110B4002400E0134699420ED0AC
:204240001A681C46002AF8D100230B600368C3B11A461B68002BFBD1116010BC70470A68DA
:204260006CB1226000221A60EEE700230B6003684BB11A461B68002BFBD1116070470260D5
:20428000F0E70160E9E70160704700BF30B405684DB12B46002400E01346994207D01A68EE
:2042A0001C46002AF8D10D60016030BC70470A683CB1226000221A6005680D60016030BC94
:2042C00070470260F6E700BF03688BB110B4002400E0134699421A6804D01C46002AF8D1DB
:2042E00010BC70472CB1226000221A6010BC704770470260F8E700BF03682BB100201B681C
:204300000130002BFBD170471846704700B10068704700BF10B504464288002140680AF07E
:2043200081FB23886288A0680021BDE8104003FB02F20AF077BB00BF30B44588ADB1002240
:20434000436802E00132AA420CD019460C780133002CF7D101230B700588806802FB0500B4
:2043600030BC7047002030BC70472846F8E700BF10B4448882685CB18A420DD00023B0F8D0
:2043800000C001E0914208D00133A3426244F9D14FF0FF3010BC704700234268D15C002934
:2043A000F6D00021D154084610BC704783688B4208D84288008800FB023081422CBF00203B
:2043C00001207047002070474188034649B100205B68194413F8012B02B901308B42F9D128
:2043E00070470846704700BF0023013A0160027143718371704700BF8179427990F804C0F1
:20440000521A12EA0C0F034606D000684A1C02EA0C02405C9A7170474FF0FF30704700BFF0
:2044200010B5044690F84CC023460CF1010C8021064A203084F84CC0FFF75EFA044B224698
:20444000BDE8104000201978FFF7BEBD2144000084320020F8B50388044633B1B3F5867FF7
:2044600008D182290AD00120F8BD4FF4867323800120F8BD002323800320F8BDFEF75CFB69
:20448000BFF35F8F0022114B1E681A60BFF35F8F0F4DFEF759FB28680028E6D00D4F03E00C
:2044A00055F8040F0028E0D090F8453026FA03F3DB07F5D5FFF782FA0028F1D02B683A4697
:2044C00018460221FFF718FAEAE700BFFC0F002014000020F14400000146034A03481368D5
:2044E0000B431360FFF7A2BDFC0F0020AC01002070B50446FFF762FA00B970BD04F12006EC
:204500003046FFF75BFA054694F84500FCF720FF48B994F8443063B9002DEED13046FFF737
:2045200033FA0D4B11E00128F6D194F84430002BF2D1002DE1D00025234630467E21074A55
:2045400084F84C50FFF7D8F9054B22462846BDE870401978FFF738BD863200202144000048
:20456000853200202DE9F843FFF762FC224B234D1870FFF75DFC224B224C1870FFF758FC5E
:204580000023214A21496A602268AB6008704AB34FF0805801261E4FD8F8B431916C92F868
:2045A00045009B6B41F08C0998472368494693F84500FCF791FE2268D8F8B43192F8450091
:2045C00006FA00F2C7F8E0201B6B98472368A96893F8453054F8042F06FA03F30B43AB605B
:2045E000002AD9D10B480021FFF72AFCBDE8F843024800F011B800BF85320020F00F0020BF
:204600008632002014000020D94400008432002000200240AC01002001460148FFF708BE20
:204620000010002038B505460748FFF7FFFD48B10446A068284002D0636803B19847246862
:20464000002CF6D138BD00BF001000200148FFF7E9BD00BF00100020C20709D5134B5A78D8
:20466000DAB101221B78124902FA03F3C1F8A030830711D50D4BDA783AB101229B780C4993
:2046800002FA03F3C1F8A030704701229B78084902FA03F3C1F89030704701221B7804493C
:2046A00002FA03F3C1F89030E2E700BF68EC000000200240C20709D5134B5A78DAB10122CC
:2046C0001B78124902FA03F3C1F89030830711D50D4BDA783AB101229B780C4902FA03F3FF
:2046E000C1F89030704701229B78084902FA03F3C1F8A030704701221B78044902FA03F3DC
:20470000C1F8A030E2E700BF68EC00000020024038B54FF08055084CD5F8B4312078DB6BED
:204720009847D5F8B431A078DB6B9847BDE838400320FFF7BFBF00BF68EC000070B5048833
:204740000646672C1BD0792C33D05CB300233380032070BD00251E4C1E49236809785A1C3A
:2047600022601D4A2846D554FFF72EFC1B4B2A4685211868FFF728FC30B300232360184C96
:20478000134D06E00A28E5D00D28E3D02B687E2B15DD2046FFF730FE431CF3D167233380EC
:2047A000012070BDFFF744FB0A4B094A18701460E5E7852901D0012070BD054CDDE7064AD4
:2047C000591C2960D054E4E779233380012070BD841000208732002004100020D40F00208B
:2047E0008810002008B5054905488022FFF7FCFDBDE8084000210348FFF722BB901000202C
:2048000088100020BC01002010B1837A012B01D901207047FEF7A8B910B1837A012B01D94D
:2048200001207047FEF74ABA10B50446FEF790F938B10123E178044A8B40C2F8A0300020F1
:2048400010BD042010BD00BF0020024001460123C978034A8B400020C2F89030704700BFA5
:204860000020024010B584B08DF80F1018B1837A0446012B02D9012004B010BDFEF768F92A
:2048800050B1002301222046CDE900330DF10F01FEF76AFA04B010BD032004B010BD00BF37
:2048A000B8B170B5837A0446012B82B002D9012002B070BD0D461646FEF74AF958B10023D7
:2048C000324629462046CDE90033FEF74DFA02B070BD01207047032002B070BDB8B170B51F
:2048E000837A0446012B82B002D9012002B070BD0E461546FEF72CF958B100223346204665
:20490000114600950192FEF72FFA02B070BD01207047032002B070BD10B50948FFF712F82B
:20492000084800F02BFA48B1064C037A01465B080372204600F0EAF90028F6D110BD00BF77
:20494000D0110020CC0100200146014800F0D6BACC01002080B110B50446FBF791FD236821
:20496000C01AB0F5963F05D2207A032894BF0020012010BD002010BD0020704770B50546B2
:20498000144689B1022907D006290CD1BDE8704001462A4800F0B2BA0146284800F0AEFABC
:2049A0000646002832D170BD0146244800F0A6FA0646002835D0FBF763FD337A30602344A1
:2049C000102BA8BF10233372FBF75AFD3368E401C01AB0F5963FA4B208D2337AB188042BFB
:2049E00034BF19230A2329B9B48070BDB18819230029F9D003FB04F4C3F1640201FB024261
:204A00000F4CA4FB02325209B28070BDFBF738FD337A30602344102BA8BF10230C34337229
:204A2000D2E7334608222946044800F0D3F906460028B8D047F6FF73C380BCE7CC01002025
:204A40001F85EB5138B50546042000F049FC29460446254800F052FA24B2034668B347F60C
:204A6000FF72B0F90610914232D05A2504EB8404620005FB01221D4C808884FB0241D41798
:204A8000C4EB611424B2DC8000B138BD6FF03B0294426FF05800A8BF14468442B8BF0446A9
:204AA0004FF470615A3424B2B1FBF4F4B4F5C07F28BF4FF4C0749C8038BD082229460A48A8
:204AC00000F088F903460028DFD047F6FF72C2809A88DC80002AD8D147F6FF729442D5D1DA
:204AE0004FF48074E7E700BFCC0100201F85EB5138B5094800F042F960B10446064D2146A7
:204B0000284600F017FA2146284600F0FFF804460028F4D138BD00BFCC01002010B50021AC
:204B2000054800F0D1F8BDE8104000234FF4E131024A0348FEF7E0BECC0100201949000089
:204B4000D0110020082209F07BBE00BF082208B509F042FEB0FA80F0400908BD38B50346BB
:204B60000F4D1048002B18BF1D46FFF75FFB58B104462846211DFFF7E9FF40B92046FFF79A
:204B8000C5FB04460028F4D14FF0FF3038BD064A064B9068201A801003FB00F038BD00BFB6
:204BA000C8F1000028120020DC010020ABAAAAAA2DE9F0411648FFF739FB804620B30024B0
:204BC000144F154E154D08E0204608F045FD04464046FFF79BFB804698B1B368A8EB030306
:204BE0009B1005FB03F3FB5C002BF1D108F10401002CE9D140460C46FFF788FB80460028AD
:204C0000EBD12046BDE8F08104462046BDE8F0812812002018120020DC010020ABAAAAAA4C
:204C20002DE9F04705460F46214CDFF888A0DFF88890DFF8888004F1200654F8041FB9B159
:204C40008A68AAB1A5B1D9F80830EB1A4FEAA30C0C3308FB0CFC0BD04868CB6800FB0C307C
:204C600030B109681AF80C300B41DB0700D59047B442E2D1C5B1104B104A9B68EB1A9B1033
:204C800002FB03F300220E490E48CA5429460AF80320FFF719FB0FB9BDE8F0872946BDE89E
:204CA000F0470548FFF764BB4FF0FF33EAE700BFF411002000130020DC010020ABAAAAAA5C
:204CC0001812002028120020034638B10268072A04D80C4850F82220934210D00A48026838
:204CE000072A0AD810B499600649541C1A60046041F82230012010BC704700207047012020
:204D000099607047F8110020FC120020F8B506460846174F174C184D2EB358B1F3687168F9
:204D2000C01A90FBF1F1481C1BD0B86801EB410100EB8100FFF7EAFA88B1BB68C31A9B1065
:204D400004FB03F35A1C0AD07168F06801FB030028B1EB5C32681341DB07DDD5F8BD002067
:204D6000F8BD0020E6E73046FFF7D0FA3046F8BDDC010020ABAAAAAA0013002010B5044648
:204D80001048FFF753FAB8B10F4B9968411A94B111F10C0F0FD00D4B891001FB03F360686D
:204DA000E16800FB031038B109492268CB5C1341DB0701D510BD002001462046BDE8104015
:204DC000FFF7A4BF28120020DC010020ABAAAAAA001300202DE9F041002844D00D46424BE4
:204DE0000446002908BF1D462846FFF7B7FE431C2AD06268E36802FB00332BB33B4B226871
:204E00001B5C1341DF071FD500272846FFF7A6FE461C2CD06268E668002100FB026630464E
:204E200009F000FEFEB1E3686268F31A93FBF2F35A1C06D001222D492468C85CA24002437B
:204E4000CA543046BDE8F0812846FFF787FE0130DAD12748FFF7B8FA0028D5DCFFF7A8FE57
:204E600007460028D1D100263046BDE8F081DFF880804046FFF760FA0646B0B131461D4833
:204E8000FFF7D6F9D8F808302946301DF51AFFF759FE15F10C0F21D100210E46084662688D
:204EA00009F0C0FD3046BDE8F081002FDBD03846FFF754FE411C0CD0D8F8086000EB400074
:204EC00006EB800600213046FFF7AAFE002ED5D1C9E731463046FFF7A3FEB2E7064EA81079
:204EE00006FB00F096E700BFC8F1000000130020DC01002028120020ABAAAAAA10B504468A
:204F00000846FFF72BFE84B1431C02460DD06068E36800FB023038B1054B21689B5C0B4126
:204F200013F0010F08BF002010BD002010BD00BF0013002030B319B3C3684268CB1A93FBD4
:204F4000F2F35A1C1CD010B54FF0010E0F4CD0F800C0E25C0EFA0CFC22EA0C02E254C2684C
:204F60004368891A91FBF3F14B1C0CD0084C0268635C0EFA02F223EA02036354704610BD6B
:204F8000002070477047704610BD00BF0013002018120020A8B191B1C2684368891A91FB25
:204FA000F3F14B1C0BD0012310B4064C0268605C03FA02F202436254184610BC704700207E
:204FC0007047704718120020B0B199B1C2684368891A91FBF3F14B1C0CD0012310B4074C08
:204FE0000068625C03FA00F022EA00026254184610BC704700207047704700BF1812002062
:2050000088B179B1C2684368881A90FBF3F0431C08D0054B00EB4000996811EB800002D047
:205020000430704700207047DC01002070B505460D480E46FFF7FAF868B10446012D0CD043
:205040001DB963680BB1984730B92046FFF75EF904460028F2D1002070BDA368002BF4D0FC
:2050600030469847F0E700BF10130020054B10B51B689847044B5B689847BDE81040034B57
:205080005B681847F4EC000058F2000088F20000002138B50B4A0C480C4B0D4D0D4C017018
:2050A00011800D481A22198009F0BCFC20462946FFF748FD294604F10800BDE83840FFF7F5
:2050C00041BD00BF6A3200208832002068320020C8F1000014130020A41300202DE9F041A5
:2050E0000C460021114A124B124EDFF84C80134F0546117012481A221980318009F092FCED
:2051000038464146FFF71EFD414607F10800FFF719FD802C28BF802429462246094809F08E
:205120008FFB20463480BDE8F08100BF883200206A32002068320020C8F1000014130020A6
:20514000A413002024130020F8B50E4E0E4D32782B881344802B01DD0020F8BD04460B4F07
:20516000394609F06DFB0A4A33781188E0180B44DBB2F9182A8809F063FB30782B88184412
:20518000F8BD00BF8832002068320020241300206A32002010B5144B144C1B8894F800C081
:2051A000134A63441288DBB213449BB21A18802A17DC013B1BB2002B0EDB0E4A591C03EB79
:2051C000000E11447244013B11F801ED1BB2B3F1FF3F02F801E9F6D1844484F800C0012004
:2051E00010BD002010BD00BF6A32002088320020683200202413002008490A8882420ADB03
:2052000010B4074C80B22388121A03440A800120238010BC70470020704700BF6832002006
:205220006A320020014B1880704700BF68320020044A054B12881B7804481344DBB2184447
:20524000704700BF6A32002088320020241300200048704724130020014B1888704700BF33
:2052600068320020054B064A18781288054B10441B88C0B2184480B2704700BF8832002013
:205280006A3200206832002010B50C461A22054909F0D6FA2046BDE810401022024909F05D
:2052A000CFBA00BFA41300201413002010B50C461A220146044809F0C3FA2146BDE8104090
:2052C0001022024809F0BCBAA4130020141300200246024B012023F812107047A413002044
:2052E000014B33F810007047A413002008B5044B0D3803EBC000FFF725FC012008BD00BFDE
:2053000014130020024B0D3803EBC000704700BF1413002001490248FFF718BCC8F1000032
:205320001C13002008B50448FEF7F4FFBDE808400248FEF7EFBF00BFF4010020E801002076
:205340000148FFF741B800BFE801002038B50F48FEF7F2FF044680B10D48FEF7EDFF054627
:20536000206060B1FFF7F0FE034605F19C0105F18200A5F88030FFF787FF204638BD2146D9
:205380000248FEF7F5FF2C46F7E700BFE8010020F4010020006800F19C018230FFF774BFDC
:2053A00010B5044607482146FFF700F800B910BD21680548FEF7DCFF2146BDE81040014869
:2053C000FEF7D6BFE8010020F401002010B5044609482146FEF7EAFF00B910BD2468B4F8C2
:2053E00080102046FFF77AFE04F19C0104F18200BDE81040FFF75ABFE8010020F8B5FBF794
:205400003FF8104E0025344607460D20FFF77AFF2146FFF79BFB103420B90135102DF4D127
:205420000020F8BD0720FFF75BFF06EB05152B7B8342F5D1A868381AB0F5206F8CBF0020E3
:205440000120F8BD5019002070B5174E002435460D20FFF757FF2946FFF778FB1035F8B97D
:205460000134102CF4D10F2406EB04152846103D013C1022294609F0E3F9002CF6D1072031
:20548000FFF72EFF3073FAF7FBFF03460D20B360FFF738FFBDE8704001460348FFF752BBBB
:2054A000002CE1D1EBE700BF5019002000B5864630B1084611461A4673465DF804EB184731
:2054C0005DF804FB014B1888704700BF1003002000283ED0037A30B4022B10D00378022B97
:2054E00015D00379B3B10024C37913F0030318BF012301B10C6002B1136030BC7047C5795E
:20550000447A037965B90CB9012BF2D0DBB100231C46EEE7447A14F0030418BF0124E3E70B
:20552000C4B1032D37D1032C2ED0022C24D143BB022D2DD00123032D24D1A4F10204B4FAB2
:2055400084F46409D5E7023C012C8CBF00240124CFE770474BB9022D08BF0123EAD1A4F1D0
:205560000304B4FA84F46409C3E7032D01D0022D02D123461C46BCE7002BC8D1022DDAD1D8
:20558000EDE701230024B4E7002BC0D10123D4E701231C46ADE7022DC7D1002BF1D1022CBD
:2055A0004FF00103DBD11C46A3E700BF30B50D46044600210622284683B009F033FA637DDF
:2055C000D9075CBF01232B70237E012B23D9694601AA04F11000FFF77BFF009B0BB10223FD
:2055E000EB70019B0BB102236B70E37D03F00303022B03D0032B14BF00230823AB70637E54
:2056000003F00303022B03D0032B14BF002308232B7103B030BDE37D9A0706D0637E9B07AC
:2056200003D0E28BA38B9A4202D000232375CEE701232375CBE700BF02280CBF012307236E
:205640000B441A781846FF2A03F1FF3303D18142F7D1012070470020704700BF00B583B007
:205660006946FFF7A3FF9DF800309DF801209DF8020002339DF80310134403449DF804209D
:205680009DF805000B441344184403B05DF804FB4378827890F800C0DB00120102F0100278
:2056A00003F0080313430CF0070290F803C0134302794FEA4C1C0CF0200C920143EA0C03DD
:2056C00002F0400213430B704379827990F809C003F00103520043EA8C1302F0020290F82A
:2056E00007C01343027A4FEA8C0000F00C001201034302F0300213434B70704730B50C46D4
:20570000054683B06946FFF751FF214605F11000FFF7BEFF9DF80030012B02BFAB7E0322F6
:20572000A3709DF8013018BF0222022B08D1A98B531CA154A98BDBB20232090AD2B2E15436
:205740009DF802306BB303F1FF3E1344AE44DBB2944601321EF80119D2B29A4204F80C10A8
:20576000F6D19DF80320022A08D1E98B5A1CE154E98BD2B20233090ADBB2A1549DF804002B
:2057800088B100F1070C1844AC44C0B21A4601331CF801E9DBB2984204F802E0F6D103B0BD
:2057A00030BD1346DDE7184603B030BD034600B593F800C085B00CF0070E8DF804E0CCF32A
:2057C000C00E5B788DF805E0CCF3001E8DF806E0CCF3401ECCF3801C8DF808C003F0010CB1
:2057E0008DF809C0C3F3400C8DF80AC0C3F3810C8DF80BC00846C3F3011C0A229B0901A9DC
:205800008DF807E08DF80CC08DF80D3009F018F805B05DF804FB00BF012943DD2DE9F041A7
:20582000144686B00F4603A90546FFF7BFFF0A2203A904F1100009F003F89DF811306BB313
:20584000AE1C03A802AA01A9FFF742FE9DF81380B8F1000F43D0029B002B31D1B8F1020FD0
:20586000A38367D0B8F1030F4DD09DF81580B8F1000F2CD0019BBBB9A38BE383B8F1020FB7
:205880004DD0B8F1030F31D0701B3B1A8742C4E90E6300DA002006B0BDE8F081AB78EE1C75
:2058A000A376CEE700207047727816F8023B03EB0223029A9BB2E383002ADFD1A383DDE7E8
:2058C000727816F8023B03EB02239BB2C6E71E4904F10800FFF736F9A4F81E80D4E72046A2
:2058E0001949FFF72FF9A4F81C80BEE706F10800034604F1080213F8011DB34202F8011BD0
:20590000F9D10646C0E706F108000346621E13F8011DB34202F8011FF9D10646A5E70A49D5
:2059200004F10800FFF70EF97378237216F8023B6372A9E720460449FFF704F97378237019
:2059400016F8023B637090E7C8F1000030B591B0FFF76EFC0446FFF77FFC6A46014620465B
:20596000FFF75AFF00283ED00446FFF745FCD0B39DF810100C20FFF7ABFC08209DF8131040
:20598000FFF7A6FC9DF817308BB1BDF81C50FFF799FD854205D04FF6FF73BDF81C209A428A
:2059A00021D169469DF81700FFF746FEB0B10D2002A9FFF79BFC9DF815303BB14FF6FF711F
:2059C0000720FFF785FC204611B030BD9DF81A100720FFF77DFC204611B030BD69460E20CF
:2059E000FFF784FCE3E74FF0FF34ECE7F8B505460C2014460E46A84700232074A374002E65
:205A000035D0E37463750920A847002702460123A275237607206774A847A076FFF752FDAB
:205A200003460A20E383A84701280CBF3B4603236376FFF747FD03460B20A383A84701283E
:205A40001AD066B90323E375637E022B0CD0E37DA3F10203B3FA83F35B092375F8BD0223E3
:205A6000E375637E022BF2D101232375F8BD0820A8476675E074C6E7E775E5E730B591B04B
:205A80000446FFF71FFD4FF6FF7398425ED040220021684608F0C6FF2E4B1A7832B36CBBE6
:205AA000FFF738FC01466A462B48C9B2FFF79EFFFFF730FC00283DD04FF6FF73ADF8003061
:205AC0000D20FFF71FFC014602A8FFF73BF8FFF7AFFB0E90FFF7C0FB034668460F93FFF7F0
:205AE000BDFD0546D4B9284611B030BD01221A70FCF702FF194B1870002CD1D00720FFF781
:205B0000EFFB0028CCD1154D2978D9B189B20720FFF7DEFB2B7801332B70C1E7FFF73AFBD3
:205B2000A0B1FFF795FB01466846FFF7E7FD284611B030BD0E20FFF7E5FB01466846FFF7B4
:205B400001F8BDE7012319462B70E0E74FF0FF35C9E700BF89320020E15200008A320020F7
:205B60000120FFF78BBF00BF0020FFF787BF00BF002310B5194A82B004460192ADF80030BB
:205B8000FEF752FE18B1FE24204602B010BD042220460DEB0201FEF783FEC0B920460222F0
:205BA0006946FEF79BFE034620461C46FEF74EFE94B99DF80030C22BE6D19DF80140A4F135
:205BC0001404B4FA84F46409204602B010BD2046FEF73CFEFF24D7E7FF24D5E790FFFF0052
:205BE000052330B583B004468DF80430FEF71CFE10B1002003B030BD05460122204601A954
:205C0000FEF74EFE20B117E09DF80730DB070DD5012220460DF10701FEF760FE0028F3D01E
:205C20002046FEF713FE002003B030BD2046FEF70DFE012003B030BD2046FEF707FE284643
:205C4000D8E700BF10B582B0E8B103780446FF2B03D02046FEF7D8FD10B1002002B010BDE4
:205C60002046FEF7F3FDAB2320468DF80730FEF7DBFD78B12046FFF77BFF0128EED02046D0
:205C8000FEF7CAFDE9E70B4C2046FEF7BDFD0028E3D1E5E7012220460DF10701FEF700FEE2
:205CA00018B12046FEF7D2FDE4E72046FFF798FFF7E700BFDCF1000070B5174C002818BF42
:205CC00004462046FFF78CFF40B900252046FEF7A3FD00280CBF2846002070BD054620461B
:205CE000FEF7A2FD06460028EFD1B9212046FEF7B9FD60B92046FEF7A9FD0A262046FFF74B
:205D000037FF731E0028E1D013F0FF06F6D12046FEF79CFD3546D9E7DCF1000010B5044609
:205D2000FFF790FF00B910BD2046BDE81040FFF7C3BF00BF70B5064600F0F2F80546064CDE
:205D40002368002BFCD0B0470123236005B170BDBDE8704000F0E8B800800C40084B094AE9
:205D6000186B127B9B6A52B2A3F5407302FB03F340F31000A0EB231080300012704700BF93
:205D80000050094000130050044B9A68D86899688A42FAD1000C40EA024070470020094046
:205DA000034B9968D8689A689142FAD1704700BF002009404BF69A1C2249D1F89402D1F84B
:205DC0001823C0F30333C2F30F32624502D04FF0FF307047D1F81823120F0B2AF7D0013BAE
:205DE0000E2BF4D801A252F823F000BF295E0000415E0000CF5D0000295E0000CF5D0000DA
:205E0000CF5D0000CF5D0000CF5D0000295E0000CF5D0000CF5D0000295E0000CF5D00006C
:205E2000CF5D0000355E000010F4000F0CBF04200720704710F0807F0CBF052006207047F7
:205E400002207047001000504BF69A1C274A2749D2F81833D2F8A0001A0F0306D1F818336C
:205E600048BF0020C3F30F3358BFC0B2634515D04BF6BE118B420BD04BF641318B4203D0E2
:205E80004BF620318B4206D12AB90A3040B270471AB3022A1ED04FF0FF307047D1F81833E6
:205EA0001B0F0B2BF1D0531E072BF4D801A252F823F000BFDB5E0000975E0000E95E00001E
:205EC000975E0000975E0000975E0000E55E0000DF5E0000143040B270470A20704716304F
:205EE00040B270471520704714207047001000504BF69A1108B5094AD2F81833C3F30F33B9
:205F00008B4200D0FEE7D2F818331B0F0B2BF9D0FFF79AFF1528F5DD08BD00BF001000503F
:205F2000EFF3108072B67047EFF3108062B67047F8B506460D461746FFF7F2FF064C236862
:205F4000002BFCD001237751236000B1F8BDBDE8F840FFF7E9BF00BF00800C4038B50F2B48
:205F6000BDF810C088BF103B00EB410088BF120C0CFA03FC4CEA024594BF00F5007400F546
:205F80000174FFF7CDFF064A1368002BFCD001232560136000B138BDBDE83840FFF7C4BFB0
:205FA00000800C400F2BF8B51E46174600EB010503D9A3F110060235170CFFF7B1FF0A4CA0
:205FC00021680029FCD001232D882360ADB220B13D4045FA06F080B2F8BD3D40FFF7A4FF08
:205FE00045FA06F080B2F8BD00800C4030B50D46C107044683B005D4A2070DD4630715D486
:2060000003B030BD0023A9B2012200910C481946FFF7A4FFA207F1D5A9B2012300910222BF
:2060200000210748FFF79AFF6307E9D5ADB202230C22002102480095FFF790FF03B030BD62
:2060400000A00C4008B5042807BF1D234FF0C0421C234FF0805234210148FFF7A3FF08BDD9
:2060600000A00C4001280BD028B9084A136823F00503136070470122054BC3F880217047B7
:20608000024A136843F00503136070470000094000000443012138B50546304B304A19617B
:2060A000D2F89432002BFBD0C0212E4A2E4B1160D3F8B02F92074BD4D3F8AC3F2B4AC3F3D4
:2060C000074343F0F00382F856300021234A264B1164D3F8B44F204600F0A6F82146284645
:2060E00000F004FA40F20E21214AD2F814339BB28B421BD8D2F8BC12D2F8BC3211F0706F98
:20610000C3F30343C1F3036218BF02F1FF32A3F1060118BFD2B2012992BF7023023303F043
:206120000F03144988BF1B0113438B70204600F0B5F84FF08053D3F8A0310220DB68984747
:206140004020012207490C4B0860C3F8942438BD7222064B83F85620B7E700BF00100940B9
:206160000000224300600C40003000500062084000100050006008400000604238B5204BE2
:206180000025D3F81C43631C08BF0024FFF7B0FE01231C481C491D4AC0F88454CB65C2F8D4
:2061A000083200F069FA1A4BD3F880312BB1194B2046D3F80031FFF76DFF0020164B17498C
:2061C000C3F88C018B6C164A23F07F6323F4702343F09C7343F480338B645368C3F30133C1
:2061E000012B08D1536823F0407323F4403343F40031516053600B4AD368002BFCD138BD46
:20620000001000500000604200600C400020044300002843000020430020084000200340D0
:2062200000000940000068426FF0090C164B1749D3F8B832164AC3F30463152B88BF203B22
:2062400003EB207301336345B8BF6346152BA8BF152303F01F0343F4F853A1F86E30136899
:2062600013F002030ABF0B4A40F04060C2F894346FEAD0636FEA9060074A03F0010300F099
:20628000010013609060704700100050006208400000094000002A4300002043C0F3814349
:2062A000012B2DE9F04168D0022B03D04FF00042564B1A64564BD3F8B03F1B0702D44022DE
:2062C000524B9A664FF400745049524BC1F88040D3F88C33504AC0F38150C3F3C14343F026
:2062E00030030128137216D0022841D0002878D002210420FFF77AFE47F61800454B474A01
:20630000D3F86C33464903F03F03D372A2F87000CB6ABDE8F081FFF795FE04460420214657
:20632000FFF764FE0420FFF78DFEA042FAD10121374A3C4BD2F8A80F3B4A84B2DC63C0F35B
:2063400007441C645964D2F88438002BFBD04FF080530025334CD3F8B43165644FF0602249
:206360001B680721000E98474FF48062274B1A6403210420FFF73AFEBEE7264BD3F88C236A
:20638000910393D44FF48048204F2849C7F84080CF68C2F30334530A27F08F0703F08003F5
:2063A0003C431C43CC60D1F80B40C2F3032C24F00F044CEA0404C1F80B40D1F80A3002F07D
:2063C000800623F0E70302F06005334302F0060E2B4302F0010243EA0E031343C1F80A307D
:2063E00068E701210420FFF701FE43F2BD74862001210C4B0C4ADC6318645964D2F884383A
:20640000002BFBD00022074B5A6475E700A00C40003000500010005000A10C4000B00C4043
:206420000020094000600C4000008C4300600840174B8203D3F85033C3F38361C3F38F2399
:206440000DD440F30722002A0CDA5B0805D149080ABF01234FF6FF7319460132F5D143EA3C
:2064600001407047FBD05B0043F00103B3F5803F4FEA410007D340F001010F2986BF4FF618
:20648000FF730F210123013AEDD143EA014070470010005030B4134B134CD3F87823D4F8E5
:2064A000B05F0146E807C2F3035CC2F303430BD4D4F8AC0F40F3032440F30330A444034433
:2064C0008CF3040C83F304031B0490B2212943EA0C5340EA030084BF02F08042104330BC16
:2064E000704700BF001000500030005030B5054683B00846FFF79CFF5A4C024618215A483B
:20650000FFF716FDD4F85033D4F85013C3F38703090201F44071194340F2FF320023524887
:2065200000912C21FFF71AFDD4F87C231C214E48C2F30D02FFF7FCFCD4F8742314214A4856
:2065400002F0FC32FFF7F4FCD4F87023102122F07F4222F440324448FFF7EAFC2846FFF77E
:2065600099FF0C2102464048FFF7E2FC212D53D9D4F88C333D4AC3F300735B0043F020034C
:2065800082F84930D4F88C33C3F3407343F0100382F84930334C3448D4F89823D10C930DDC
:2065A00001F4407103F01C030B43C2F381521A432821FFF7BDFCD4F898332C4AC3F30153E1
:2065C0005B0043F06003212D82F84C303ED9D4F88C33C3F3C063DB0043F0800382F841308F
:2065E000D4F88C33C3F345539B0043F47C43A2F8DC301C4B1E49D3F898231003014000F4EF
:206600007C120A43184C08212046FFF791FC4FF48003236403B030BD22221123134C1F2D19
:2066200084F8492084F84930B4D8002228210E48FFF77EFC602080214FF47C4384F84C00D8
:206640000C4A84F84110A4F8DC30DBE780214FF47C431F2D82F84110A2F8DC30C9D8054A5D
:20666000D0E700BF0010005000A00C4000A10C4000F0C0FF00803F40134AD368002BFCD12D
:20668000124A13495368D1F8B01F23F00053490723F0070305D543F0005343F005035360CE
:2066A0007047106843F00051800741F0040109D043F0005343F007035360136803F00303A7
:2066C000032BFAD1516070470000684200400340003000502DE9F04F814B83B01C6814F0D0
:2066E000020408D008227F4B7F49804808639A7103B0BDE8F08F0546FFF730FB7C4B8446EE
:20670000D3F8B46F3217B70202F1010208D4C0F13E03DB10082BA8BF08239A42B8BF1A4662
:20672000744B754FD3F8B812724BC1F30461152988BF20390A446FF00901D3F83C316F48E7
:20674000C3F30443152B88BF203B8A42B8BF0A46152AA8BF152202F01F0141F4F851A7F8BB
:206760006E10D0F8240210F0030118BF0121400748BF41F002010DB141F00401594D95F906
:206780000700ACEB0000042802DCA879884278D0BCF10F0E00F187800EEB0E1EBEF5E06F35
:2067A0004FEA2E286FD34FF4E060554F0190B84600F1A04000F6B440D8F80080006811F0DE
:2067C000040BA8EB000018BFC0F307295FFA80F818BFC84411F0020A1CBFC0F30749C844B2
:2067E00011F0010969D10198AEEB000008FB00F080304FEA102E3F68F8B2BBF1000F02D02A
:20680000C7F307284044BAF1000F02D0C7F307484044B9F1000F01D000EB17609B1A012B25
:20682000B8BF0123342202FB03F3F6B206FB03F37044B3FBF0F64FF6FF72964228BF1646BC
:206840000CF3070CA97185F807C0AE802D4B1E2E9B682B6023D9B6F5007F3AD37608B6F5EC
:20686000007F04F10104F9D20F3E274A360944EAC606324300211C4B1A63596303B0BDE84F
:20688000F08FAE88E2E7214F08F101082EF0FF00019007EB88008046043807468CE71F23DC
:2068A0001B4AAB80E6E74FF0000E184F01F0040B01F0020A01F001099DE708EB1060DDF813
:2068C0000480AEEB080E0EFB00F080304FEA102E91E70D4AA6F10F031B0942EAC302C9E728
:2068E00000000940501A002000100940FDFDA40000300050001000500062084000200840DC
:20690000B81300500020094000E7A4809C13005008E7A48038B5154B5D6BACB204B938BDB1
